{
  "contractName": "CrowdFunding",
  "abi": [
    {
      "inputs": [],
      "stateMutability": "nonpayable",
      "type": "constructor"
    },
    {
      "anonymous": false,
      "inputs": [
        {
          "indexed": false,
          "internalType": "uint256",
          "name": "fundId",
          "type": "uint256"
        },
        {
          "indexed": false,
          "internalType": "string",
          "name": "name",
          "type": "string"
        },
        {
          "indexed": false,
          "internalType": "string",
          "name": "picName",
          "type": "string"
        },
        {
          "indexed": false,
          "internalType": "uint256",
          "name": "goal",
          "type": "uint256"
        },
        {
          "indexed": false,
          "internalType": "uint256",
          "name": "donated",
          "type": "uint256"
        },
        {
          "indexed": false,
          "internalType": "string",
          "name": "desc",
          "type": "string"
        },
        {
          "indexed": false,
          "internalType": "address payable",
          "name": "ownerId",
          "type": "address"
        },
        {
          "indexed": false,
          "internalType": "enum CrowdFunding.FundingStatus",
          "name": "status",
          "type": "uint8"
        }
      ],
      "name": "FundCreated",
      "type": "event"
    },
    {
      "anonymous": false,
      "inputs": [
        {
          "indexed": false,
          "internalType": "uint256",
          "name": "id",
          "type": "uint256"
        },
        {
          "indexed": false,
          "internalType": "string",
          "name": "name",
          "type": "string"
        },
        {
          "indexed": false,
          "internalType": "uint256",
          "name": "amount",
          "type": "uint256"
        },
        {
          "indexed": false,
          "internalType": "uint256",
          "name": "goal",
          "type": "uint256"
        },
        {
          "indexed": false,
          "internalType": "uint256",
          "name": "donated",
          "type": "uint256"
        },
        {
          "indexed": false,
          "internalType": "string",
          "name": "desc",
          "type": "string"
        },
        {
          "indexed": false,
          "internalType": "address payable",
          "name": "owner",
          "type": "address"
        },
        {
          "indexed": false,
          "internalType": "enum CrowdFunding.FundingStatus",
          "name": "status",
          "type": "uint8"
        }
      ],
      "name": "FundDonated",
      "type": "event"
    },
    {
      "inputs": [],
      "name": "currentFundStatus",
      "outputs": [
        {
          "internalType": "enum CrowdFunding.FundingStatus",
          "name": "",
          "type": "uint8"
        }
      ],
      "stateMutability": "view",
      "type": "function"
    },
    {
      "inputs": [
        {
          "internalType": "uint256",
          "name": "",
          "type": "uint256"
        },
        {
          "internalType": "uint256",
          "name": "",
          "type": "uint256"
        }
      ],
      "name": "fundComments",
      "outputs": [
        {
          "internalType": "address",
          "name": "donor",
          "type": "address"
        },
        {
          "internalType": "uint256",
          "name": "amount",
          "type": "uint256"
        },
        {
          "internalType": "string",
          "name": "comment",
          "type": "string"
        }
      ],
      "stateMutability": "view",
      "type": "function"
    },
    {
      "inputs": [
        {
          "internalType": "uint256",
          "name": "",
          "type": "uint256"
        },
        {
          "internalType": "uint256",
          "name": "",
          "type": "uint256"
        }
      ],
      "name": "fundDonations",
      "outputs": [
        {
          "internalType": "address",
          "name": "donor",
          "type": "address"
        },
        {
          "internalType": "uint256",
          "name": "amount",
          "type": "uint256"
        }
      ],
      "stateMutability": "view",
      "type": "function"
    },
    {
      "inputs": [],
      "name": "fundsCount",
      "outputs": [
        {
          "internalType": "uint256",
          "name": "",
          "type": "uint256"
        }
      ],
      "stateMutability": "view",
      "type": "function"
    },
    {
      "inputs": [],
      "name": "fundsEnded",
      "outputs": [
        {
          "internalType": "uint256",
          "name": "",
          "type": "uint256"
        }
      ],
      "stateMutability": "view",
      "type": "function"
    },
    {
      "inputs": [],
      "name": "fundsOngoing",
      "outputs": [
        {
          "internalType": "uint256",
          "name": "",
          "type": "uint256"
        }
      ],
      "stateMutability": "view",
      "type": "function"
    },
    {
      "inputs": [
        {
          "internalType": "uint256",
          "name": "",
          "type": "uint256"
        }
      ],
      "name": "listOfFunds",
      "outputs": [
        {
          "internalType": "uint256",
          "name": "fundId",
          "type": "uint256"
        },
        {
          "internalType": "string",
          "name": "name",
          "type": "string"
        },
        {
          "internalType": "string",
          "name": "picName",
          "type": "string"
        },
        {
          "internalType": "uint256",
          "name": "goal",
          "type": "uint256"
        },
        {
          "internalType": "uint256",
          "name": "donated",
          "type": "uint256"
        },
        {
          "internalType": "string",
          "name": "desc",
          "type": "string"
        },
        {
          "internalType": "address payable",
          "name": "ownerId",
          "type": "address"
        },
        {
          "internalType": "enum CrowdFunding.FundingStatus",
          "name": "status",
          "type": "uint8"
        }
      ],
      "stateMutability": "view",
      "type": "function"
    },
    {
      "inputs": [],
      "name": "owner",
      "outputs": [
        {
          "internalType": "address",
          "name": "",
          "type": "address"
        }
      ],
      "stateMutability": "view",
      "type": "function"
    },
    {
      "inputs": [
        {
          "internalType": "address",
          "name": "",
          "type": "address"
        }
      ],
      "name": "userDonations",
      "outputs": [
        {
          "internalType": "uint256",
          "name": "",
          "type": "uint256"
        }
      ],
      "stateMutability": "view",
      "type": "function"
    },
    {
      "inputs": [],
      "name": "webName",
      "outputs": [
        {
          "internalType": "string",
          "name": "",
          "type": "string"
        }
      ],
      "stateMutability": "view",
      "type": "function"
    },
    {
      "inputs": [],
      "name": "setFundSold",
      "outputs": [],
      "stateMutability": "nonpayable",
      "type": "function"
    },
    {
      "inputs": [],
      "name": "getFundName",
      "outputs": [
        {
          "internalType": "string",
          "name": "",
          "type": "string"
        }
      ],
      "stateMutability": "view",
      "type": "function"
    },
    {
      "inputs": [],
      "name": "getFundStatus",
      "outputs": [
        {
          "internalType": "enum CrowdFunding.FundingStatus",
          "name": "",
          "type": "uint8"
        }
      ],
      "stateMutability": "view",
      "type": "function"
    },
    {
      "inputs": [
        {
          "internalType": "string",
          "name": "_name",
          "type": "string"
        },
        {
          "internalType": "string",
          "name": "_picName",
          "type": "string"
        },
        {
          "internalType": "uint256",
          "name": "_goal",
          "type": "uint256"
        },
        {
          "internalType": "uint256",
          "name": "_donated",
          "type": "uint256"
        },
        {
          "internalType": "string",
          "name": "_desc",
          "type": "string"
        }
      ],
      "name": "addFunds",
      "outputs": [],
      "stateMutability": "nonpayable",
      "type": "function"
    },
    {
      "inputs": [],
      "name": "getNoOfFunds",
      "outputs": [
        {
          "internalType": "uint256",
          "name": "",
          "type": "uint256"
        }
      ],
      "stateMutability": "view",
      "type": "function"
    },
    {
      "inputs": [
        {
          "internalType": "uint256",
          "name": "_id",
          "type": "uint256"
        }
      ],
      "name": "donateFund",
      "outputs": [],
      "stateMutability": "payable",
      "type": "function"
    },
    {
      "inputs": [
        {
          "internalType": "uint256",
          "name": "_id",
          "type": "uint256"
        }
      ],
      "name": "getDonationHistory",
      "outputs": [
        {
          "components": [
            {
              "internalType": "address",
              "name": "donor",
              "type": "address"
            },
            {
              "internalType": "uint256",
              "name": "amount",
              "type": "uint256"
            }
          ],
          "internalType": "struct CrowdFunding.Donation[]",
          "name": "",
          "type": "tuple[]"
        }
      ],
      "stateMutability": "view",
      "type": "function"
    },
    {
      "inputs": [
        {
          "internalType": "uint256",
          "name": "_id",
          "type": "uint256"
        }
      ],
      "name": "getFundComments",
      "outputs": [
        {
          "components": [
            {
              "internalType": "address",
              "name": "donor",
              "type": "address"
            },
            {
              "internalType": "uint256",
              "name": "amount",
              "type": "uint256"
            },
            {
              "internalType": "string",
              "name": "comment",
              "type": "string"
            }
          ],
          "internalType": "struct CrowdFunding.Comment[]",
          "name": "",
          "type": "tuple[]"
        }
      ],
      "stateMutability": "view",
      "type": "function"
    },
    {
      "inputs": [
        {
          "internalType": "address",
          "name": "_user",
          "type": "address"
        }
      ],
      "name": "getUserRating",
      "outputs": [
        {
          "internalType": "uint256",
          "name": "",
          "type": "uint256"
        }
      ],
      "stateMutability": "view",
      "type": "function"
    },
    {
      "inputs": [
        {
          "internalType": "uint256",
          "name": "_campaignId",
          "type": "uint256"
        }
      ],
      "name": "getCampaignStars",
      "outputs": [
        {
          "internalType": "uint256",
          "name": "",
          "type": "uint256"
        }
      ],
      "stateMutability": "view",
      "type": "function"
    }
  ],
  "bytecode": "0x60806040523480156200001157600080fd5b5060006001819055506001600260006101000a81548160ff02191690836001811115620000435762000042620000d6565b5b02179055506040518060400160405280600c81526020017f43726f776446756e64696e670000000000000000000000000000000000000000815250600090816200008e91906200037f565b5033600260016101000a81548173ffffffffffffffffffffffffffffffffffffffff021916908373ffffffffffffffffffffffffffffffffffffffff16021790555062000466565b7f4e487b7100000000000000000000000000000000000000000000000000000000600052602160045260246000fd5b600081519050919050565b7f4e487b7100000000000000000000000000000000000000000000000000000000600052604160045260246000fd5b7f4e487b7100000000000000000000000000000000000000000000000000000000600052602260045260246000fd5b600060028204905060018216806200018757607f821691505b6020821081036200019d576200019c6200013f565b5b50919050565b60008190508160005260206000209050919050565b60006020601f8301049050919050565b600082821b905092915050565b600060088302620002077fffffffffffffffffffffffffffffffffffffffffffffffffffffffffffffffff82620001c8565b620002138683620001c8565b95508019841693508086168417925050509392505050565b6000819050919050565b6000819050919050565b6000620002606200025a62000254846200022b565b62000235565b6200022b565b9050919050565b6000819050919050565b6200027c836200023f565b620002946200028b8262000267565b848454620001d5565b825550505050565b600090565b620002ab6200029c565b620002b881848462000271565b505050565b5b81811015620002e057620002d4600082620002a1565b600181019050620002be565b5050565b601f8211156200032f57620002f981620001a3565b6200030484620001b8565b8101602085101562000314578190505b6200032c6200032385620001b8565b830182620002bd565b50505b505050565b600082821c905092915050565b6000620003546000198460080262000334565b1980831691505092915050565b60006200036f838362000341565b9150826002028217905092915050565b6200038a8262000105565b67ffffffffffffffff811115620003a657620003a562000110565b5b620003b282546200016e565b620003bf828285620002e4565b600060209050601f831160018114620003f75760008415620003e2578287015190505b620003ee858262000361565b8655506200045e565b601f1984166200040786620001a3565b60005b8281101562000431578489015182556001820191506020850194506020810190506200040a565b868310156200045157848901516200044d601f89168262000341565b8355505b6001600288020188555050505b505050505050565b61234880620004766000396000f3fe60806040526004361061011f5760003560e01c80638cd36d45116100a0578063b38775eb11610064578063b38775eb146103f3578063cd313ad91461041e578063d7a3d70e14610462578063dccd62f51461049f578063e5282a0d146104ca5761011f565b80638cd36d451461031e5780638da5cb5b146103495780638dc7868814610374578063932b811d1461039f578063a87fe87e146103c85761011f565b8063221f1647116100e7578063221f1647146102245780632869a6e61461024f5780632db536ef1461028c578063460168c3146102ca578063868bc027146103075761011f565b806307eac9bc146101245780630a039fd21461014f5780630aa4991d1461018c5780630c914722146101c957806311e0a979146101e5575b600080fd5b34801561013057600080fd5b506101396104f5565b60405161014691906114bd565b60405180910390f35b34801561015b57600080fd5b5061017660048036038101906101719190611522565b61050c565b604051610183919061155e565b60405180910390f35b34801561019857600080fd5b506101b360048036038101906101ae91906115d7565b6105a0565b6040516101c0919061155e565b60405180910390f35b6101e360048036038101906101de9190611522565b6105b8565b005b3480156101f157600080fd5b5061020c60048036038101906102079190611604565b61097d565b60405161021b939291906116e3565b60405180910390f35b34801561023057600080fd5b50610239610a6c565b604051610246919061155e565b60405180910390f35b34801561025b57600080fd5b5061027660048036038101906102719190611522565b610a76565b604051610283919061181d565b60405180910390f35b34801561029857600080fd5b506102b360048036038101906102ae9190611604565b610b8d565b6040516102c192919061183f565b60405180910390f35b3480156102d657600080fd5b506102f160048036038101906102ec91906115d7565b610bee565b6040516102fe919061155e565b60405180910390f35b34801561031357600080fd5b5061031c610ca2565b005b34801561032a57600080fd5b50610333610ccf565b604051610340919061155e565b60405180910390f35b34801561035557600080fd5b5061035e610cd5565b60405161036b9190611868565b60405180910390f35b34801561038057600080fd5b50610389610cfb565b604051610396919061155e565b60405180910390f35b3480156103ab57600080fd5b506103c660048036038101906103c191906119b8565b610d01565b005b3480156103d457600080fd5b506103dd610ed2565b6040516103ea9190611a87565b60405180910390f35b3480156103ff57600080fd5b50610408610f64565b6040516104159190611a87565b60405180910390f35b34801561042a57600080fd5b5061044560048036038101906104409190611522565b610ff2565b604051610459989796959493929190611aca565b60405180910390f35b34801561046e57600080fd5b5061048960048036038101906104849190611522565b6111ff565b6040516104969190611cb9565b60405180910390f35b3480156104ab57600080fd5b506104b46113a8565b6040516104c1919061155e565b60405180910390f35b3480156104d657600080fd5b506104df6113ae565b6040516104ec91906114bd565b60405180910390f35b6000600260009054906101000a900460ff16905090565b600080600560008481526020019081526020016000209050600081600301546064836004015461053c9190611d0a565b6105469190611d7b565b90506064811061055b5760059250505061059b565b604b811061056e5760049250505061059b565b603281106105815760039250505061059b565b601981106105945760029250505061059b565b6001925050505b919050565b60086020528060005260406000206000915090505481565b600060056000838152602001908152602001600020905060008160070160009054906101000a900473ffffffffffffffffffffffffffffffffffffffff169050600082600001541180156106125750600154826000015411155b610651576040517f08c379a000000000000000000000000000000000000000000000000000000000815260040161064890611df8565b60405180910390fd5b60018081111561066457610663611446565b5b8260070160149054906101000a900460ff16600181111561068857610687611446565b5b146106c8576040517f08c379a00000000000000000000000000000000000000000000000000000000081526004016106bf90611e64565b60405180910390fd5b3373ffffffffffffffffffffffffffffffffffffffff168173ffffffffffffffffffffffffffffffffffffffff1603610736576040517f08c379a000000000000000000000000000000000000000000000000000000000815260040161072d90611ed0565b60405180910390fd5b3482600401600082825461074a9190611ef0565b92505081905550816006013490806001815401808255809150506001900390600052602060002001600090919091909150556006600084815260200190815260200160002060405180604001604052803373ffffffffffffffffffffffffffffffffffffffff16815260200134815250908060018154018082558091505060019003906000526020600020906002020160009091909190915060008201518160000160006101000a81548173ffffffffffffffffffffffffffffffffffffffff021916908373ffffffffffffffffffffffffffffffffffffffff16021790555060208201518160010155505034600860003373ffffffffffffffffffffffffffffffffffffffff1673ffffffffffffffffffffffffffffffffffffffff16815260200190815260200160002060008282546108859190611ef0565b925050819055508073ffffffffffffffffffffffffffffffffffffffff166108fc349081150290604051600060405180830381858888f193505050501580156108d2573d6000803e3d6000fd5b5081600301548260040154106109105760008260070160146101000a81548160ff0219169083600181111561090a57610909611446565b5b02179055505b7fc1b48f390ed353529c0d7142a32f9ede6fc5885785a7da3a85586f457f0cb427826000015483600101348560030154866004015487600501338960070160149054906101000a900460ff1660405161097098979695949392919061201d565b60405180910390a1505050565b6007602052816000526040600020818154811061099957600080fd5b9060005260206000209060030201600091509150508060000160009054906101000a900473ffffffffffffffffffffffffffffffffffffffff16908060010154908060020180546109e990611f53565b80601f0160208091040260200160405190810160405280929190818152602001828054610a1590611f53565b8015610a625780601f10610a3757610100808354040283529160200191610a62565b820191906000526020600020905b815481529060010190602001808311610a4557829003601f168201915b5050505050905083565b6000600154905090565b6060600154821115610abd576040517f08c379a0000000000000000000000000000000000000000000000000000000008152600401610ab490611df8565b60405180910390fd5b60066000838152602001908152602001600020805480602002602001604051908101604052809291908181526020016000905b82821015610b8257838290600052602060002090600202016040518060400160405290816000820160009054906101000a900473ffffffffffffffffffffffffffffffffffffffff1673ffffffffffffffffffffffffffffffffffffffff1673ffffffffffffffffffffffffffffffffffffffff16815260200160018201548152505081526020019060010190610af0565b505050509050919050565b60066020528160005260406000208181548110610ba957600080fd5b9060005260206000209060020201600091509150508060000160009054906101000a900473ffffffffffffffffffffffffffffffffffffffff16908060010154905082565b600080600860008473ffffffffffffffffffffffffffffffffffffffff1673ffffffffffffffffffffffffffffffffffffffff168152602001908152602001600020549050678ac7230489e800008110610c4c576005915050610c9d565b674563918244f400008110610c65576004915050610c9d565b670de0b6b3a76400008110610c7e576003915050610c9d565b6706f05b59d3b200008110610c97576002915050610c9d565b60019150505b919050565b6000600260006101000a81548160ff02191690836001811115610cc857610cc7611446565b5b0217905550565b60015481565b600260019054906101000a900473ffffffffffffffffffffffffffffffffffffffff1681565b60045481565b610d096113c1565b606060405180610120016040528060015481526020018781526020018681526020018581526020018481526020018381526020018281526020013373ffffffffffffffffffffffffffffffffffffffff168152602001600180811115610d7257610d71611446565b5b815250600560006001548152602001908152602001600020600082015181600001556020820151816001019081610da99190612240565b506040820151816002019081610dbf9190612240565b50606082015181600301556080820151816004015560a0820151816005019081610de99190612240565b5060c0820151816006019080519060200190610e069291906113dc565b5060e08201518160070160006101000a81548173ffffffffffffffffffffffffffffffffffffffff021916908373ffffffffffffffffffffffffffffffffffffffff1602179055506101008201518160070160146101000a81548160ff02191690836001811115610e7a57610e79611446565b5b02179055509050507f63535273494e6cfddf138de365792dae1e28008178b091e9b7a73b37d373a5ac6001548787878787336001604051610ec2989796959493929190611aca565b60405180910390a1505050505050565b606060008054610ee190611f53565b80601f0160208091040260200160405190810160405280929190818152602001828054610f0d90611f53565b8015610f5a5780601f10610f2f57610100808354040283529160200191610f5a565b820191906000526020600020905b815481529060010190602001808311610f3d57829003601f168201915b5050505050905090565b60008054610f7190611f53565b80601f0160208091040260200160405190810160405280929190818152602001828054610f9d90611f53565b8015610fea5780601f10610fbf57610100808354040283529160200191610fea565b820191906000526020600020905b815481529060010190602001808311610fcd57829003601f168201915b505050505081565b600560205280600052604060002060009150905080600001549080600101805461101b90611f53565b80601f016020809104026020016040519081016040528092919081815260200182805461104790611f53565b80156110945780601f1061106957610100808354040283529160200191611094565b820191906000526020600020905b81548152906001019060200180831161107757829003601f168201915b5050505050908060020180546110a990611f53565b80601f01602080910402602001604051908101604052809291908181526020018280546110d590611f53565b80156111225780601f106110f757610100808354040283529160200191611122565b820191906000526020600020905b81548152906001019060200180831161110557829003601f168201915b50505050509080600301549080600401549080600501805461114390611f53565b80601f016020809104026020016040519081016040528092919081815260200182805461116f90611f53565b80156111bc5780601f10611191576101008083540402835291602001916111bc565b820191906000526020600020905b81548152906001019060200180831161119f57829003601f168201915b5050505050908060070160009054906101000a900473ffffffffffffffffffffffffffffffffffffffff16908060070160149054906101000a900460ff16905088565b6060600154821115611246576040517f08c379a000000000000000000000000000000000000000000000000000000000815260040161123d90611df8565b60405180910390fd5b60076000838152602001908152602001600020805480602002602001604051908101604052809291908181526020016000905b8282101561139d57838290600052602060002090600302016040518060600160405290816000820160009054906101000a900473ffffffffffffffffffffffffffffffffffffffff1673ffffffffffffffffffffffffffffffffffffffff1673ffffffffffffffffffffffffffffffffffffffff1681526020016001820154815260200160028201805461130c90611f53565b80601f016020809104026020016040519081016040528092919081815260200182805461133890611f53565b80156113855780601f1061135a57610100808354040283529160200191611385565b820191906000526020600020905b81548152906001019060200180831161136857829003601f168201915b50505050508152505081526020019060010190611279565b505050509050919050565b60035481565b600260009054906101000a900460ff1681565b60018060008282546113d39190611ef0565b92505081905550565b828054828255906000526020600020908101928215611418579160200282015b828111156114175782518255916020019190600101906113fc565b5b5090506114259190611429565b5090565b5b8082111561144257600081600090555060010161142a565b5090565b7f4e487b7100000000000000000000000000000000000000000000000000000000600052602160045260246000fd5b6002811061148657611485611446565b5b50565b600081905061149782611475565b919050565b60006114a782611489565b9050919050565b6114b78161149c565b82525050565b60006020820190506114d260008301846114ae565b92915050565b6000604051905090565b600080fd5b600080fd5b6000819050919050565b6114ff816114ec565b811461150a57600080fd5b50565b60008135905061151c816114f6565b92915050565b600060208284031215611538576115376114e2565b5b60006115468482850161150d565b91505092915050565b611558816114ec565b82525050565b6000602082019050611573600083018461154f565b92915050565b600073ffffffffffffffffffffffffffffffffffffffff82169050919050565b60006115a482611579565b9050919050565b6115b481611599565b81146115bf57600080fd5b50565b6000813590506115d1816115ab565b92915050565b6000602082840312156115ed576115ec6114e2565b5b60006115fb848285016115c2565b91505092915050565b6000806040838503121561161b5761161a6114e2565b5b60006116298582860161150d565b925050602061163a8582860161150d565b9150509250929050565b61164d81611599565b82525050565b600081519050919050565b600082825260208201905092915050565b60005b8381101561168d578082015181840152602081019050611672565b60008484015250505050565b6000601f19601f8301169050919050565b60006116b582611653565b6116bf818561165e565b93506116cf81856020860161166f565b6116d881611699565b840191505092915050565b60006060820190506116f86000830186611644565b611705602083018561154f565b818103604083015261171781846116aa565b9050949350505050565b600081519050919050565b600082825260208201905092915050565b6000819050602082019050919050565b61175681611599565b82525050565b611765816114ec565b82525050565b604082016000820151611781600085018261174d565b506020820151611794602085018261175c565b50505050565b60006117a6838361176b565b60408301905092915050565b6000602082019050919050565b60006117ca82611721565b6117d4818561172c565b93506117df8361173d565b8060005b838110156118105781516117f7888261179a565b9750611802836117b2565b9250506001810190506117e3565b5085935050505092915050565b6000602082019050818103600083015261183781846117bf565b905092915050565b60006040820190506118546000830185611644565b611861602083018461154f565b9392505050565b600060208201905061187d6000830184611644565b92915050565b600080fd5b600080fd5b7f4e487b7100000000000000000000000000000000000000000000000000000000600052604160045260246000fd5b6118c582611699565b810181811067ffffffffffffffff821117156118e4576118e361188d565b5b80604052505050565b60006118f76114d8565b905061190382826118bc565b919050565b600067ffffffffffffffff8211156119235761192261188d565b5b61192c82611699565b9050602081019050919050565b82818337600083830152505050565b600061195b61195684611908565b6118ed565b90508281526020810184848401111561197757611976611888565b5b611982848285611939565b509392505050565b600082601f83011261199f5761199e611883565b5b81356119af848260208601611948565b91505092915050565b600080600080600060a086880312156119d4576119d36114e2565b5b600086013567ffffffffffffffff8111156119f2576119f16114e7565b5b6119fe8882890161198a565b955050602086013567ffffffffffffffff811115611a1f57611a1e6114e7565b5b611a2b8882890161198a565b9450506040611a3c8882890161150d565b9350506060611a4d8882890161150d565b925050608086013567ffffffffffffffff811115611a6e57611a6d6114e7565b5b611a7a8882890161198a565b9150509295509295909350565b60006020820190508181036000830152611aa181846116aa565b905092915050565b6000611ab482611579565b9050919050565b611ac481611aa9565b82525050565b600061010082019050611ae0600083018b61154f565b8181036020830152611af2818a6116aa565b90508181036040830152611b0681896116aa565b9050611b15606083018861154f565b611b22608083018761154f565b81810360a0830152611b3481866116aa565b9050611b4360c0830185611abb565b611b5060e08301846114ae565b9998505050505050505050565b600081519050919050565b600082825260208201905092915050565b6000819050602082019050919050565b600082825260208201905092915050565b6000611ba582611653565b611baf8185611b89565b9350611bbf81856020860161166f565b611bc881611699565b840191505092915050565b6000606083016000830151611beb600086018261174d565b506020830151611bfe602086018261175c565b5060408301518482036040860152611c168282611b9a565b9150508091505092915050565b6000611c2f8383611bd3565b905092915050565b6000602082019050919050565b6000611c4f82611b5d565b611c598185611b68565b935083602082028501611c6b85611b79565b8060005b85811015611ca75784840389528151611c888582611c23565b9450611c9383611c37565b925060208a01995050600181019050611c6f565b50829750879550505050505092915050565b60006020820190508181036000830152611cd38184611c44565b905092915050565b7f4e487b7100000000000000000000000000000000000000000000000000000000600052601160045260246000fd5b6000611d15826114ec565b9150611d20836114ec565b9250828202611d2e816114ec565b91508282048414831517611d4557611d44611cdb565b5b5092915050565b7f4e487b7100000000000000000000000000000000000000000000000000000000600052601260045260246000fd5b6000611d86826114ec565b9150611d91836114ec565b925082611da157611da0611d4c565b5b828204905092915050565b7f496e76616c69642066756e642049440000000000000000000000000000000000600082015250565b6000611de2600f8361165e565b9150611ded82611dac565b602082019050919050565b60006020820190508181036000830152611e1181611dd5565b9050919050565b7f43616d706169676e207265616368656420676f616c0000000000000000000000600082015250565b6000611e4e60158361165e565b9150611e5982611e18565b602082019050919050565b60006020820190508181036000830152611e7d81611e41565b9050919050565b7f53656c6c65722063616e6e6f7420646f6e617465206f776e2066756e64000000600082015250565b6000611eba601d8361165e565b9150611ec582611e84565b602082019050919050565b60006020820190508181036000830152611ee981611ead565b9050919050565b6000611efb826114ec565b9150611f06836114ec565b9250828201905080821115611f1e57611f1d611cdb565b5b92915050565b7f4e487b7100000000000000000000000000000000000000000000000000000000600052602260045260246000fd5b60006002820490506001821680611f6b57607f821691505b602082108103611f7e57611f7d611f24565b5b50919050565b60008190508160005260206000209050919050565b60008154611fa681611f53565b611fb0818661165e565b94506001821660008114611fcb5760018114611fe157612014565b60ff198316865281151560200286019350612014565b611fea85611f84565b60005b8381101561200c57815481890152600182019150602081019050611fed565b808801955050505b50505092915050565b600061010082019050612033600083018b61154f565b8181036020830152612045818a611f99565b9050612054604083018961154f565b612061606083018861154f565b61206e608083018761154f565b81810360a08301526120808186611f99565b905061208f60c0830185611abb565b61209c60e08301846114ae565b9998505050505050505050565b60006020601f8301049050919050565b600082821b905092915050565b6000600883026120f67fffffffffffffffffffffffffffffffffffffffffffffffffffffffffffffffff826120b9565b61210086836120b9565b95508019841693508086168417925050509392505050565b6000819050919050565b600061213d612138612133846114ec565b612118565b6114ec565b9050919050565b6000819050919050565b61215783612122565b61216b61216382612144565b8484546120c6565b825550505050565b600090565b612180612173565b61218b81848461214e565b505050565b5b818110156121af576121a4600082612178565b600181019050612191565b5050565b601f8211156121f4576121c581611f84565b6121ce846120a9565b810160208510156121dd578190505b6121f16121e9856120a9565b830182612190565b50505b505050565b600082821c905092915050565b6000612217600019846008026121f9565b1980831691505092915050565b60006122308383612206565b9150826002028217905092915050565b61224982611653565b67ffffffffffffffff8111156122625761226161188d565b5b61226c8254611f53565b6122778282856121b3565b600060209050601f8311600181146122aa5760008415612298578287015190505b6122a28582612224565b86555061230a565b601f1984166122b886611f84565b60005b828110156122e0578489015182556001820191506020850194506020810190506122bb565b868310156122fd57848901516122f9601f891682612206565b8355505b6001600288020188555050505b50505050505056fea26469706673582212207cb284f7bbe8dedb6d7fdb2aa917f88ca524750024c4a7bd24d7cff11eb2865e64736f6c63430008120033",
  "immutableReferences": {},
  "source": "// SPDX-License-Identifier: MIT\r\npragma solidity ^0.8.18;\r\n\r\ncontract CrowdFunding {\r\n    enum FundingStatus { Ended, Ongoing }\r\n\r\n    string public webName;\r\n    uint public fundsCount;\r\n    FundingStatus public currentFundStatus;\r\n    address public owner;\r\n    uint public fundsEnded;\r\n    uint public fundsOngoing;\r\n\r\n    constructor() {\r\n        fundsCount = 0;\r\n        currentFundStatus = FundingStatus.Ongoing;\r\n        webName = \"CrowdFunding\";\r\n        owner = msg.sender;\r\n    }\r\n\r\n    function setFundSold() public {\r\n        currentFundStatus = FundingStatus.Ended;\r\n    }\r\n\r\n    function getFundName() public view returns (string memory) {\r\n        return webName;\r\n    }\r\n\r\n    function getFundStatus() public view returns (FundingStatus) {\r\n        return currentFundStatus;\r\n    }\r\n\r\n    struct FundDetails {\r\n        uint fundId;\r\n        string name;\r\n        string picName;\r\n        uint goal;\r\n        uint donated;\r\n        string desc;\r\n        uint256[] donations;\r\n        address payable ownerId;\r\n        FundingStatus status;\r\n    }\r\n\r\n    struct Donation {\r\n        address donor;\r\n        uint amount;\r\n    }\r\n\r\n    struct Comment {\r\n        address donor;\r\n        uint amount;\r\n        string comment;\r\n    }\r\n\r\n    mapping(uint => FundDetails) public listOfFunds;\r\n    mapping(uint => Donation[]) public fundDonations;\r\n    mapping(uint => Comment[]) public fundComments;\r\n    mapping(address => uint) public userDonations;\r\n    \r\n\r\n    event FundCreated(\r\n        uint fundId,\r\n        string name,\r\n        string picName,\r\n        uint goal,\r\n        uint donated,\r\n        string desc,\r\n        address payable ownerId,\r\n        FundingStatus status\r\n    );\r\n\r\n    event FundDonated(\r\n        uint id,\r\n        string name,\r\n        uint amount,\r\n        uint goal,\r\n        uint donated,\r\n        string desc,\r\n        address payable owner,\r\n        FundingStatus status\r\n    );\r\n\r\n    function addFunds(\r\n        string memory _name,\r\n        string memory _picName,\r\n        uint _goal,\r\n        uint _donated,\r\n        string memory _desc\r\n    ) public {\r\n        incrementFundCount();\r\n        uint256[] memory empDonations;\r\n        listOfFunds[fundsCount] = FundDetails(\r\n            fundsCount,\r\n            _name,\r\n            _picName,\r\n            _goal,\r\n            _donated,\r\n            _desc,\r\n            empDonations,\r\n            payable(msg.sender),\r\n            FundingStatus.Ongoing\r\n        );\r\n        emit FundCreated(fundsCount, _name, _picName, _goal, _donated, _desc, payable(msg.sender), FundingStatus.Ongoing);\r\n    }\r\n\r\n    function incrementFundCount() internal {\r\n        fundsCount += 1;\r\n    }\r\n\r\n    function getNoOfFunds() public view returns (uint) {\r\n        return fundsCount;\r\n    }\r\n\r\n    function donateFund(uint _id) public payable {\r\n        FundDetails storage fundsInfo = listOfFunds[_id];\r\n        address payable seller = fundsInfo.ownerId;\r\n        require(fundsInfo.fundId > 0 && fundsInfo.fundId <= fundsCount, \"Invalid fund ID\");\r\n        require(fundsInfo.status == FundingStatus.Ongoing, \"Campaign reached goal\");\r\n        require(seller != msg.sender, \"Seller cannot donate own fund\");\r\n        fundsInfo.donated += msg.value;\r\n        fundsInfo.donations.push(msg.value);\r\n\r\n        fundDonations[_id].push(Donation({\r\n            donor: msg.sender,\r\n            amount: msg.value\r\n        }));\r\n\r\n        \r\n        userDonations[msg.sender] += msg.value;\r\n        seller.transfer(msg.value);\r\n\r\n        if (fundsInfo.donated >= fundsInfo.goal) {\r\n            fundsInfo.status = FundingStatus.Ended;\r\n        }\r\n\r\n        emit FundDonated(fundsInfo.fundId, fundsInfo.name, msg.value, fundsInfo.goal, fundsInfo.donated, fundsInfo.desc, payable(msg.sender), fundsInfo.status);\r\n    }\r\n\r\n    function getDonationHistory(uint _id) public view returns (Donation[] memory) {\r\n        require(_id <= fundsCount, \"Invalid fund ID\");\r\n        return fundDonations[_id];\r\n    }\r\n\r\n    function getFundComments(uint _id) public view returns (Comment[] memory) {\r\n        require(_id <= fundsCount, \"Invalid fund ID\");\r\n        return fundComments[_id];\r\n    }\r\n\r\n    function getUserRating(address _user) public view returns (uint) {\r\n        uint totalDonated = userDonations[_user];\r\n\r\n        if (totalDonated >= 10 ether) return 5; // Platinum\r\n        if (totalDonated >= 5 ether) return 4;  // Gold\r\n        if (totalDonated >= 1 ether) return 3;  // Silver\r\n        if (totalDonated >= 0.5 ether) return 2; // Bronze\r\n        return 1; // Classic\r\n    }\r\n\r\n    function getCampaignStars(uint _campaignId) public view returns (uint) {\r\n        FundDetails storage campaign = listOfFunds[_campaignId];\r\n        uint percentage = (campaign.donated * 100) / campaign.goal;\r\n\r\n        if (percentage >= 100) return 5;\r\n        if (percentage >= 75) return 4;\r\n        if (percentage >= 50) return 3;\r\n        if (percentage >= 25) return 2;\r\n        return 1;\r\n    }\r\n}\r\n",
  "sourcePath": "C:\\Republic Poly\\yr3sem1\\fyp\\2024FYP\\CrowdFunding\\contracts\\CrowdFunding.sol",
  "compiler": {
    "name": "solc",
    "version": "0.8.18+commit.87f61d96.Emscripten.clang"
  },
  "schemaVersion": "3.4.16",
  "updatedAt": "2024-07-29T07:19:20.127Z",
  "devdoc": {
    "kind": "dev",
    "methods": {},
    "version": 1
  },
  "userdoc": {
    "kind": "user",
    "methods": {},
    "version": 1
  }
}