{
  "contractName": "CrowdFunding",
  "abi": [
    {
      "inputs": [
        {
          "internalType": "uint256",
          "name": "",
          "type": "uint256"
        }
      ],
      "name": "campaigns",
      "outputs": [
        {
          "internalType": "address",
          "name": "owner",
          "type": "address"
        },
        {
          "internalType": "string",
          "name": "title",
          "type": "string"
        },
        {
          "internalType": "string",
          "name": "description",
          "type": "string"
        },
        {
          "internalType": "uint256",
          "name": "target",
          "type": "uint256"
        },
        {
          "internalType": "uint256",
          "name": "deadline",
          "type": "uint256"
        },
        {
          "internalType": "uint256",
          "name": "amountCollected",
          "type": "uint256"
        },
        {
          "internalType": "string",
          "name": "image",
          "type": "string"
        }
      ],
      "stateMutability": "view",
      "type": "function"
    },
    {
      "inputs": [],
      "name": "numberOfCampaigns",
      "outputs": [
        {
          "internalType": "uint256",
          "name": "",
          "type": "uint256"
        }
      ],
      "stateMutability": "view",
      "type": "function"
    },
    {
      "inputs": [
        {
          "internalType": "address",
          "name": "_owner",
          "type": "address"
        },
        {
          "internalType": "string",
          "name": "_title",
          "type": "string"
        },
        {
          "internalType": "string",
          "name": "_description",
          "type": "string"
        },
        {
          "internalType": "uint256",
          "name": "_target",
          "type": "uint256"
        },
        {
          "internalType": "uint256",
          "name": "_deadline",
          "type": "uint256"
        },
        {
          "internalType": "string",
          "name": "_image",
          "type": "string"
        }
      ],
      "name": "creatCampaign",
      "outputs": [
        {
          "internalType": "uint256",
          "name": "",
          "type": "uint256"
        }
      ],
      "stateMutability": "nonpayable",
      "type": "function"
    },
    {
      "inputs": [
        {
          "internalType": "uint256",
          "name": "_id",
          "type": "uint256"
        }
      ],
      "name": "donateToCampaign",
      "outputs": [],
      "stateMutability": "payable",
      "type": "function"
    },
    {
      "inputs": [
        {
          "internalType": "uint256",
          "name": "_id",
          "type": "uint256"
        }
      ],
      "name": "getDonators",
      "outputs": [
        {
          "internalType": "address[]",
          "name": "",
          "type": "address[]"
        },
        {
          "internalType": "uint256[]",
          "name": "",
          "type": "uint256[]"
        }
      ],
      "stateMutability": "view",
      "type": "function"
    },
    {
      "inputs": [],
      "name": "getCampaigns",
      "outputs": [
        {
          "components": [
            {
              "internalType": "address",
              "name": "owner",
              "type": "address"
            },
            {
              "internalType": "string",
              "name": "title",
              "type": "string"
            },
            {
              "internalType": "string",
              "name": "description",
              "type": "string"
            },
            {
              "internalType": "uint256",
              "name": "target",
              "type": "uint256"
            },
            {
              "internalType": "uint256",
              "name": "deadline",
              "type": "uint256"
            },
            {
              "internalType": "uint256",
              "name": "amountCollected",
              "type": "uint256"
            },
            {
              "internalType": "string",
              "name": "image",
              "type": "string"
            },
            {
              "internalType": "address[]",
              "name": "donators",
              "type": "address[]"
            },
            {
              "internalType": "uint256[]",
              "name": "donations",
              "type": "uint256[]"
            }
          ],
          "internalType": "struct CrowdFunding.Campaign[]",
          "name": "",
          "type": "tuple[]"
        }
      ],
      "stateMutability": "view",
      "type": "function"
    }
  ],
  "bytecode": "0x6080604052600060015534801561001557600080fd5b5061192b806100256000396000f3fe6080604052600436106100555760003560e01c806307ca140d1461005a5780630fa91fa914610085578063141961bc146100c357806342a4fda814610106578063a6b0363314610122578063b9bd7c931461014d575b600080fd5b34801561006657600080fd5b5061006f61018a565b60405161007c9190610b72565b60405180910390f35b34801561009157600080fd5b506100ac60048036038101906100a79190610bcd565b610190565b6040516100ba929190610da8565b60405180910390f35b3480156100cf57600080fd5b506100ea60048036038101906100e59190610bcd565b6102a0565b6040516100fd9796959493929190610e7e565b60405180910390f35b610120600480360381019061011b9190610bcd565b61049a565b005b34801561012e57600080fd5b506101376105fa565b60405161014491906111cd565b60405180910390f35b34801561015957600080fd5b50610174600480360381019061016f9190611350565b6109d0565b6040516101819190610b72565b60405180910390f35b60015481565b6060806000808481526020019081526020016000206007016000808581526020019081526020016000206008018180548060200260200160405190810160405280929190818152602001828054801561023e57602002820191906000526020600020905b8160009054906101000a900473ffffffffffffffffffffffffffffffffffffffff1673ffffffffffffffffffffffffffffffffffffffff16815260200190600101908083116101f4575b505050505091508080548060200260200160405190810160405280929190818152602001828054801561029057602002820191906000526020600020905b81548152602001906001019080831161027c575b5050505050905091509150915091565b60006020528060005260406000206000915090508060000160009054906101000a900473ffffffffffffffffffffffffffffffffffffffff16908060010180546102e990611460565b80601f016020809104026020016040519081016040528092919081815260200182805461031590611460565b80156103625780601f1061033757610100808354040283529160200191610362565b820191906000526020600020905b81548152906001019060200180831161034557829003601f168201915b50505050509080600201805461037790611460565b80601f01602080910402602001604051908101604052809291908181526020018280546103a390611460565b80156103f05780601f106103c5576101008083540402835291602001916103f0565b820191906000526020600020905b8154815290600101906020018083116103d357829003601f168201915b50505050509080600301549080600401549080600501549080600601805461041790611460565b80601f016020809104026020016040519081016040528092919081815260200182805461044390611460565b80156104905780601f1061046557610100808354040283529160200191610490565b820191906000526020600020905b81548152906001019060200180831161047357829003601f168201915b5050505050905087565b60003490506000806000848152602001908152602001600020905080600701339080600181540180825580915050600190039060005260206000200160009091909190916101000a81548173ffffffffffffffffffffffffffffffffffffffff021916908373ffffffffffffffffffffffffffffffffffffffff1602179055508060080182908060018154018082558091505060019003906000526020600020016000909190919091505560008160000160009054906101000a900473ffffffffffffffffffffffffffffffffffffffff1673ffffffffffffffffffffffffffffffffffffffff168360405161058f906114c2565b60006040518083038185875af1925050503d80600081146105cc576040519150601f19603f3d011682016040523d82523d6000602084013e6105d1565b606091505b5050905080156105f4578282600501546105eb9190611506565b82600501819055505b50505050565b6060600060015467ffffffffffffffff81111561061a57610619611225565b5b60405190808252806020026020018201604052801561065357816020015b610640610af7565b8152602001906001900390816106385790505b50905060005b6001548110156109c8576000806000838152602001908152602001600020905080604051806101200160405290816000820160009054906101000a900473ffffffffffffffffffffffffffffffffffffffff1673ffffffffffffffffffffffffffffffffffffffff1673ffffffffffffffffffffffffffffffffffffffff1681526020016001820180546106ec90611460565b80601f016020809104026020016040519081016040528092919081815260200182805461071890611460565b80156107655780601f1061073a57610100808354040283529160200191610765565b820191906000526020600020905b81548152906001019060200180831161074857829003601f168201915b5050505050815260200160028201805461077e90611460565b80601f01602080910402602001604051908101604052809291908181526020018280546107aa90611460565b80156107f75780601f106107cc576101008083540402835291602001916107f7565b820191906000526020600020905b8154815290600101906020018083116107da57829003601f168201915b5050505050815260200160038201548152602001600482015481526020016005820154815260200160068201805461082e90611460565b80601f016020809104026020016040519081016040528092919081815260200182805461085a90611460565b80156108a75780601f1061087c576101008083540402835291602001916108a7565b820191906000526020600020905b81548152906001019060200180831161088a57829003601f168201915b505050505081526020016007820180548060200260200160405190810160405280929190818152602001828054801561093557602002820191906000526020600020905b8160009054906101000a900473ffffffffffffffffffffffffffffffffffffffff1673ffffffffffffffffffffffffffffffffffffffff16815260200190600101908083116108eb575b505050505081526020016008820180548060200260200160405190810160405280929190818152602001828054801561098d57602002820191906000526020600020905b815481526020019060010190808311610979575b5050505050815250508383815181106109a9576109a861153a565b5b60200260200101819052505080806109c090611569565b915050610659565b508091505090565b6000806000806001548152602001908152602001600020905042816004015410610a2f576040517f08c379a0000000000000000000000000000000000000000000000000000000008152600401610a2690611623565b60405180910390fd5b878160000160006101000a81548173ffffffffffffffffffffffffffffffffffffffff021916908373ffffffffffffffffffffffffffffffffffffffff16021790555086816001019081610a8391906117ef565b5085816002019081610a9591906117ef565b508481600301819055508381600401819055506000816005018190555082816006019081610ac391906117ef565b5060016000815480929190610ad790611569565b919050555060018054610aea91906118c1565b9150509695505050505050565b604051806101200160405280600073ffffffffffffffffffffffffffffffffffffffff16815260200160608152602001606081526020016000815260200160008152602001600081526020016060815260200160608152602001606081525090565b6000819050919050565b610b6c81610b59565b82525050565b6000602082019050610b876000830184610b63565b92915050565b6000604051905090565b600080fd5b600080fd5b610baa81610b59565b8114610bb557600080fd5b50565b600081359050610bc781610ba1565b92915050565b600060208284031215610be357610be2610b97565b5b6000610bf184828501610bb8565b91505092915050565b600081519050919050565b600082825260208201905092915050565b6000819050602082019050919050565b600073ffffffffffffffffffffffffffffffffffffffff82169050919050565b6000610c5182610c26565b9050919050565b610c6181610c46565b82525050565b6000610c738383610c58565b60208301905092915050565b6000602082019050919050565b6000610c9782610bfa565b610ca18185610c05565b9350610cac83610c16565b8060005b83811015610cdd578151610cc48882610c67565b9750610ccf83610c7f565b925050600181019050610cb0565b5085935050505092915050565b600081519050919050565b600082825260208201905092915050565b6000819050602082019050919050565b610d1f81610b59565b82525050565b6000610d318383610d16565b60208301905092915050565b6000602082019050919050565b6000610d5582610cea565b610d5f8185610cf5565b9350610d6a83610d06565b8060005b83811015610d9b578151610d828882610d25565b9750610d8d83610d3d565b925050600181019050610d6e565b5085935050505092915050565b60006040820190508181036000830152610dc28185610c8c565b90508181036020830152610dd68184610d4a565b90509392505050565b610de881610c46565b82525050565b600081519050919050565b600082825260208201905092915050565b60005b83811015610e28578082015181840152602081019050610e0d565b60008484015250505050565b6000601f19601f8301169050919050565b6000610e5082610dee565b610e5a8185610df9565b9350610e6a818560208601610e0a565b610e7381610e34565b840191505092915050565b600060e082019050610e93600083018a610ddf565b8181036020830152610ea58189610e45565b90508181036040830152610eb98188610e45565b9050610ec86060830187610b63565b610ed56080830186610b63565b610ee260a0830185610b63565b81810360c0830152610ef48184610e45565b905098975050505050505050565b600081519050919050565b600082825260208201905092915050565b6000819050602082019050919050565b600082825260208201905092915050565b6000610f4a82610dee565b610f548185610f2e565b9350610f64818560208601610e0a565b610f6d81610e34565b840191505092915050565b600082825260208201905092915050565b6000610f9482610bfa565b610f9e8185610f78565b9350610fa983610c16565b8060005b83811015610fda578151610fc18882610c67565b9750610fcc83610c7f565b925050600181019050610fad565b5085935050505092915050565b600082825260208201905092915050565b600061100382610cea565b61100d8185610fe7565b935061101883610d06565b8060005b838110156110495781516110308882610d25565b975061103b83610d3d565b92505060018101905061101c565b5085935050505092915050565b60006101208301600083015161106f6000860182610c58565b50602083015184820360208601526110878282610f3f565b915050604083015184820360408601526110a18282610f3f565b91505060608301516110b66060860182610d16565b5060808301516110c96080860182610d16565b5060a08301516110dc60a0860182610d16565b5060c083015184820360c08601526110f48282610f3f565b91505060e083015184820360e086015261110e8282610f89565b91505061010083015184820361010086015261112a8282610ff8565b9150508091505092915050565b60006111438383611056565b905092915050565b6000602082019050919050565b600061116382610f02565b61116d8185610f0d565b93508360208202850161117f85610f1e565b8060005b858110156111bb578484038952815161119c8582611137565b94506111a78361114b565b925060208a01995050600181019050611183565b50829750879550505050505092915050565b600060208201905081810360008301526111e78184611158565b905092915050565b6111f881610c46565b811461120357600080fd5b50565b600081359050611215816111ef565b92915050565b600080fd5b600080fd5b7f4e487b7100000000000000000000000000000000000000000000000000000000600052604160045260246000fd5b61125d82610e34565b810181811067ffffffffffffffff8211171561127c5761127b611225565b5b80604052505050565b600061128f610b8d565b905061129b8282611254565b919050565b600067ffffffffffffffff8211156112bb576112ba611225565b5b6112c482610e34565b9050602081019050919050565b82818337600083830152505050565b60006112f36112ee846112a0565b611285565b90508281526020810184848401111561130f5761130e611220565b5b61131a8482856112d1565b509392505050565b600082601f8301126113375761133661121b565b5b81356113478482602086016112e0565b91505092915050565b60008060008060008060c0878903121561136d5761136c610b97565b5b600061137b89828a01611206565b965050602087013567ffffffffffffffff81111561139c5761139b610b9c565b5b6113a889828a01611322565b955050604087013567ffffffffffffffff8111156113c9576113c8610b9c565b5b6113d589828a01611322565b94505060606113e689828a01610bb8565b93505060806113f789828a01610bb8565b92505060a087013567ffffffffffffffff81111561141857611417610b9c565b5b61142489828a01611322565b9150509295509295509295565b7f4e487b7100000000000000000000000000000000000000000000000000000000600052602260045260246000fd5b6000600282049050600182168061147857607f821691505b60208210810361148b5761148a611431565b5b50919050565b600081905092915050565b50565b60006114ac600083611491565b91506114b78261149c565b600082019050919050565b60006114cd8261149f565b9150819050919050565b7f4e487b7100000000000000000000000000000000000000000000000000000000600052601160045260246000fd5b600061151182610b59565b915061151c83610b59565b9250828201905080821115611534576115336114d7565b5b92915050565b7f4e487b7100000000000000000000000000000000000000000000000000000000600052603260045260246000fd5b600061157482610b59565b91507fffffffffffffffffffffffffffffffffffffffffffffffffffffffffffffffff82036115a6576115a56114d7565b5b600182019050919050565b7f54686520646561646c696e652073686f756c642062652061206461746520696e60008201527f20746865206675747572652e0000000000000000000000000000000000000000602082015250565b600061160d602c83610df9565b9150611618826115b1565b604082019050919050565b6000602082019050818103600083015261163c81611600565b9050919050565b60008190508160005260206000209050919050565b60006020601f8301049050919050565b600082821b905092915050565b6000600883026116a57fffffffffffffffffffffffffffffffffffffffffffffffffffffffffffffffff82611668565b6116af8683611668565b95508019841693508086168417925050509392505050565b6000819050919050565b60006116ec6116e76116e284610b59565b6116c7565b610b59565b9050919050565b6000819050919050565b611706836116d1565b61171a611712826116f3565b848454611675565b825550505050565b600090565b61172f611722565b61173a8184846116fd565b505050565b5b8181101561175e57611753600082611727565b600181019050611740565b5050565b601f8211156117a35761177481611643565b61177d84611658565b8101602085101561178c578190505b6117a061179885611658565b83018261173f565b50505b505050565b600082821c905092915050565b60006117c6600019846008026117a8565b1980831691505092915050565b60006117df83836117b5565b9150826002028217905092915050565b6117f882610dee565b67ffffffffffffffff81111561181157611810611225565b5b61181b8254611460565b611826828285611762565b600060209050601f8311600181146118595760008415611847578287015190505b61185185826117d3565b8655506118b9565b601f19841661186786611643565b60005b8281101561188f5784890151825560018201915060208501945060208101905061186a565b868310156118ac57848901516118a8601f8916826117b5565b8355505b6001600288020188555050505b505050505050565b60006118cc82610b59565b91506118d783610b59565b92508282039050818111156118ef576118ee6114d7565b5b9291505056fea264697066735822122034d70212632ebf005c1dcbd9a28a8be8e1b9de7e3451a43c492786e1e460a26c64736f6c63430008120033",
  "immutableReferences": {},
  "source": "// SPDX-License-Identifier: UNLICENSED\r\npragma solidity ^0.8.9;\r\n\r\ncontract CrowdFunding {\r\n    struct Campaign {\r\n        address owner;\r\n        string title;\r\n        string description;\r\n        uint256 target;\r\n        uint256 deadline;\r\n        uint256 amountCollected;\r\n        string image;\r\n        address[] donators;\r\n        uint256[] donations;\r\n    }\r\n\r\n    mapping(uint256 => Campaign) public campaigns;\r\n\r\n    uint256 public numberOfCampaigns = 0;\r\n\r\n    function creatCampaign(address _owner, string memory _title, string memory _description,\r\n    uint256 _target, uint256 _deadline, string memory _image) public returns (uint256) {\r\n        Campaign storage campaign = campaigns[numberOfCampaigns];\r\n        require(campaign.deadline < block.timestamp, \"The deadline should be a date in the future.\");\r\n        campaign.owner = _owner;\r\n        campaign.title = _title;\r\n        campaign.description = _description;\r\n        campaign.target = _target;\r\n        campaign.deadline = _deadline;\r\n        campaign.amountCollected = 0;\r\n        campaign.image = _image;\r\n\r\n        numberOfCampaigns++;\r\n        return numberOfCampaigns - 1;\r\n\r\n    }\r\n\r\n    function donateToCampaign(uint256 _id) public payable {\r\n        uint256 amount = msg.value;\r\n        Campaign storage campaign = campaigns[_id];\r\n        campaign.donators.push(msg.sender);\r\n        campaign.donations.push(amount);\r\n        (bool sent,) = payable(campaign.owner).call{value: amount}(\"\");\r\n        if(sent){\r\n            campaign.amountCollected = campaign.amountCollected + amount;\r\n        }\r\n    }\r\n\r\n    function getDonators(uint256 _id) view public returns (address[] memory, uint256[] memory){\r\n        return(campaigns[_id].donators, campaigns[_id].donations);\r\n    }\r\n\r\n    function getCampaigns() public view returns (Campaign[] memory) {\r\n        Campaign[] memory allCampaigns = new Campaign[](numberOfCampaigns);\r\n\r\n        for(uint i = 0; i < numberOfCampaigns; i++) {\r\n            Campaign storage item = campaigns[i];\r\n            allCampaigns[i] = item;\r\n        }\r\n        return allCampaigns;\r\n    }\r\n\r\n\r\n}",
  "sourcePath": "C:\\Users\\22014463\\Desktop\\FYP\\CrowdFunding\\contracts\\CrowdFunding.sol",
  "compiler": {
    "name": "solc",
    "version": "0.8.18+commit.87f61d96.Emscripten.clang"
  },
  "schemaVersion": "3.4.16",
  "updatedAt": "2024-05-22T07:03:22.714Z",
  "devdoc": {
    "kind": "dev",
    "methods": {},
    "version": 1
  },
  "userdoc": {
    "kind": "user",
    "methods": {},
    "version": 1
  }
}