{
  "contractName": "CrowdFunding",
  "abi": [
    {
      "inputs": [
        {
          "internalType": "uint256",
          "name": "",
          "type": "uint256"
        }
      ],
      "name": "campaigns",
      "outputs": [
        {
          "internalType": "address",
          "name": "owner",
          "type": "address"
        },
        {
          "internalType": "string",
          "name": "title",
          "type": "string"
        },
        {
          "internalType": "string",
          "name": "description",
          "type": "string"
        },
        {
          "internalType": "uint256",
          "name": "target",
          "type": "uint256"
        },
        {
          "internalType": "uint256",
          "name": "deadline",
          "type": "uint256"
        },
        {
          "internalType": "uint256",
          "name": "collected",
          "type": "uint256"
        },
        {
          "internalType": "string",
          "name": "image",
          "type": "string"
        }
      ],
      "stateMutability": "view",
      "type": "function"
    },
    {
      "inputs": [],
      "name": "noOfCampaigns",
      "outputs": [
        {
          "internalType": "uint256",
          "name": "",
          "type": "uint256"
        }
      ],
      "stateMutability": "view",
      "type": "function"
    },
    {
      "inputs": [
        {
          "internalType": "address",
          "name": "_owner",
          "type": "address"
        },
        {
          "internalType": "string",
          "name": "_title",
          "type": "string"
        },
        {
          "internalType": "string",
          "name": "_description",
          "type": "string"
        },
        {
          "internalType": "uint256",
          "name": "_target",
          "type": "uint256"
        },
        {
          "internalType": "uint256",
          "name": "_deadline",
          "type": "uint256"
        },
        {
          "internalType": "string",
          "name": "_image",
          "type": "string"
        }
      ],
      "name": "createCampaign",
      "outputs": [
        {
          "internalType": "uint256",
          "name": "",
          "type": "uint256"
        }
      ],
      "stateMutability": "nonpayable",
      "type": "function"
    },
    {
      "inputs": [
        {
          "internalType": "uint256",
          "name": "_id",
          "type": "uint256"
        }
      ],
      "name": "donateToCampaign",
      "outputs": [],
      "stateMutability": "payable",
      "type": "function"
    },
    {
      "inputs": [
        {
          "internalType": "uint256",
          "name": "_id",
          "type": "uint256"
        }
      ],
      "name": "getDonators",
      "outputs": [
        {
          "internalType": "address[]",
          "name": "",
          "type": "address[]"
        },
        {
          "internalType": "uint256[]",
          "name": "",
          "type": "uint256[]"
        }
      ],
      "stateMutability": "view",
      "type": "function"
    },
    {
      "inputs": [],
      "name": "getCampaigns",
      "outputs": [
        {
          "components": [
            {
              "internalType": "address",
              "name": "owner",
              "type": "address"
            },
            {
              "internalType": "string",
              "name": "title",
              "type": "string"
            },
            {
              "internalType": "string",
              "name": "description",
              "type": "string"
            },
            {
              "internalType": "uint256",
              "name": "target",
              "type": "uint256"
            },
            {
              "internalType": "uint256",
              "name": "deadline",
              "type": "uint256"
            },
            {
              "internalType": "uint256",
              "name": "collected",
              "type": "uint256"
            },
            {
              "internalType": "string",
              "name": "image",
              "type": "string"
            },
            {
              "internalType": "address[]",
              "name": "donators",
              "type": "address[]"
            },
            {
              "internalType": "uint256[]",
              "name": "donations",
              "type": "uint256[]"
            }
          ],
          "internalType": "struct CrowdFunding.Campaign[]",
          "name": "",
          "type": "tuple[]"
        }
      ],
      "stateMutability": "view",
      "type": "function"
    }
  ],
  "bytecode": "0x6080604052600060015534801561001557600080fd5b5061192b806100256000396000f3fe6080604052600436106100555760003560e01c80630fa91fa91461005a578063141961bc1461009857806317818e59146100db57806342a4fda8146101065780639943e3a114610122578063a6b036331461015f575b600080fd5b34801561006657600080fd5b50610081600480360381019061007c9190610ba3565b61018a565b60405161008f929190610d7e565b60405180910390f35b3480156100a457600080fd5b506100bf60048036038101906100ba9190610ba3565b61029a565b6040516100d29796959493929190610e63565b60405180910390f35b3480156100e757600080fd5b506100f0610494565b6040516100fd9190610ee7565b60405180910390f35b610120600480360381019061011b9190610ba3565b61049a565b005b34801561012e57600080fd5b5061014960048036038101906101449190611063565b6105fa565b6040516101569190610ee7565b60405180910390f35b34801561016b57600080fd5b50610174610721565b604051610181919061140f565b60405180910390f35b6060806000808481526020019081526020016000206007016000808581526020019081526020016000206008018180548060200260200160405190810160405280929190818152602001828054801561023857602002820191906000526020600020905b8160009054906101000a900473ffffffffffffffffffffffffffffffffffffffff1673ffffffffffffffffffffffffffffffffffffffff16815260200190600101908083116101ee575b505050505091508080548060200260200160405190810160405280929190818152602001828054801561028a57602002820191906000526020600020905b815481526020019060010190808311610276575b5050505050905091509150915091565b60006020528060005260406000206000915090508060000160009054906101000a900473ffffffffffffffffffffffffffffffffffffffff16908060010180546102e390611460565b80601f016020809104026020016040519081016040528092919081815260200182805461030f90611460565b801561035c5780601f106103315761010080835404028352916020019161035c565b820191906000526020600020905b81548152906001019060200180831161033f57829003601f168201915b50505050509080600201805461037190611460565b80601f016020809104026020016040519081016040528092919081815260200182805461039d90611460565b80156103ea5780601f106103bf576101008083540402835291602001916103ea565b820191906000526020600020905b8154815290600101906020018083116103cd57829003601f168201915b50505050509080600301549080600401549080600501549080600601805461041190611460565b80601f016020809104026020016040519081016040528092919081815260200182805461043d90611460565b801561048a5780601f1061045f5761010080835404028352916020019161048a565b820191906000526020600020905b81548152906001019060200180831161046d57829003601f168201915b5050505050905087565b60015481565b60003490506000806000848152602001908152602001600020905080600701339080600181540180825580915050600190039060005260206000200160009091909190916101000a81548173ffffffffffffffffffffffffffffffffffffffff021916908373ffffffffffffffffffffffffffffffffffffffff1602179055508060080182908060018154018082558091505060019003906000526020600020016000909190919091505560008160000160009054906101000a900473ffffffffffffffffffffffffffffffffffffffff1673ffffffffffffffffffffffffffffffffffffffff168360405161058f906114c2565b60006040518083038185875af1925050503d80600081146105cc576040519150601f19603f3d011682016040523d82523d6000602084013e6105d1565b606091505b5050905080156105f4578282600501546105eb9190611506565b82600501819055505b50505050565b6000806000806001548152602001908152602001600020905042816004015410610659576040517f08c379a0000000000000000000000000000000000000000000000000000000008152600401610650906115ac565b60405180910390fd5b878160000160006101000a81548173ffffffffffffffffffffffffffffffffffffffff021916908373ffffffffffffffffffffffffffffffffffffffff160217905550868160010190816106ad9190611778565b50858160020190816106bf9190611778565b5084816003018190555083816004018190555060008160050181905550828160060190816106ed9190611778565b50600160008154809291906107019061184a565b9190505550600180546107149190611892565b9150509695505050505050565b6060600060015467ffffffffffffffff81111561074157610740610f38565b5b60405190808252806020026020018201604052801561077a57816020015b610767610af7565b81526020019060019003908161075f5790505b50905060005b600154811015610aef576000806000838152602001908152602001600020905080604051806101200160405290816000820160009054906101000a900473ffffffffffffffffffffffffffffffffffffffff1673ffffffffffffffffffffffffffffffffffffffff1673ffffffffffffffffffffffffffffffffffffffff16815260200160018201805461081390611460565b80601f016020809104026020016040519081016040528092919081815260200182805461083f90611460565b801561088c5780601f106108615761010080835404028352916020019161088c565b820191906000526020600020905b81548152906001019060200180831161086f57829003601f168201915b505050505081526020016002820180546108a590611460565b80601f01602080910402602001604051908101604052809291908181526020018280546108d190611460565b801561091e5780601f106108f35761010080835404028352916020019161091e565b820191906000526020600020905b81548152906001019060200180831161090157829003601f168201915b5050505050815260200160038201548152602001600482015481526020016005820154815260200160068201805461095590611460565b80601f016020809104026020016040519081016040528092919081815260200182805461098190611460565b80156109ce5780601f106109a3576101008083540402835291602001916109ce565b820191906000526020600020905b8154815290600101906020018083116109b157829003601f168201915b5050505050815260200160078201805480602002602001604051908101604052809291908181526020018280548015610a5c57602002820191906000526020600020905b8160009054906101000a900473ffffffffffffffffffffffffffffffffffffffff1673ffffffffffffffffffffffffffffffffffffffff1681526020019060010190808311610a12575b5050505050815260200160088201805480602002602001604051908101604052809291908181526020018280548015610ab457602002820191906000526020600020905b815481526020019060010190808311610aa0575b505050505081525050838381518110610ad057610acf6118c6565b5b6020026020010181905250508080610ae79061184a565b915050610780565b508091505090565b604051806101200160405280600073ffffffffffffffffffffffffffffffffffffffff16815260200160608152602001606081526020016000815260200160008152602001600081526020016060815260200160608152602001606081525090565b6000604051905090565b600080fd5b600080fd5b6000819050919050565b610b8081610b6d565b8114610b8b57600080fd5b50565b600081359050610b9d81610b77565b92915050565b600060208284031215610bb957610bb8610b63565b5b6000610bc784828501610b8e565b91505092915050565b600081519050919050565b600082825260208201905092915050565b6000819050602082019050919050565b600073ffffffffffffffffffffffffffffffffffffffff82169050919050565b6000610c2782610bfc565b9050919050565b610c3781610c1c565b82525050565b6000610c498383610c2e565b60208301905092915050565b6000602082019050919050565b6000610c6d82610bd0565b610c778185610bdb565b9350610c8283610bec565b8060005b83811015610cb3578151610c9a8882610c3d565b9750610ca583610c55565b925050600181019050610c86565b5085935050505092915050565b600081519050919050565b600082825260208201905092915050565b6000819050602082019050919050565b610cf581610b6d565b82525050565b6000610d078383610cec565b60208301905092915050565b6000602082019050919050565b6000610d2b82610cc0565b610d358185610ccb565b9350610d4083610cdc565b8060005b83811015610d71578151610d588882610cfb565b9750610d6383610d13565b925050600181019050610d44565b5085935050505092915050565b60006040820190508181036000830152610d988185610c62565b90508181036020830152610dac8184610d20565b90509392505050565b610dbe81610c1c565b82525050565b600081519050919050565b600082825260208201905092915050565b60005b83811015610dfe578082015181840152602081019050610de3565b60008484015250505050565b6000601f19601f8301169050919050565b6000610e2682610dc4565b610e308185610dcf565b9350610e40818560208601610de0565b610e4981610e0a565b840191505092915050565b610e5d81610b6d565b82525050565b600060e082019050610e78600083018a610db5565b8181036020830152610e8a8189610e1b565b90508181036040830152610e9e8188610e1b565b9050610ead6060830187610e54565b610eba6080830186610e54565b610ec760a0830185610e54565b81810360c0830152610ed98184610e1b565b905098975050505050505050565b6000602082019050610efc6000830184610e54565b92915050565b610f0b81610c1c565b8114610f1657600080fd5b50565b600081359050610f2881610f02565b92915050565b600080fd5b600080fd5b7f4e487b7100000000000000000000000000000000000000000000000000000000600052604160045260246000fd5b610f7082610e0a565b810181811067ffffffffffffffff82111715610f8f57610f8e610f38565b5b80604052505050565b6000610fa2610b59565b9050610fae8282610f67565b919050565b600067ffffffffffffffff821115610fce57610fcd610f38565b5b610fd782610e0a565b9050602081019050919050565b82818337600083830152505050565b600061100661100184610fb3565b610f98565b90508281526020810184848401111561102257611021610f33565b5b61102d848285610fe4565b509392505050565b600082601f83011261104a57611049610f2e565b5b813561105a848260208601610ff3565b91505092915050565b60008060008060008060c087890312156110805761107f610b63565b5b600061108e89828a01610f19565b965050602087013567ffffffffffffffff8111156110af576110ae610b68565b5b6110bb89828a01611035565b955050604087013567ffffffffffffffff8111156110dc576110db610b68565b5b6110e889828a01611035565b94505060606110f989828a01610b8e565b935050608061110a89828a01610b8e565b92505060a087013567ffffffffffffffff81111561112b5761112a610b68565b5b61113789828a01611035565b9150509295509295509295565b600081519050919050565b600082825260208201905092915050565b6000819050602082019050919050565b600082825260208201905092915050565b600061118c82610dc4565b6111968185611170565b93506111a6818560208601610de0565b6111af81610e0a565b840191505092915050565b600082825260208201905092915050565b60006111d682610bd0565b6111e081856111ba565b93506111eb83610bec565b8060005b8381101561121c5781516112038882610c3d565b975061120e83610c55565b9250506001810190506111ef565b5085935050505092915050565b600082825260208201905092915050565b600061124582610cc0565b61124f8185611229565b935061125a83610cdc565b8060005b8381101561128b5781516112728882610cfb565b975061127d83610d13565b92505060018101905061125e565b5085935050505092915050565b6000610120830160008301516112b16000860182610c2e565b50602083015184820360208601526112c98282611181565b915050604083015184820360408601526112e38282611181565b91505060608301516112f86060860182610cec565b50608083015161130b6080860182610cec565b5060a083015161131e60a0860182610cec565b5060c083015184820360c08601526113368282611181565b91505060e083015184820360e086015261135082826111cb565b91505061010083015184820361010086015261136c828261123a565b9150508091505092915050565b60006113858383611298565b905092915050565b6000602082019050919050565b60006113a582611144565b6113af818561114f565b9350836020820285016113c185611160565b8060005b858110156113fd57848403895281516113de8582611379565b94506113e98361138d565b925060208a019950506001810190506113c5565b50829750879550505050505092915050565b60006020820190508181036000830152611429818461139a565b905092915050565b7f4e487b7100000000000000000000000000000000000000000000000000000000600052602260045260246000fd5b6000600282049050600182168061147857607f821691505b60208210810361148b5761148a611431565b5b50919050565b600081905092915050565b50565b60006114ac600083611491565b91506114b78261149c565b600082019050919050565b60006114cd8261149f565b9150819050919050565b7f4e487b7100000000000000000000000000000000000000000000000000000000600052601160045260246000fd5b600061151182610b6d565b915061151c83610b6d565b9250828201905080821115611534576115336114d7565b5b92915050565b7f54686520646561646c696e652073686f756c642062652061206461746520696e60008201527f20746865206675747572652e0000000000000000000000000000000000000000602082015250565b6000611596602c83610dcf565b91506115a18261153a565b604082019050919050565b600060208201905081810360008301526115c581611589565b9050919050565b60008190508160005260206000209050919050565b60006020601f8301049050919050565b600082821b905092915050565b60006008830261162e7fffffffffffffffffffffffffffffffffffffffffffffffffffffffffffffffff826115f1565b61163886836115f1565b95508019841693508086168417925050509392505050565b6000819050919050565b600061167561167061166b84610b6d565b611650565b610b6d565b9050919050565b6000819050919050565b61168f8361165a565b6116a361169b8261167c565b8484546115fe565b825550505050565b600090565b6116b86116ab565b6116c3818484611686565b505050565b5b818110156116e7576116dc6000826116b0565b6001810190506116c9565b5050565b601f82111561172c576116fd816115cc565b611706846115e1565b81016020851015611715578190505b611729611721856115e1565b8301826116c8565b50505b505050565b600082821c905092915050565b600061174f60001984600802611731565b1980831691505092915050565b6000611768838361173e565b9150826002028217905092915050565b61178182610dc4565b67ffffffffffffffff81111561179a57611799610f38565b5b6117a48254611460565b6117af8282856116eb565b600060209050601f8311600181146117e257600084156117d0578287015190505b6117da858261175c565b865550611842565b601f1984166117f0866115cc565b60005b82811015611818578489015182556001820191506020850194506020810190506117f3565b868310156118355784890151611831601f89168261173e565b8355505b6001600288020188555050505b505050505050565b600061185582610b6d565b91507fffffffffffffffffffffffffffffffffffffffffffffffffffffffffffffffff8203611887576118866114d7565b5b600182019050919050565b600061189d82610b6d565b91506118a883610b6d565b92508282039050818111156118c0576118bf6114d7565b5b92915050565b7f4e487b7100000000000000000000000000000000000000000000000000000000600052603260045260246000fdfea2646970667358221220c178039f648cdbb33b10a945c653b473f243d2650e509b46ea0abc63814fd0d364736f6c63430008120033",
  "immutableReferences": {},
  "source": "// SPDX-License-Identifier: UNLICENSED\r\npragma solidity ^0.8.9;\r\n\r\ncontract CrowdFunding {\r\n    struct Campaign {\r\n        address owner;\r\n        string title;\r\n        string description;\r\n        uint256 target;\r\n        uint256 deadline;\r\n        uint256 collected;\r\n        string image;\r\n        address[] donators;\r\n        uint256[] donations;\r\n    }\r\n\r\n    mapping(uint256 => Campaign) public campaigns;\r\n\r\n    uint256 public noOfCampaigns = 0;\r\n\r\n    function createCampaign(address _owner, string memory _title, string memory _description,\r\n    uint256 _target, uint256 _deadline, string memory _image) public returns (uint256) {\r\n        Campaign storage campaign = campaigns[noOfCampaigns];\r\n        require(campaign.deadline < block.timestamp, \"The deadline should be a date in the future.\");\r\n        campaign.owner = _owner;\r\n        campaign.title = _title;\r\n        campaign.description = _description;\r\n        campaign.target = _target;\r\n        campaign.deadline = _deadline;\r\n        campaign.collected = 0;\r\n        campaign.image = _image;\r\n\r\n        noOfCampaigns++;\r\n        return noOfCampaigns - 1;\r\n\r\n    }\r\n\r\n    function donateToCampaign(uint256 _id) public payable {\r\n        uint256 amount = msg.value;\r\n        Campaign storage campaign = campaigns[_id];\r\n        campaign.donators.push(msg.sender);\r\n        campaign.donations.push(amount);\r\n        (bool sent,) = payable(campaign.owner).call{value: amount}(\"\");\r\n        if(sent){\r\n            campaign.collected = campaign.collected + amount;\r\n        }\r\n    }\r\n\r\n    function getDonators(uint256 _id) view public returns (address[] memory, uint256[] memory){\r\n        return(campaigns[_id].donators, campaigns[_id].donations);\r\n    }\r\n\r\n    function getCampaigns() public view returns (Campaign[] memory) {\r\n        Campaign[] memory allCampaigns = new Campaign[](noOfCampaigns);\r\n\r\n        for(uint i = 0; i < noOfCampaigns; i++) {\r\n            Campaign storage item = campaigns[i];\r\n            allCampaigns[i] = item;\r\n        }\r\n        return allCampaigns;\r\n    }\r\n\r\n\r\n}",
  "sourcePath": "C:\\Users\\22014463\\Desktop\\FYP\\CrowdFunding\\contracts\\CrowdFunding.sol",
  "compiler": {
    "name": "solc",
    "version": "0.8.18+commit.87f61d96.Emscripten.clang"
  },
  "schemaVersion": "3.4.16",
  "updatedAt": "2024-05-23T03:43:27.831Z",
  "devdoc": {
    "kind": "dev",
    "methods": {},
    "version": 1
  },
  "userdoc": {
    "kind": "user",
    "methods": {},
    "version": 1
  }
}