{
  "contractName": "CrowdFunding",
  "abi": [
    {
      "inputs": [],
      "stateMutability": "nonpayable",
      "type": "constructor"
    },
    {
      "anonymous": false,
      "inputs": [
        {
          "indexed": false,
          "internalType": "uint256",
          "name": "fundId",
          "type": "uint256"
        },
        {
          "indexed": false,
          "internalType": "string",
          "name": "name",
          "type": "string"
        },
        {
          "indexed": false,
          "internalType": "string",
          "name": "picName",
          "type": "string"
        },
        {
          "indexed": false,
          "internalType": "uint256",
          "name": "goal",
          "type": "uint256"
        },
        {
          "indexed": false,
          "internalType": "uint256",
          "name": "donated",
          "type": "uint256"
        },
        {
          "indexed": false,
          "internalType": "string",
          "name": "desc",
          "type": "string"
        },
        {
          "indexed": false,
          "internalType": "address payable",
          "name": "ownerId",
          "type": "address"
        },
        {
          "indexed": false,
          "internalType": "enum CrowdFunding.FundingStatus",
          "name": "status",
          "type": "uint8"
        }
      ],
      "name": "FundCreated",
      "type": "event"
    },
    {
      "anonymous": false,
      "inputs": [
        {
          "indexed": false,
          "internalType": "uint256",
          "name": "id",
          "type": "uint256"
        },
        {
          "indexed": false,
          "internalType": "string",
          "name": "name",
          "type": "string"
        },
        {
          "indexed": false,
          "internalType": "uint256",
          "name": "amount",
          "type": "uint256"
        },
        {
          "indexed": false,
          "internalType": "uint256",
          "name": "goal",
          "type": "uint256"
        },
        {
          "indexed": false,
          "internalType": "uint256",
          "name": "donated",
          "type": "uint256"
        },
        {
          "indexed": false,
          "internalType": "string",
          "name": "desc",
          "type": "string"
        },
        {
          "indexed": false,
          "internalType": "address payable",
          "name": "owner",
          "type": "address"
        },
        {
          "indexed": false,
          "internalType": "enum CrowdFunding.FundingStatus",
          "name": "status",
          "type": "uint8"
        }
      ],
      "name": "FundDonated",
      "type": "event"
    },
    {
      "inputs": [
        {
          "internalType": "uint256",
          "name": "",
          "type": "uint256"
        },
        {
          "internalType": "uint256",
          "name": "",
          "type": "uint256"
        }
      ],
      "name": "fundDonations",
      "outputs": [
        {
          "internalType": "address",
          "name": "donor",
          "type": "address"
        },
        {
          "internalType": "uint256",
          "name": "amount",
          "type": "uint256"
        }
      ],
      "stateMutability": "view",
      "type": "function",
      "constant": true
    },
    {
      "inputs": [],
      "name": "fundsEnded",
      "outputs": [
        {
          "internalType": "uint256",
          "name": "",
          "type": "uint256"
        }
      ],
      "stateMutability": "view",
      "type": "function",
      "constant": true
    },
    {
      "inputs": [],
      "name": "fundsOngoing",
      "outputs": [
        {
          "internalType": "uint256",
          "name": "",
          "type": "uint256"
        }
      ],
      "stateMutability": "view",
      "type": "function",
      "constant": true
    },
    {
      "inputs": [
        {
          "internalType": "uint256",
          "name": "",
          "type": "uint256"
        }
      ],
      "name": "listOfFunds",
      "outputs": [
        {
          "internalType": "uint256",
          "name": "fundId",
          "type": "uint256"
        },
        {
          "internalType": "string",
          "name": "name",
          "type": "string"
        },
        {
          "internalType": "string",
          "name": "picName",
          "type": "string"
        },
        {
          "internalType": "uint256",
          "name": "goal",
          "type": "uint256"
        },
        {
          "internalType": "uint256",
          "name": "donated",
          "type": "uint256"
        },
        {
          "internalType": "string",
          "name": "desc",
          "type": "string"
        },
        {
          "internalType": "address payable",
          "name": "ownerId",
          "type": "address"
        },
        {
          "internalType": "enum CrowdFunding.FundingStatus",
          "name": "status",
          "type": "uint8"
        }
      ],
      "stateMutability": "view",
      "type": "function",
      "constant": true
    },
    {
      "inputs": [],
      "name": "owner",
      "outputs": [
        {
          "internalType": "address",
          "name": "",
          "type": "address"
        }
      ],
      "stateMutability": "view",
      "type": "function",
      "constant": true
    },
    {
      "inputs": [],
      "name": "setFundSold",
      "outputs": [],
      "stateMutability": "nonpayable",
      "type": "function"
    },
    {
      "inputs": [],
      "name": "getFundName",
      "outputs": [
        {
          "internalType": "string",
          "name": "",
          "type": "string"
        }
      ],
      "stateMutability": "view",
      "type": "function",
      "constant": true
    },
    {
      "inputs": [],
      "name": "getFundStatus",
      "outputs": [
        {
          "internalType": "enum CrowdFunding.FundingStatus",
          "name": "",
          "type": "uint8"
        }
      ],
      "stateMutability": "view",
      "type": "function",
      "constant": true
    },
    {
      "inputs": [
        {
          "internalType": "string",
          "name": "_name",
          "type": "string"
        },
        {
          "internalType": "string",
          "name": "_picName",
          "type": "string"
        },
        {
          "internalType": "uint256",
          "name": "_goal",
          "type": "uint256"
        },
        {
          "internalType": "uint256",
          "name": "_donated",
          "type": "uint256"
        },
        {
          "internalType": "string",
          "name": "_desc",
          "type": "string"
        }
      ],
      "name": "addFunds",
      "outputs": [],
      "stateMutability": "nonpayable",
      "type": "function"
    },
    {
      "inputs": [],
      "name": "getNoOfFunds",
      "outputs": [
        {
          "internalType": "uint256",
          "name": "",
          "type": "uint256"
        }
      ],
      "stateMutability": "view",
      "type": "function",
      "constant": true
    },
    {
      "inputs": [
        {
          "internalType": "uint256",
          "name": "_id",
          "type": "uint256"
        }
      ],
      "name": "donateFund",
      "outputs": [],
      "stateMutability": "payable",
      "type": "function",
      "payable": true
    },
    {
      "inputs": [
        {
          "internalType": "uint256",
          "name": "_id",
          "type": "uint256"
        }
      ],
      "name": "getDonationHistory",
      "outputs": [
        {
          "components": [
            {
              "internalType": "address",
              "name": "donor",
              "type": "address"
            },
            {
              "internalType": "uint256",
              "name": "amount",
              "type": "uint256"
            }
          ],
          "internalType": "struct CrowdFunding.Donation[]",
          "name": "",
          "type": "tuple[]"
        }
      ],
      "stateMutability": "view",
      "type": "function",
      "constant": true
    }
  ],
  "bytecode": "0x60806040523480156200001157600080fd5b5060006001819055506001600260006101000a81548160ff02191690836001811115620000435762000042620000d6565b5b02179055506040518060400160405280600c81526020017f43726f776446756e64696e670000000000000000000000000000000000000000815250600090816200008e91906200037f565b5033600260016101000a81548173ffffffffffffffffffffffffffffffffffffffff021916908373ffffffffffffffffffffffffffffffffffffffff16021790555062000466565b7f4e487b7100000000000000000000000000000000000000000000000000000000600052602160045260246000fd5b600081519050919050565b7f4e487b7100000000000000000000000000000000000000000000000000000000600052604160045260246000fd5b7f4e487b7100000000000000000000000000000000000000000000000000000000600052602260045260246000fd5b600060028204905060018216806200018757607f821691505b6020821081036200019d576200019c6200013f565b5b50919050565b60008190508160005260206000209050919050565b60006020601f8301049050919050565b600082821b905092915050565b600060088302620002077fffffffffffffffffffffffffffffffffffffffffffffffffffffffffffffffff82620001c8565b620002138683620001c8565b95508019841693508086168417925050509392505050565b6000819050919050565b6000819050919050565b6000620002606200025a62000254846200022b565b62000235565b6200022b565b9050919050565b6000819050919050565b6200027c836200023f565b620002946200028b8262000267565b848454620001d5565b825550505050565b600090565b620002ab6200029c565b620002b881848462000271565b505050565b5b81811015620002e057620002d4600082620002a1565b600181019050620002be565b5050565b601f8211156200032f57620002f981620001a3565b6200030484620001b8565b8101602085101562000314578190505b6200032c6200032385620001b8565b830182620002bd565b50505b505050565b600082821c905092915050565b6000620003546000198460080262000334565b1980831691505092915050565b60006200036f838362000341565b9150826002028217905092915050565b6200038a8262000105565b67ffffffffffffffff811115620003a657620003a562000110565b5b620003b282546200016e565b620003bf828285620002e4565b600060209050601f831160018114620003f75760008415620003e2578287015190505b620003ee858262000361565b8655506200045e565b601f1984166200040786620001a3565b60005b8281101562000431578489015182556001820191506020850194506020810190506200040a565b868310156200045157848901516200044d601f89168262000341565b8355505b6001600288020188555050505b505050505050565b6118b480620004766000396000f3fe6080604052600436106100a75760003560e01c80638da5cb5b116100645780638da5cb5b146101b05780638dc78688146101db578063932b811d14610206578063a87fe87e1461022f578063cd313ad91461025a578063dccd62f51461029e576100a7565b806307eac9bc146100ac5780630c914722146100d7578063221f1647146100f35780632869a6e61461011e5780632db536ef1461015b578063868bc02714610199575b600080fd5b3480156100b857600080fd5b506100c16102c9565b6040516100ce9190610ce0565b60405180910390f35b6100f160048036038101906100ec9190610d45565b6102e0565b005b3480156100ff57600080fd5b50610108610624565b6040516101159190610d81565b60405180910390f35b34801561012a57600080fd5b5061014560048036038101906101409190610d45565b61062e565b6040516101529190610eca565b60405180910390f35b34801561016757600080fd5b50610182600480360381019061017d9190610eec565b610745565b604051610190929190610f3b565b60405180910390f35b3480156101a557600080fd5b506101ae6107a6565b005b3480156101bc57600080fd5b506101c56107d3565b6040516101d29190610f64565b60405180910390f35b3480156101e757600080fd5b506101f06107f9565b6040516101fd9190610d81565b60405180910390f35b34801561021257600080fd5b5061022d600480360381019061022891906110c5565b6107ff565b005b34801561023b57600080fd5b506102446109a9565b6040516102519190611213565b60405180910390f35b34801561026657600080fd5b50610281600480360381019061027c9190610d45565b610a3b565b604051610295989796959493929190611256565b60405180910390f35b3480156102aa57600080fd5b506102b3610c48565b6040516102c09190610d81565b60405180910390f35b6000600260009054906101000a900460ff16905090565b600060056000838152602001908152602001600020905060008160060160009054906101000a900473ffffffffffffffffffffffffffffffffffffffff1690506000826000015411801561033a5750600154826000015411155b610379576040517f08c379a000000000000000000000000000000000000000000000000000000000815260040161037090611335565b60405180910390fd5b60018081111561038c5761038b610c69565b5b8260060160149054906101000a900460ff1660018111156103b0576103af610c69565b5b146103f0576040517f08c379a00000000000000000000000000000000000000000000000000000000081526004016103e7906113a1565b60405180910390fd5b3373ffffffffffffffffffffffffffffffffffffffff168173ffffffffffffffffffffffffffffffffffffffff160361045e576040517f08c379a00000000000000000000000000000000000000000000000000000000081526004016104559061140d565b60405180910390fd5b34826004016000828254610472919061145c565b925050819055506006600084815260200190815260200160002060405180604001604052803373ffffffffffffffffffffffffffffffffffffffff16815260200134815250908060018154018082558091505060019003906000526020600020906002020160009091909190915060008201518160000160006101000a81548173ffffffffffffffffffffffffffffffffffffffff021916908373ffffffffffffffffffffffffffffffffffffffff1602179055506020820151816001015550508073ffffffffffffffffffffffffffffffffffffffff166108fc349081150290604051600060405180830381858888f19350505050158015610579573d6000803e3d6000fd5b5081600301548260040154106105b75760008260060160146101000a81548160ff021916908360018111156105b1576105b0610c69565b5b02179055505b7fc1b48f390ed353529c0d7142a32f9ede6fc5885785a7da3a85586f457f0cb427826000015483600101348560030154866004015487600501878960060160149054906101000a900460ff16604051610617989796959493929190611589565b60405180910390a1505050565b6000600154905090565b6060600154821115610675576040517f08c379a000000000000000000000000000000000000000000000000000000000815260040161066c90611335565b60405180910390fd5b60066000838152602001908152602001600020805480602002602001604051908101604052809291908181526020016000905b8282101561073a57838290600052602060002090600202016040518060400160405290816000820160009054906101000a900473ffffffffffffffffffffffffffffffffffffffff1673ffffffffffffffffffffffffffffffffffffffff1673ffffffffffffffffffffffffffffffffffffffff168152602001600182015481525050815260200190600101906106a8565b505050509050919050565b6006602052816000526040600020818154811061076157600080fd5b9060005260206000209060020201600091509150508060000160009054906101000a900473ffffffffffffffffffffffffffffffffffffffff16908060010154905082565b6000600260006101000a81548160ff021916908360018111156107cc576107cb610c69565b5b0217905550565b600260019054906101000a900473ffffffffffffffffffffffffffffffffffffffff1681565b60045481565b610807610c4e565b60405180610100016040528060015481526020018681526020018581526020018481526020018381526020018281526020013373ffffffffffffffffffffffffffffffffffffffff16815260200160018081111561086857610867610c69565b5b81525060056000600154815260200190815260200160002060008201518160000155602082015181600101908161089f91906117ac565b5060408201518160020190816108b591906117ac565b50606082015181600301556080820151816004015560a08201518160050190816108df91906117ac565b5060c08201518160060160006101000a81548173ffffffffffffffffffffffffffffffffffffffff021916908373ffffffffffffffffffffffffffffffffffffffff16021790555060e08201518160060160146101000a81548160ff0219169083600181111561095257610951610c69565b5b02179055509050507f63535273494e6cfddf138de365792dae1e28008178b091e9b7a73b37d373a5ac600154868686868633600160405161099a989796959493929190611256565b60405180910390a15050505050565b6060600080546109b8906114bf565b80601f01602080910402602001604051908101604052809291908181526020018280546109e4906114bf565b8015610a315780601f10610a0657610100808354040283529160200191610a31565b820191906000526020600020905b815481529060010190602001808311610a1457829003601f168201915b5050505050905090565b6005602052806000526040600020600091509050806000015490806001018054610a64906114bf565b80601f0160208091040260200160405190810160405280929190818152602001828054610a90906114bf565b8015610add5780601f10610ab257610100808354040283529160200191610add565b820191906000526020600020905b815481529060010190602001808311610ac057829003601f168201915b505050505090806002018054610af2906114bf565b80601f0160208091040260200160405190810160405280929190818152602001828054610b1e906114bf565b8015610b6b5780601f10610b4057610100808354040283529160200191610b6b565b820191906000526020600020905b815481529060010190602001808311610b4e57829003601f168201915b505050505090806003015490806004015490806005018054610b8c906114bf565b80601f0160208091040260200160405190810160405280929190818152602001828054610bb8906114bf565b8015610c055780601f10610bda57610100808354040283529160200191610c05565b820191906000526020600020905b815481529060010190602001808311610be857829003601f168201915b5050505050908060060160009054906101000a900473ffffffffffffffffffffffffffffffffffffffff16908060060160149054906101000a900460ff16905088565b60035481565b6001806000828254610c60919061145c565b92505081905550565b7f4e487b7100000000000000000000000000000000000000000000000000000000600052602160045260246000fd5b60028110610ca957610ca8610c69565b5b50565b6000819050610cba82610c98565b919050565b6000610cca82610cac565b9050919050565b610cda81610cbf565b82525050565b6000602082019050610cf56000830184610cd1565b92915050565b6000604051905090565b600080fd5b600080fd5b6000819050919050565b610d2281610d0f565b8114610d2d57600080fd5b50565b600081359050610d3f81610d19565b92915050565b600060208284031215610d5b57610d5a610d05565b5b6000610d6984828501610d30565b91505092915050565b610d7b81610d0f565b82525050565b6000602082019050610d966000830184610d72565b92915050565b600081519050919050565b600082825260208201905092915050565b6000819050602082019050919050565b600073ffffffffffffffffffffffffffffffffffffffff82169050919050565b6000610df382610dc8565b9050919050565b610e0381610de8565b82525050565b610e1281610d0f565b82525050565b604082016000820151610e2e6000850182610dfa565b506020820151610e416020850182610e09565b50505050565b6000610e538383610e18565b60408301905092915050565b6000602082019050919050565b6000610e7782610d9c565b610e818185610da7565b9350610e8c83610db8565b8060005b83811015610ebd578151610ea48882610e47565b9750610eaf83610e5f565b925050600181019050610e90565b5085935050505092915050565b60006020820190508181036000830152610ee48184610e6c565b905092915050565b60008060408385031215610f0357610f02610d05565b5b6000610f1185828601610d30565b9250506020610f2285828601610d30565b9150509250929050565b610f3581610de8565b82525050565b6000604082019050610f506000830185610f2c565b610f5d6020830184610d72565b9392505050565b6000602082019050610f796000830184610f2c565b92915050565b600080fd5b600080fd5b6000601f19601f8301169050919050565b7f4e487b7100000000000000000000000000000000000000000000000000000000600052604160045260246000fd5b610fd282610f89565b810181811067ffffffffffffffff82111715610ff157610ff0610f9a565b5b80604052505050565b6000611004610cfb565b90506110108282610fc9565b919050565b600067ffffffffffffffff8211156110305761102f610f9a565b5b61103982610f89565b9050602081019050919050565b82818337600083830152505050565b600061106861106384611015565b610ffa565b90508281526020810184848401111561108457611083610f84565b5b61108f848285611046565b509392505050565b600082601f8301126110ac576110ab610f7f565b5b81356110bc848260208601611055565b91505092915050565b600080600080600060a086880312156110e1576110e0610d05565b5b600086013567ffffffffffffffff8111156110ff576110fe610d0a565b5b61110b88828901611097565b955050602086013567ffffffffffffffff81111561112c5761112b610d0a565b5b61113888828901611097565b945050604061114988828901610d30565b935050606061115a88828901610d30565b925050608086013567ffffffffffffffff81111561117b5761117a610d0a565b5b61118788828901611097565b9150509295509295909350565b600081519050919050565b600082825260208201905092915050565b60005b838110156111ce5780820151818401526020810190506111b3565b60008484015250505050565b60006111e582611194565b6111ef818561119f565b93506111ff8185602086016111b0565b61120881610f89565b840191505092915050565b6000602082019050818103600083015261122d81846111da565b905092915050565b600061124082610dc8565b9050919050565b61125081611235565b82525050565b60006101008201905061126c600083018b610d72565b818103602083015261127e818a6111da565b9050818103604083015261129281896111da565b90506112a16060830188610d72565b6112ae6080830187610d72565b81810360a08301526112c081866111da565b90506112cf60c0830185611247565b6112dc60e0830184610cd1565b9998505050505050505050565b7f496e76616c69642066756e642049440000000000000000000000000000000000600082015250565b600061131f600f8361119f565b915061132a826112e9565b602082019050919050565b6000602082019050818103600083015261134e81611312565b9050919050565b7f43616d706169676e2068617320656e6465640000000000000000000000000000600082015250565b600061138b60128361119f565b915061139682611355565b602082019050919050565b600060208201905081810360008301526113ba8161137e565b9050919050565b7f53656c6c65722063616e6e6f7420646f6e61746520746f206f776e2066756e64600082015250565b60006113f760208361119f565b9150611402826113c1565b602082019050919050565b60006020820190508181036000830152611426816113ea565b9050919050565b7f4e487b7100000000000000000000000000000000000000000000000000000000600052601160045260246000fd5b600061146782610d0f565b915061147283610d0f565b925082820190508082111561148a5761148961142d565b5b92915050565b7f4e487b7100000000000000000000000000000000000000000000000000000000600052602260045260246000fd5b600060028204905060018216806114d757607f821691505b6020821081036114ea576114e9611490565b5b50919050565b60008190508160005260206000209050919050565b60008154611512816114bf565b61151c818661119f565b94506001821660008114611537576001811461154d57611580565b60ff198316865281151560200286019350611580565b611556856114f0565b60005b8381101561157857815481890152600182019150602081019050611559565b808801955050505b50505092915050565b60006101008201905061159f600083018b610d72565b81810360208301526115b1818a611505565b90506115c06040830189610d72565b6115cd6060830188610d72565b6115da6080830187610d72565b81810360a08301526115ec8186611505565b90506115fb60c0830185611247565b61160860e0830184610cd1565b9998505050505050505050565b60006020601f8301049050919050565b600082821b905092915050565b6000600883026116627fffffffffffffffffffffffffffffffffffffffffffffffffffffffffffffffff82611625565b61166c8683611625565b95508019841693508086168417925050509392505050565b6000819050919050565b60006116a96116a461169f84610d0f565b611684565b610d0f565b9050919050565b6000819050919050565b6116c38361168e565b6116d76116cf826116b0565b848454611632565b825550505050565b600090565b6116ec6116df565b6116f78184846116ba565b505050565b5b8181101561171b576117106000826116e4565b6001810190506116fd565b5050565b601f82111561176057611731816114f0565b61173a84611615565b81016020851015611749578190505b61175d61175585611615565b8301826116fc565b50505b505050565b600082821c905092915050565b600061178360001984600802611765565b1980831691505092915050565b600061179c8383611772565b9150826002028217905092915050565b6117b582611194565b67ffffffffffffffff8111156117ce576117cd610f9a565b5b6117d882546114bf565b6117e382828561171f565b600060209050601f8311600181146118165760008415611804578287015190505b61180e8582611790565b865550611876565b601f198416611824866114f0565b60005b8281101561184c57848901518255600182019150602085019450602081019050611827565b868310156118695784890151611865601f891682611772565b8355505b6001600288020188555050505b50505050505056fea2646970667358221220018eb6de9dd288071c69bfd7f9d7df4a8a2360ec3a49227b2afe07af2a8489db64736f6c63430008120033",
  "immutableReferences": {},
  "source": "// SPDX-License-Identifier: MIT\r\npragma solidity ^0.8.18;\r\n\r\ncontract CrowdFunding {\r\n    enum FundingStatus {Ended, Ongoing}\r\n    \r\n    string webName;\r\n    uint fundsCount;\r\n    FundingStatus currentFundStatus;\r\n    address public owner;\r\n    uint public fundsEnded;\r\n    uint public fundsOngoing;\r\n\r\n    // Constructor code is only run when the contract is created\r\n    constructor() {\r\n        fundsCount = 0;\r\n        currentFundStatus = FundingStatus.Ongoing;\r\n        webName = \"CrowdFunding\";\r\n        owner = msg.sender;\r\n    }\r\n\r\n    // Function that sets the reading status to Sold.\r\n    function setFundSold() public {\r\n        currentFundStatus = FundingStatus.Ended;\r\n    }\r\n        \r\n    function getFundName() public view returns(string memory) {\r\n        return webName;\r\n    }\r\n\r\n    // Function to retrieve the current availability of the fund.\r\n    function getFundStatus() public view returns(FundingStatus) {\r\n        return currentFundStatus;\r\n    }\r\n\r\n    // Declaring a structure for donations\r\n    struct Donation {\r\n        address donor;\r\n        uint amount;\r\n    }\r\n\r\n    // Declaring a structure for fund details\r\n    struct FundDetails {\r\n        uint fundId;\r\n        string name;\r\n        string picName;\r\n        uint goal;\r\n        uint donated;\r\n        string desc;\r\n        address payable ownerId;\r\n        FundingStatus status;\r\n    }\r\n\r\n\r\n    mapping(uint => FundDetails) public listOfFunds;\r\n    mapping(uint => Donation[]) public fundDonations;\r\n\r\n    // Event to add a fund\r\n    event FundCreated(\r\n        uint fundId,\r\n        string name,\r\n        string picName,\r\n        uint goal,\r\n        uint donated,\r\n        string desc,\r\n        address payable ownerId,\r\n        FundingStatus status\r\n    );\r\n\r\n    // Function to add a fund with the relevant parameters\r\n    function addFunds(\r\n        string memory _name,\r\n        string memory _picName,\r\n        uint _goal,\r\n        uint _donated,\r\n        string memory _desc\r\n    ) public {\r\n        incrementFundCount();\r\n        listOfFunds[fundsCount] = FundDetails(\r\n            fundsCount,\r\n            _name,\r\n            _picName,\r\n            _goal,\r\n            _donated,\r\n            _desc,\r\n            payable(msg.sender),\r\n            FundingStatus.Ongoing\r\n        );\r\n        // Emit the event to add a fund\r\n        emit FundCreated(fundsCount, _name, _picName, _goal, _donated, _desc, payable(msg.sender), FundingStatus.Ongoing);\r\n    }\r\n\r\n    function incrementFundCount() internal {\r\n        fundsCount += 1;\r\n    }\r\n\r\n    // Function to get the number of funds\r\n    function getNoOfFunds() public view returns (uint) {\r\n        return fundsCount;\r\n    }\r\n\r\n    // Event to donate to a fund\r\n    event FundDonated(\r\n        uint id,\r\n        string name,\r\n        uint amount,\r\n        uint goal,\r\n        uint donated,\r\n        string desc,\r\n        address payable owner,\r\n        FundingStatus status\r\n    );\r\n\r\n    // Function to donate to a fund\r\n    function donateFund(uint _id) public payable {\r\n        FundDetails storage fundsInfo = listOfFunds[_id];\r\n        address payable seller = fundsInfo.ownerId;\r\n        require(fundsInfo.fundId > 0 && fundsInfo.fundId <= fundsCount, \"Invalid fund ID\");\r\n        require(fundsInfo.status == FundingStatus.Ongoing, \"Campaign has ended\");\r\n        require(seller != msg.sender, \"Seller cannot donate to own fund\");\r\n        fundsInfo.donated += msg.value;\r\n        fundDonations[_id].push(Donation({\r\n            donor: msg.sender,\r\n            amount: msg.value\r\n        }));\r\n        payable(seller).transfer(msg.value);\r\n        if (fundsInfo.donated >= fundsInfo.goal) {\r\n            fundsInfo.status = FundingStatus.Ended;\r\n        }\r\n        emit FundDonated(fundsInfo.fundId, fundsInfo.name, msg.value, fundsInfo.goal, fundsInfo.donated, fundsInfo.desc, payable(seller), fundsInfo.status);\r\n    }\r\n\r\n    // Function to retrieve donation history for a specific fund\r\n    function getDonationHistory(uint _id) public view returns (Donation[] memory) {\r\n        require(_id <= fundsCount, \"Invalid fund ID\");\r\n        return fundDonations[_id];\r\n    }\r\n}\r\n",
  "sourcePath": "C:\\FYP Project\\2024FYP\\CrowdFunding\\contracts\\CrowdFunding.sol",
  "compiler": {
    "name": "solc",
    "version": "0.8.18+commit.87f61d96.Emscripten.clang"
  },
  "schemaVersion": "3.4.16",
  "updatedAt": "2024-07-27T15:48:44.852Z",
  "networkType": "ethereum",
  "devdoc": {
    "kind": "dev",
    "methods": {},
    "version": 1
  },
  "userdoc": {
    "kind": "user",
    "methods": {},
    "version": 1
  }
}