{
  "contractName": "CrowdFunding",
  "abi": [
    {
      "inputs": [],
      "stateMutability": "nonpayable",
      "type": "constructor"
    },
    {
      "anonymous": false,
      "inputs": [
        {
          "indexed": false,
          "internalType": "uint256",
          "name": "fundId",
          "type": "uint256"
        },
        {
          "indexed": false,
          "internalType": "string",
          "name": "name",
          "type": "string"
        },
        {
          "indexed": false,
          "internalType": "string",
          "name": "picName",
          "type": "string"
        },
        {
          "indexed": false,
          "internalType": "uint256",
          "name": "price",
          "type": "uint256"
        },
        {
          "indexed": false,
          "internalType": "address payable",
          "name": "ownerId",
          "type": "address"
        },
        {
          "indexed": false,
          "internalType": "enum CrowdFunding.FundingStatus",
          "name": "status",
          "type": "uint8"
        }
      ],
      "name": "FundCreated",
      "type": "event"
    },
    {
      "anonymous": false,
      "inputs": [
        {
          "indexed": false,
          "internalType": "uint256",
          "name": "id",
          "type": "uint256"
        },
        {
          "indexed": false,
          "internalType": "string",
          "name": "name",
          "type": "string"
        },
        {
          "indexed": false,
          "internalType": "uint256",
          "name": "price",
          "type": "uint256"
        },
        {
          "indexed": false,
          "internalType": "address payable",
          "name": "owner",
          "type": "address"
        },
        {
          "indexed": false,
          "internalType": "enum CrowdFunding.FundingStatus",
          "name": "status",
          "type": "uint8"
        }
      ],
      "name": "FundPurchased",
      "type": "event"
    },
    {
      "inputs": [],
      "name": "fundsEnded",
      "outputs": [
        {
          "internalType": "uint256",
          "name": "",
          "type": "uint256"
        }
      ],
      "stateMutability": "view",
      "type": "function",
      "constant": true
    },
    {
      "inputs": [],
      "name": "fundsOngoing",
      "outputs": [
        {
          "internalType": "uint256",
          "name": "",
          "type": "uint256"
        }
      ],
      "stateMutability": "view",
      "type": "function",
      "constant": true
    },
    {
      "inputs": [
        {
          "internalType": "uint256",
          "name": "",
          "type": "uint256"
        }
      ],
      "name": "listOfFunds",
      "outputs": [
        {
          "internalType": "uint256",
          "name": "fundId",
          "type": "uint256"
        },
        {
          "internalType": "string",
          "name": "name",
          "type": "string"
        },
        {
          "internalType": "string",
          "name": "picName",
          "type": "string"
        },
        {
          "internalType": "uint256",
          "name": "price",
          "type": "uint256"
        },
        {
          "internalType": "address payable",
          "name": "ownerId",
          "type": "address"
        },
        {
          "internalType": "enum CrowdFunding.FundingStatus",
          "name": "status",
          "type": "uint8"
        }
      ],
      "stateMutability": "view",
      "type": "function",
      "constant": true
    },
    {
      "inputs": [],
      "name": "owner",
      "outputs": [
        {
          "internalType": "address",
          "name": "",
          "type": "address"
        }
      ],
      "stateMutability": "view",
      "type": "function",
      "constant": true
    },
    {
      "inputs": [],
      "name": "setFundSold",
      "outputs": [],
      "stateMutability": "nonpayable",
      "type": "function"
    },
    {
      "inputs": [],
      "name": "getFundName",
      "outputs": [
        {
          "internalType": "string",
          "name": "",
          "type": "string"
        }
      ],
      "stateMutability": "view",
      "type": "function",
      "constant": true
    },
    {
      "inputs": [],
      "name": "getFundStatus",
      "outputs": [
        {
          "internalType": "enum CrowdFunding.FundingStatus",
          "name": "",
          "type": "uint8"
        }
      ],
      "stateMutability": "view",
      "type": "function",
      "constant": true
    },
    {
      "inputs": [
        {
          "internalType": "string",
          "name": "_name",
          "type": "string"
        },
        {
          "internalType": "string",
          "name": "_picName",
          "type": "string"
        },
        {
          "internalType": "uint256",
          "name": "_price",
          "type": "uint256"
        }
      ],
      "name": "addFunds",
      "outputs": [],
      "stateMutability": "nonpayable",
      "type": "function"
    },
    {
      "inputs": [],
      "name": "getNoOfFunds",
      "outputs": [
        {
          "internalType": "uint256",
          "name": "",
          "type": "uint256"
        }
      ],
      "stateMutability": "view",
      "type": "function",
      "constant": true
    },
    {
      "inputs": [
        {
          "internalType": "uint256",
          "name": "_id",
          "type": "uint256"
        }
      ],
      "name": "purchaseFund",
      "outputs": [],
      "stateMutability": "payable",
      "type": "function",
      "payable": true
    }
  ],
  "bytecode": "0x60806040523480156200001157600080fd5b5060006001819055506001600260006101000a81548160ff02191690836001811115620000435762000042620000d6565b5b02179055506040518060400160405280600c81526020017f43726f776446756e64696e670000000000000000000000000000000000000000815250600090816200008e91906200037f565b5033600260016101000a81548173ffffffffffffffffffffffffffffffffffffffff021916908373ffffffffffffffffffffffffffffffffffffffff16021790555062000466565b7f4e487b7100000000000000000000000000000000000000000000000000000000600052602160045260246000fd5b600081519050919050565b7f4e487b7100000000000000000000000000000000000000000000000000000000600052604160045260246000fd5b7f4e487b7100000000000000000000000000000000000000000000000000000000600052602260045260246000fd5b600060028204905060018216806200018757607f821691505b6020821081036200019d576200019c6200013f565b5b50919050565b60008190508160005260206000209050919050565b60006020601f8301049050919050565b600082821b905092915050565b600060088302620002077fffffffffffffffffffffffffffffffffffffffffffffffffffffffffffffffff82620001c8565b620002138683620001c8565b95508019841693508086168417925050509392505050565b6000819050919050565b6000819050919050565b6000620002606200025a62000254846200022b565b62000235565b6200022b565b9050919050565b6000819050919050565b6200027c836200023f565b620002946200028b8262000267565b848454620001d5565b825550505050565b600090565b620002ab6200029c565b620002b881848462000271565b505050565b5b81811015620002e057620002d4600082620002a1565b600181019050620002be565b5050565b601f8211156200032f57620002f981620001a3565b6200030484620001b8565b8101602085101562000314578190505b6200032c6200032385620001b8565b830182620002bd565b50505b505050565b600082821c905092915050565b6000620003546000198460080262000334565b1980831691505092915050565b60006200036f838362000341565b9150826002028217905092915050565b6200038a8262000105565b67ffffffffffffffff811115620003a657620003a562000110565b5b620003b282546200016e565b620003bf828285620002e4565b600060209050601f831160018114620003f75760008415620003e2578287015190505b620003ee858262000361565b8655506200045e565b601f1984166200040786620001a3565b60005b8281101562000431578489015182556001820191506020850194506020810190506200040a565b868310156200045157848901516200044d601f89168262000341565b8355505b6001600288020188555050505b505050505050565b61131680620004766000396000f3fe6080604052600436106100915760003560e01c80638dc78688116100595780638dc786881461014a578063a87fe87e14610175578063b9efea78146101a0578063cd313ad9146101c9578063dccd62f51461020b57610091565b806307eac9bc14610096578063221f1647146100c1578063479777c4146100ec578063868bc027146101085780638da5cb5b1461011f575b600080fd5b3480156100a257600080fd5b506100ab610236565b6040516100b89190610b2b565b60405180910390f35b3480156100cd57600080fd5b506100d661024d565b6040516100e39190610b5f565b60405180910390f35b61010660048036038101906101019190610bba565b610257565b005b34801561011457600080fd5b5061011d6106b8565b005b34801561012b57600080fd5b506101346106e5565b6040516101419190610c28565b60405180910390f35b34801561015657600080fd5b5061015f61070b565b60405161016c9190610b5f565b60405180910390f35b34801561018157600080fd5b5061018a610711565b6040516101979190610cd3565b60405180910390f35b3480156101ac57600080fd5b506101c760048036038101906101c29190610e2a565b6107a3565b005b3480156101d557600080fd5b506101f060048036038101906101eb9190610bba565b61091a565b60405161020296959493929190610ed6565b60405180910390f35b34801561021757600080fd5b50610220610a93565b60405161022d9190610b5f565b60405180910390f35b6000600260009054906101000a900460ff16905090565b6000600154905090565b6000600560008381526020019081526020016000206040518060c00160405290816000820154815260200160018201805461029190610f74565b80601f01602080910402602001604051908101604052809291908181526020018280546102bd90610f74565b801561030a5780601f106102df5761010080835404028352916020019161030a565b820191906000526020600020905b8154815290600101906020018083116102ed57829003601f168201915b5050505050815260200160028201805461032390610f74565b80601f016020809104026020016040519081016040528092919081815260200182805461034f90610f74565b801561039c5780601f106103715761010080835404028352916020019161039c565b820191906000526020600020905b81548152906001019060200180831161037f57829003601f168201915b50505050508152602001600382015481526020016004820160009054906101000a900473ffffffffffffffffffffffffffffffffffffffff1673ffffffffffffffffffffffffffffffffffffffff1673ffffffffffffffffffffffffffffffffffffffff1681526020016004820160149054906101000a900460ff16600181111561042a57610429610ab4565b5b600181111561043c5761043b610ab4565b5b815250509050600081608001519050600082600001511180156104655750600154826000015111155b61046e57600080fd5b816060015134101561047f57600080fd5b60018081111561049257610491610ab4565b5b8260a0015160018111156104a9576104a8610ab4565b5b146104b357600080fd5b3373ffffffffffffffffffffffffffffffffffffffff168173ffffffffffffffffffffffffffffffffffffffff16036104eb57600080fd5b33826080019073ffffffffffffffffffffffffffffffffffffffff16908173ffffffffffffffffffffffffffffffffffffffff168152505060008260a00190600181111561053c5761053b610ab4565b5b908160018111156105505761054f610ab4565b5b8152505081600560008581526020019081526020016000206000820151816000015560208201518160010190816105879190611151565b50604082015181600201908161059d9190611151565b506060820151816003015560808201518160040160006101000a81548173ffffffffffffffffffffffffffffffffffffffff021916908373ffffffffffffffffffffffffffffffffffffffff16021790555060a08201518160040160146101000a81548160ff0219169083600181111561061a57610619610ab4565b5b02179055509050508073ffffffffffffffffffffffffffffffffffffffff166108fc349081150290604051600060405180830381858888f19350505050158015610668573d6000803e3d6000fd5b507fc5d2fbde537062a79b21cd06444323ec9d9fdc18d5ce13e7f1b2ce0d4ad4b637600154836020015184606001513360006040516106ab959493929190611223565b60405180910390a1505050565b6000600260006101000a81548160ff021916908360018111156106de576106dd610ab4565b5b0217905550565b600260019054906101000a900473ffffffffffffffffffffffffffffffffffffffff1681565b60045481565b60606000805461072090610f74565b80601f016020809104026020016040519081016040528092919081815260200182805461074c90610f74565b80156107995780601f1061076e57610100808354040283529160200191610799565b820191906000526020600020905b81548152906001019060200180831161077c57829003601f168201915b5050505050905090565b6107ab610a99565b6040518060c0016040528060015481526020018481526020018381526020018281526020013373ffffffffffffffffffffffffffffffffffffffff1681526020016001808111156107ff576107fe610ab4565b5b8152506005600060015481526020019081526020016000206000820151816000015560208201518160010190816108369190611151565b50604082015181600201908161084c9190611151565b506060820151816003015560808201518160040160006101000a81548173ffffffffffffffffffffffffffffffffffffffff021916908373ffffffffffffffffffffffffffffffffffffffff16021790555060a08201518160040160146101000a81548160ff021916908360018111156108c9576108c8610ab4565b5b02179055509050507fb3d51ff4822967af057ddcb52560a2ebbeb60d0ea71064eb91fed45cc31da61860015484848433600160405161090d96959493929190610ed6565b60405180910390a1505050565b600560205280600052604060002060009150905080600001549080600101805461094390610f74565b80601f016020809104026020016040519081016040528092919081815260200182805461096f90610f74565b80156109bc5780601f10610991576101008083540402835291602001916109bc565b820191906000526020600020905b81548152906001019060200180831161099f57829003601f168201915b5050505050908060020180546109d190610f74565b80601f01602080910402602001604051908101604052809291908181526020018280546109fd90610f74565b8015610a4a5780601f10610a1f57610100808354040283529160200191610a4a565b820191906000526020600020905b815481529060010190602001808311610a2d57829003601f168201915b5050505050908060030154908060040160009054906101000a900473ffffffffffffffffffffffffffffffffffffffff16908060040160149054906101000a900460ff16905086565b60035481565b6001806000828254610aab91906112ac565b92505081905550565b7f4e487b7100000000000000000000000000000000000000000000000000000000600052602160045260246000fd5b60028110610af457610af3610ab4565b5b50565b6000819050610b0582610ae3565b919050565b6000610b1582610af7565b9050919050565b610b2581610b0a565b82525050565b6000602082019050610b406000830184610b1c565b92915050565b6000819050919050565b610b5981610b46565b82525050565b6000602082019050610b746000830184610b50565b92915050565b6000604051905090565b600080fd5b600080fd5b610b9781610b46565b8114610ba257600080fd5b50565b600081359050610bb481610b8e565b92915050565b600060208284031215610bd057610bcf610b84565b5b6000610bde84828501610ba5565b91505092915050565b600073ffffffffffffffffffffffffffffffffffffffff82169050919050565b6000610c1282610be7565b9050919050565b610c2281610c07565b82525050565b6000602082019050610c3d6000830184610c19565b92915050565b600081519050919050565b600082825260208201905092915050565b60005b83811015610c7d578082015181840152602081019050610c62565b60008484015250505050565b6000601f19601f8301169050919050565b6000610ca582610c43565b610caf8185610c4e565b9350610cbf818560208601610c5f565b610cc881610c89565b840191505092915050565b60006020820190508181036000830152610ced8184610c9a565b905092915050565b600080fd5b600080fd5b7f4e487b7100000000000000000000000000000000000000000000000000000000600052604160045260246000fd5b610d3782610c89565b810181811067ffffffffffffffff82111715610d5657610d55610cff565b5b80604052505050565b6000610d69610b7a565b9050610d758282610d2e565b919050565b600067ffffffffffffffff821115610d9557610d94610cff565b5b610d9e82610c89565b9050602081019050919050565b82818337600083830152505050565b6000610dcd610dc884610d7a565b610d5f565b905082815260208101848484011115610de957610de8610cfa565b5b610df4848285610dab565b509392505050565b600082601f830112610e1157610e10610cf5565b5b8135610e21848260208601610dba565b91505092915050565b600080600060608486031215610e4357610e42610b84565b5b600084013567ffffffffffffffff811115610e6157610e60610b89565b5b610e6d86828701610dfc565b935050602084013567ffffffffffffffff811115610e8e57610e8d610b89565b5b610e9a86828701610dfc565b9250506040610eab86828701610ba5565b9150509250925092565b6000610ec082610be7565b9050919050565b610ed081610eb5565b82525050565b600060c082019050610eeb6000830189610b50565b8181036020830152610efd8188610c9a565b90508181036040830152610f118187610c9a565b9050610f206060830186610b50565b610f2d6080830185610ec7565b610f3a60a0830184610b1c565b979650505050505050565b7f4e487b7100000000000000000000000000000000000000000000000000000000600052602260045260246000fd5b60006002820490506001821680610f8c57607f821691505b602082108103610f9f57610f9e610f45565b5b50919050565b60008190508160005260206000209050919050565b60006020601f8301049050919050565b600082821b905092915050565b6000600883026110077fffffffffffffffffffffffffffffffffffffffffffffffffffffffffffffffff82610fca565b6110118683610fca565b95508019841693508086168417925050509392505050565b6000819050919050565b600061104e61104961104484610b46565b611029565b610b46565b9050919050565b6000819050919050565b61106883611033565b61107c61107482611055565b848454610fd7565b825550505050565b600090565b611091611084565b61109c81848461105f565b505050565b5b818110156110c0576110b5600082611089565b6001810190506110a2565b5050565b601f821115611105576110d681610fa5565b6110df84610fba565b810160208510156110ee578190505b6111026110fa85610fba565b8301826110a1565b50505b505050565b600082821c905092915050565b60006111286000198460080261110a565b1980831691505092915050565b60006111418383611117565b9150826002028217905092915050565b61115a82610c43565b67ffffffffffffffff81111561117357611172610cff565b5b61117d8254610f74565b6111888282856110c4565b600060209050601f8311600181146111bb57600084156111a9578287015190505b6111b38582611135565b86555061121b565b601f1984166111c986610fa5565b60005b828110156111f1578489015182556001820191506020850194506020810190506111cc565b8683101561120e578489015161120a601f891682611117565b8355505b6001600288020188555050505b505050505050565b600060a0820190506112386000830188610b50565b818103602083015261124a8187610c9a565b90506112596040830186610b50565b6112666060830185610ec7565b6112736080830184610b1c565b9695505050505050565b7f4e487b7100000000000000000000000000000000000000000000000000000000600052601160045260246000fd5b60006112b782610b46565b91506112c283610b46565b92508282019050808211156112da576112d961127d565b5b9291505056fea264697066735822122013308c2949cc9ffcaa4bbec8c82869f4ff63e2fc9a571585ffafb0ad3935b43c64736f6c63430008120033",
  "immutableReferences": {},
  "source": "// SPDX-License-Identifier: MIT\r\npragma solidity ^0.8.18;\r\n\r\ncontract CrowdFunding {\r\n    enum FundingStatus {Ended, Ongoing}\r\n    \r\n    string webName;\r\n    uint fundsCount;\r\n    FundingStatus currentFundStatus;\r\n    address public owner;\r\n    uint public fundsEnded;\r\n    uint public fundsOngoing;\r\n\r\n    // Constructor code is only run when the contract is created\r\n    constructor() {\r\n        fundsCount=0;\r\n        currentFundStatus = FundingStatus.Ongoing;\r\n        webName = \"CrowdFunding\";\r\n        owner = msg.sender;\r\n    }\r\n\r\n    //function that sets the reading status to Sold.  \r\n    function setFundSold() public {\r\n        currentFundStatus = FundingStatus.Ended;\r\n    }\r\n        \r\n    function getFundName() public view returns(string memory){\r\n        return webName;\r\n    }\r\n\r\n    //a function to retrieve the current availability of the fund.\r\n    function getFundStatus() public view returns(FundingStatus) {\r\n        return currentFundStatus;\r\n    }\r\n    // Declaring a structure fundDetails\r\n    struct FundDetails {\r\n        uint fundId;\r\n        string name;\r\n        string picName;\r\n        uint price;\r\n        address payable ownerId;\r\n        FundingStatus status;\r\n   }\r\n\r\n    // Declaring a structure ownerDetails\r\n   struct  ownerDetails {\r\n        address ownerId;\r\n        string firstName;\r\n        string lastName;\r\n        string mobileNo;\r\n        string email;\r\n    }    \r\n\r\n    //FundDetails[] public listOfFunds;\r\n    mapping (uint => FundDetails) public listOfFunds;\r\n\r\n    //create the event to add Fund\r\n    event FundCreated(\r\n        uint fundId,\r\n        string name,\r\n        string picName,\r\n        uint price,\r\n        address payable ownerId,\r\n        FundingStatus status\r\n    );\r\n\r\n    //Write a function addFund with the relevant function parameters\r\n    function addFunds( string memory _name, string memory _picName,\r\n        uint _price) public {\r\n        incrementFundCount();\r\n        listOfFunds[fundsCount] = FundDetails(fundsCount, _name, _picName, _price, payable(msg.sender), FundingStatus.Ongoing);\r\n        //emit the event to addFund \r\n        emit FundCreated(fundsCount, _name, _picName, _price, payable(msg.sender), FundingStatus.Ongoing);\r\n    }\r\n\r\n    function incrementFundCount() internal {\r\n        fundsCount += 1;\r\n    }\r\n    //Write a function getNoOfFunds to obtain the fundsCount\r\n    function getNoOfFunds() public view returns (uint) {\r\n        return fundsCount;\r\n    }\r\n\r\n    //create the event to purchase the Fund\r\n    event FundPurchased(\r\n        uint id,\r\n        string name,\r\n        uint price,\r\n        address payable owner,\r\n        FundingStatus status\r\n    );\r\n\r\n    //add a function to purchase fund with the fund id\r\n    function purchaseFund(uint _id) public payable {\r\n        // Fetch the product\r\n        FundDetails memory fundsInfo = listOfFunds[_id];\r\n        // Fetch the owner\r\n        address payable seller = fundsInfo.ownerId;\r\n        // Make sure the product has a valid id\r\n        require(fundsInfo.fundId > 0 && fundsInfo.fundId <= fundsCount);\r\n        // Require that there is enough Ether in the transaction\r\n        require(msg.value >= fundsInfo.price);\r\n        // Require that the product has not been purchased already\r\n        require(fundsInfo.status == FundingStatus.Ongoing);\r\n        // Require that the buyer is not the seller\r\n        require(seller != msg.sender);\r\n        // Transfer ownership to the buyer\r\n        fundsInfo.ownerId = payable(msg.sender);\r\n        // Mark as purchased\r\n        fundsInfo.status = FundingStatus.Ended;\r\n        // Update the product\r\n        listOfFunds[_id] = fundsInfo;\r\n        // Pay the seller by sending them Ether\r\n        payable(seller).transfer(msg.value);\r\n        // Trigger an event\r\n        emit FundPurchased(fundsCount, fundsInfo.name, fundsInfo.price, payable(msg.sender), FundingStatus.Ended);\r\n    }\r\n\r\n}\r\n",
  "sourcePath": "C:\\Users\\22014463\\Desktop\\FYP\\CrowdFunding\\contracts\\CrowdFunding.sol",
  "compiler": {
    "name": "solc",
    "version": "0.8.18+commit.87f61d96.Emscripten.clang"
  },
  "schemaVersion": "3.4.16",
  "updatedAt": "2024-05-31T05:53:21.777Z",
  "networkType": "ethereum",
  "devdoc": {
    "kind": "dev",
    "methods": {},
    "version": 1
  },
  "userdoc": {
    "kind": "user",
    "methods": {},
    "version": 1
  }
}