{
  "contractName": "CrowdFunding",
  "abi": [
    {
      "inputs": [],
      "stateMutability": "nonpayable",
      "type": "constructor"
    },
    {
      "anonymous": false,
      "inputs": [
        {
          "indexed": false,
          "internalType": "uint256",
          "name": "fundId",
          "type": "uint256"
        },
        {
          "indexed": false,
          "internalType": "string",
          "name": "name",
          "type": "string"
        },
        {
          "indexed": false,
          "internalType": "string",
          "name": "picName",
          "type": "string"
        },
        {
          "indexed": false,
          "internalType": "uint256",
          "name": "price",
          "type": "uint256"
        },
        {
          "indexed": false,
          "internalType": "uint256",
          "name": "goal",
          "type": "uint256"
        },
        {
          "indexed": false,
          "internalType": "uint256",
          "name": "donated",
          "type": "uint256"
        },
        {
          "indexed": false,
          "internalType": "string",
          "name": "desc",
          "type": "string"
        },
        {
          "indexed": false,
          "internalType": "address payable",
          "name": "ownerId",
          "type": "address"
        },
        {
          "indexed": false,
          "internalType": "enum CrowdFunding.FundingStatus",
          "name": "status",
          "type": "uint8"
        }
      ],
      "name": "FundCreated",
      "type": "event"
    },
    {
      "anonymous": false,
      "inputs": [
        {
          "indexed": false,
          "internalType": "uint256",
          "name": "id",
          "type": "uint256"
        },
        {
          "indexed": false,
          "internalType": "string",
          "name": "name",
          "type": "string"
        },
        {
          "indexed": false,
          "internalType": "uint256",
          "name": "price",
          "type": "uint256"
        },
        {
          "indexed": false,
          "internalType": "uint256",
          "name": "goal",
          "type": "uint256"
        },
        {
          "indexed": false,
          "internalType": "uint256",
          "name": "donated",
          "type": "uint256"
        },
        {
          "indexed": false,
          "internalType": "string",
          "name": "desc",
          "type": "string"
        },
        {
          "indexed": false,
          "internalType": "address payable",
          "name": "owner",
          "type": "address"
        },
        {
          "indexed": false,
          "internalType": "enum CrowdFunding.FundingStatus",
          "name": "status",
          "type": "uint8"
        }
      ],
      "name": "FundPurchased",
      "type": "event"
    },
    {
      "inputs": [],
      "name": "fundsEnded",
      "outputs": [
        {
          "internalType": "uint256",
          "name": "",
          "type": "uint256"
        }
      ],
      "stateMutability": "view",
      "type": "function",
      "constant": true
    },
    {
      "inputs": [],
      "name": "fundsOngoing",
      "outputs": [
        {
          "internalType": "uint256",
          "name": "",
          "type": "uint256"
        }
      ],
      "stateMutability": "view",
      "type": "function",
      "constant": true
    },
    {
      "inputs": [
        {
          "internalType": "uint256",
          "name": "",
          "type": "uint256"
        }
      ],
      "name": "listOfFunds",
      "outputs": [
        {
          "internalType": "uint256",
          "name": "fundId",
          "type": "uint256"
        },
        {
          "internalType": "string",
          "name": "name",
          "type": "string"
        },
        {
          "internalType": "string",
          "name": "picName",
          "type": "string"
        },
        {
          "internalType": "uint256",
          "name": "price",
          "type": "uint256"
        },
        {
          "internalType": "uint256",
          "name": "goal",
          "type": "uint256"
        },
        {
          "internalType": "uint256",
          "name": "donated",
          "type": "uint256"
        },
        {
          "internalType": "string",
          "name": "desc",
          "type": "string"
        },
        {
          "internalType": "address payable",
          "name": "ownerId",
          "type": "address"
        },
        {
          "internalType": "enum CrowdFunding.FundingStatus",
          "name": "status",
          "type": "uint8"
        }
      ],
      "stateMutability": "view",
      "type": "function",
      "constant": true
    },
    {
      "inputs": [],
      "name": "owner",
      "outputs": [
        {
          "internalType": "address",
          "name": "",
          "type": "address"
        }
      ],
      "stateMutability": "view",
      "type": "function",
      "constant": true
    },
    {
      "inputs": [],
      "name": "setFundSold",
      "outputs": [],
      "stateMutability": "nonpayable",
      "type": "function"
    },
    {
      "inputs": [],
      "name": "getFundName",
      "outputs": [
        {
          "internalType": "string",
          "name": "",
          "type": "string"
        }
      ],
      "stateMutability": "view",
      "type": "function",
      "constant": true
    },
    {
      "inputs": [],
      "name": "getFundStatus",
      "outputs": [
        {
          "internalType": "enum CrowdFunding.FundingStatus",
          "name": "",
          "type": "uint8"
        }
      ],
      "stateMutability": "view",
      "type": "function",
      "constant": true
    },
    {
      "inputs": [
        {
          "internalType": "string",
          "name": "_name",
          "type": "string"
        },
        {
          "internalType": "string",
          "name": "_picName",
          "type": "string"
        },
        {
          "internalType": "uint256",
          "name": "_price",
          "type": "uint256"
        },
        {
          "internalType": "uint256",
          "name": "_goal",
          "type": "uint256"
        },
        {
          "internalType": "uint256",
          "name": "_donated",
          "type": "uint256"
        },
        {
          "internalType": "string",
          "name": "_desc",
          "type": "string"
        }
      ],
      "name": "addFunds",
      "outputs": [],
      "stateMutability": "nonpayable",
      "type": "function"
    },
    {
      "inputs": [],
      "name": "getNoOfFunds",
      "outputs": [
        {
          "internalType": "uint256",
          "name": "",
          "type": "uint256"
        }
      ],
      "stateMutability": "view",
      "type": "function",
      "constant": true
    },
    {
      "inputs": [
        {
          "internalType": "uint256",
          "name": "_id",
          "type": "uint256"
        }
      ],
      "name": "purchaseFund",
      "outputs": [],
      "stateMutability": "payable",
      "type": "function",
      "payable": true
    }
  ],
  "bytecode": "0x60806040523480156200001157600080fd5b5060006001819055506001600260006101000a81548160ff02191690836001811115620000435762000042620000d6565b5b02179055506040518060400160405280600c81526020017f43726f776446756e64696e670000000000000000000000000000000000000000815250600090816200008e91906200037f565b5033600260016101000a81548173ffffffffffffffffffffffffffffffffffffffff021916908373ffffffffffffffffffffffffffffffffffffffff16021790555062000466565b7f4e487b7100000000000000000000000000000000000000000000000000000000600052602160045260246000fd5b600081519050919050565b7f4e487b7100000000000000000000000000000000000000000000000000000000600052604160045260246000fd5b7f4e487b7100000000000000000000000000000000000000000000000000000000600052602260045260246000fd5b600060028204905060018216806200018757607f821691505b6020821081036200019d576200019c6200013f565b5b50919050565b60008190508160005260206000209050919050565b60006020601f8301049050919050565b600082821b905092915050565b600060088302620002077fffffffffffffffffffffffffffffffffffffffffffffffffffffffffffffffff82620001c8565b620002138683620001c8565b95508019841693508086168417925050509392505050565b6000819050919050565b6000819050919050565b6000620002606200025a62000254846200022b565b62000235565b6200022b565b9050919050565b6000819050919050565b6200027c836200023f565b620002946200028b8262000267565b848454620001d5565b825550505050565b600090565b620002ab6200029c565b620002b881848462000271565b505050565b5b81811015620002e057620002d4600082620002a1565b600181019050620002be565b5050565b601f8211156200032f57620002f981620001a3565b6200030484620001b8565b8101602085101562000314578190505b6200032c6200032385620001b8565b830182620002bd565b50505b505050565b600082821c905092915050565b6000620003546000198460080262000334565b1980831691505092915050565b60006200036f838362000341565b9150826002028217905092915050565b6200038a8262000105565b67ffffffffffffffff811115620003a657620003a562000110565b5b620003b282546200016e565b620003bf828285620002e4565b600060209050601f831160018114620003f75760008415620003e2578287015190505b620003ee858262000361565b8655506200045e565b601f1984166200040786620001a3565b60005b8281101562000431578489015182556001820191506020850194506020810190506200040a565b868310156200045157848901516200044d601f89168262000341565b8355505b6001600288020188555050505b505050505050565b6115bb80620004766000396000f3fe6080604052600436106100915760003560e01c80638da5cb5b116100595780638da5cb5b146101485780638dc7868814610173578063a87fe87e1461019e578063cd313ad9146101c9578063dccd62f51461020e57610091565b806307eac9bc14610096578063221f1647146100c1578063479777c4146100ec57806386403e5814610108578063868bc02714610131575b600080fd5b3480156100a257600080fd5b506100ab610239565b6040516100b89190610d15565b60405180910390f35b3480156100cd57600080fd5b506100d6610250565b6040516100e39190610d49565b60405180910390f35b61010660048036038101906101019190610da4565b61025a565b005b34801561011457600080fd5b5061012f600480360381019061012a9190610f17565b6107c1565b005b34801561013d57600080fd5b5061014661097f565b005b34801561015457600080fd5b5061015d6109ac565b60405161016a9190611039565b60405180910390f35b34801561017f57600080fd5b506101886109d2565b6040516101959190610d49565b60405180910390f35b3480156101aa57600080fd5b506101b36109d8565b6040516101c091906110d3565b60405180910390f35b3480156101d557600080fd5b506101f060048036038101906101eb9190610da4565b610a6a565b60405161020599989796959493929190611116565b60405180910390f35b34801561021a57600080fd5b50610223610c7d565b6040516102309190610d49565b60405180910390f35b6000600260009054906101000a900460ff16905090565b6000600154905090565b6000600560008381526020019081526020016000206040518061012001604052908160008201548152602001600182018054610295906111e7565b80601f01602080910402602001604051908101604052809291908181526020018280546102c1906111e7565b801561030e5780601f106102e35761010080835404028352916020019161030e565b820191906000526020600020905b8154815290600101906020018083116102f157829003601f168201915b50505050508152602001600282018054610327906111e7565b80601f0160208091040260200160405190810160405280929190818152602001828054610353906111e7565b80156103a05780601f10610375576101008083540402835291602001916103a0565b820191906000526020600020905b81548152906001019060200180831161038357829003601f168201915b505050505081526020016003820154815260200160048201548152602001600582015481526020016006820180546103d7906111e7565b80601f0160208091040260200160405190810160405280929190818152602001828054610403906111e7565b80156104505780601f1061042557610100808354040283529160200191610450565b820191906000526020600020905b81548152906001019060200180831161043357829003601f168201915b505050505081526020016007820160009054906101000a900473ffffffffffffffffffffffffffffffffffffffff1673ffffffffffffffffffffffffffffffffffffffff1673ffffffffffffffffffffffffffffffffffffffff1681526020016007820160149054906101000a900460ff1660018111156104d4576104d3610c9e565b5b60018111156104e6576104e5610c9e565b5b81525050905060008160e0015190506000826000015111801561050f5750600154826000015111155b61051857600080fd5b816060015134101561052957600080fd5b60018081111561053c5761053b610c9e565b5b826101000151600181111561055457610553610c9e565b5b1461055e57600080fd5b3373ffffffffffffffffffffffffffffffffffffffff168173ffffffffffffffffffffffffffffffffffffffff160361059657600080fd5b81600560008581526020019081526020016000206000820151816000015560208201518160010190816105c991906113c4565b5060408201518160020190816105df91906113c4565b50606082015181600301556080820151816004015560a0820151816005015560c082015181600601908161061391906113c4565b5060e08201518160070160006101000a81548173ffffffffffffffffffffffffffffffffffffffff021916908373ffffffffffffffffffffffffffffffffffffffff1602179055506101008201518160070160146101000a81548160ff0219169083600181111561068757610686610c9e565b5b02179055509050508073ffffffffffffffffffffffffffffffffffffffff166108fc349081150290604051600060405180830381858888f193505050501580156106d5573d6000803e3d6000fd5b50348260a0018181516106e891906114c5565b9150818152505081608001518260a001510361075f577fd8fd63dd7ab6a9f3cf1b383a28574d631400197e4263ae12e6a8e62724b157aa6001548360200151846060015185608001518660a001518760c001513360006040516107529897969594939291906114f9565b60405180910390a16107bc565b7fd8fd63dd7ab6a9f3cf1b383a28574d631400197e4263ae12e6a8e62724b157aa6001548360200151846060015185608001518660a001518760c001513360016040516107b39897969594939291906114f9565b60405180910390a15b505050565b6107c9610c83565b60405180610120016040528060015481526020018781526020018681526020018581526020018481526020018381526020018281526020013373ffffffffffffffffffffffffffffffffffffffff1681526020016001808111156108305761082f610c9e565b5b81525060056000600154815260200190815260200160002060008201518160000155602082015181600101908161086791906113c4565b50604082015181600201908161087d91906113c4565b50606082015181600301556080820151816004015560a0820151816005015560c08201518160060190816108b191906113c4565b5060e08201518160070160006101000a81548173ffffffffffffffffffffffffffffffffffffffff021916908373ffffffffffffffffffffffffffffffffffffffff1602179055506101008201518160070160146101000a81548160ff0219169083600181111561092557610924610c9e565b5b02179055509050507f906f57af102eda5f20191436827c2ecfee48af4633b797d2c3308d1efb706c9560015487878787878733600160405161096f99989796959493929190611116565b60405180910390a1505050505050565b6000600260006101000a81548160ff021916908360018111156109a5576109a4610c9e565b5b0217905550565b600260019054906101000a900473ffffffffffffffffffffffffffffffffffffffff1681565b60045481565b6060600080546109e7906111e7565b80601f0160208091040260200160405190810160405280929190818152602001828054610a13906111e7565b8015610a605780601f10610a3557610100808354040283529160200191610a60565b820191906000526020600020905b815481529060010190602001808311610a4357829003601f168201915b5050505050905090565b6005602052806000526040600020600091509050806000015490806001018054610a93906111e7565b80601f0160208091040260200160405190810160405280929190818152602001828054610abf906111e7565b8015610b0c5780601f10610ae157610100808354040283529160200191610b0c565b820191906000526020600020905b815481529060010190602001808311610aef57829003601f168201915b505050505090806002018054610b21906111e7565b80601f0160208091040260200160405190810160405280929190818152602001828054610b4d906111e7565b8015610b9a5780601f10610b6f57610100808354040283529160200191610b9a565b820191906000526020600020905b815481529060010190602001808311610b7d57829003601f168201915b505050505090806003015490806004015490806005015490806006018054610bc1906111e7565b80601f0160208091040260200160405190810160405280929190818152602001828054610bed906111e7565b8015610c3a5780601f10610c0f57610100808354040283529160200191610c3a565b820191906000526020600020905b815481529060010190602001808311610c1d57829003601f168201915b5050505050908060070160009054906101000a900473ffffffffffffffffffffffffffffffffffffffff16908060070160149054906101000a900460ff16905089565b60035481565b6001806000828254610c9591906114c5565b92505081905550565b7f4e487b7100000000000000000000000000000000000000000000000000000000600052602160045260246000fd5b60028110610cde57610cdd610c9e565b5b50565b6000819050610cef82610ccd565b919050565b6000610cff82610ce1565b9050919050565b610d0f81610cf4565b82525050565b6000602082019050610d2a6000830184610d06565b92915050565b6000819050919050565b610d4381610d30565b82525050565b6000602082019050610d5e6000830184610d3a565b92915050565b6000604051905090565b600080fd5b600080fd5b610d8181610d30565b8114610d8c57600080fd5b50565b600081359050610d9e81610d78565b92915050565b600060208284031215610dba57610db9610d6e565b5b6000610dc884828501610d8f565b91505092915050565b600080fd5b600080fd5b6000601f19601f8301169050919050565b7f4e487b7100000000000000000000000000000000000000000000000000000000600052604160045260246000fd5b610e2482610ddb565b810181811067ffffffffffffffff82111715610e4357610e42610dec565b5b80604052505050565b6000610e56610d64565b9050610e628282610e1b565b919050565b600067ffffffffffffffff821115610e8257610e81610dec565b5b610e8b82610ddb565b9050602081019050919050565b82818337600083830152505050565b6000610eba610eb584610e67565b610e4c565b905082815260208101848484011115610ed657610ed5610dd6565b5b610ee1848285610e98565b509392505050565b600082601f830112610efe57610efd610dd1565b5b8135610f0e848260208601610ea7565b91505092915050565b60008060008060008060c08789031215610f3457610f33610d6e565b5b600087013567ffffffffffffffff811115610f5257610f51610d73565b5b610f5e89828a01610ee9565b965050602087013567ffffffffffffffff811115610f7f57610f7e610d73565b5b610f8b89828a01610ee9565b9550506040610f9c89828a01610d8f565b9450506060610fad89828a01610d8f565b9350506080610fbe89828a01610d8f565b92505060a087013567ffffffffffffffff811115610fdf57610fde610d73565b5b610feb89828a01610ee9565b9150509295509295509295565b600073ffffffffffffffffffffffffffffffffffffffff82169050919050565b600061102382610ff8565b9050919050565b61103381611018565b82525050565b600060208201905061104e600083018461102a565b92915050565b600081519050919050565b600082825260208201905092915050565b60005b8381101561108e578082015181840152602081019050611073565b60008484015250505050565b60006110a582611054565b6110af818561105f565b93506110bf818560208601611070565b6110c881610ddb565b840191505092915050565b600060208201905081810360008301526110ed818461109a565b905092915050565b600061110082610ff8565b9050919050565b611110816110f5565b82525050565b60006101208201905061112c600083018c610d3a565b818103602083015261113e818b61109a565b90508181036040830152611152818a61109a565b90506111616060830189610d3a565b61116e6080830188610d3a565b61117b60a0830187610d3a565b81810360c083015261118d818661109a565b905061119c60e0830185611107565b6111aa610100830184610d06565b9a9950505050505050505050565b7f4e487b7100000000000000000000000000000000000000000000000000000000600052602260045260246000fd5b600060028204905060018216806111ff57607f821691505b602082108103611212576112116111b8565b5b50919050565b60008190508160005260206000209050919050565b60006020601f8301049050919050565b600082821b905092915050565b60006008830261127a7fffffffffffffffffffffffffffffffffffffffffffffffffffffffffffffffff8261123d565b611284868361123d565b95508019841693508086168417925050509392505050565b6000819050919050565b60006112c16112bc6112b784610d30565b61129c565b610d30565b9050919050565b6000819050919050565b6112db836112a6565b6112ef6112e7826112c8565b84845461124a565b825550505050565b600090565b6113046112f7565b61130f8184846112d2565b505050565b5b81811015611333576113286000826112fc565b600181019050611315565b5050565b601f8211156113785761134981611218565b6113528461122d565b81016020851015611361578190505b61137561136d8561122d565b830182611314565b50505b505050565b600082821c905092915050565b600061139b6000198460080261137d565b1980831691505092915050565b60006113b4838361138a565b9150826002028217905092915050565b6113cd82611054565b67ffffffffffffffff8111156113e6576113e5610dec565b5b6113f082546111e7565b6113fb828285611337565b600060209050601f83116001811461142e576000841561141c578287015190505b61142685826113a8565b86555061148e565b601f19841661143c86611218565b60005b828110156114645784890151825560018201915060208501945060208101905061143f565b86831015611481578489015161147d601f89168261138a565b8355505b6001600288020188555050505b505050505050565b7f4e487b7100000000000000000000000000000000000000000000000000000000600052601160045260246000fd5b60006114d082610d30565b91506114db83610d30565b92508282019050808211156114f3576114f2611496565b5b92915050565b60006101008201905061150f600083018b610d3a565b8181036020830152611521818a61109a565b90506115306040830189610d3a565b61153d6060830188610d3a565b61154a6080830187610d3a565b81810360a083015261155c818661109a565b905061156b60c0830185611107565b61157860e0830184610d06565b999850505050505050505056fea2646970667358221220f70859602ccae7986b1e842a30c43dbd9d0685e29ae510e60718115b4181c99864736f6c63430008120033",
  "immutableReferences": {},
  "source": "// SPDX-License-Identifier: MIT\r\npragma solidity ^0.8.18;\r\n\r\ncontract CrowdFunding {\r\n    enum FundingStatus {Ended, Ongoing}\r\n    \r\n    string webName;\r\n    uint fundsCount;\r\n    FundingStatus currentFundStatus;\r\n    address public owner;\r\n    uint public fundsEnded;\r\n    uint public fundsOngoing;\r\n\r\n    // Constructor code is only run when the contract is created\r\n    constructor() {\r\n        fundsCount=0;\r\n        currentFundStatus = FundingStatus.Ongoing;\r\n        webName = \"CrowdFunding\";\r\n        owner = msg.sender;\r\n    }\r\n\r\n    //function that sets the reading status to Sold.  \r\n    function setFundSold() public {\r\n        currentFundStatus = FundingStatus.Ended;\r\n    }\r\n        \r\n    function getFundName() public view returns(string memory){\r\n        return webName;\r\n    }\r\n\r\n    //a function to retrieve the current availability of the fund.\r\n    function getFundStatus() public view returns(FundingStatus) {\r\n        return currentFundStatus;\r\n    }\r\n    // Declaring a structure fundDetails\r\n    struct FundDetails {\r\n        uint fundId;\r\n        string name;\r\n        string picName;\r\n        uint price;\r\n        uint goal;\r\n        uint donated;\r\n        string desc;\r\n        address payable ownerId;\r\n        FundingStatus status;\r\n   }\r\n\r\n    // Declaring a structure ownerDetails\r\n   struct  ownerDetails {\r\n        address ownerId;\r\n        string firstName;\r\n        string lastName;\r\n        string mobileNo;\r\n        string email;\r\n    }    \r\n\r\n    //FundDetails[] public listOfFunds;\r\n    mapping (uint => FundDetails) public listOfFunds;\r\n\r\n    //create the event to add Fund\r\n    event FundCreated(\r\n        uint fundId,\r\n        string name,\r\n        string picName,\r\n        uint price,\r\n        uint goal,\r\n        uint donated,\r\n        string desc,\r\n        address payable ownerId,\r\n        FundingStatus status\r\n    );\r\n\r\n    //Write a function addFund with the relevant function parameters\r\n    function addFunds( string memory _name, string memory _picName,\r\n        uint _price, uint _goal, uint _donated, string memory _desc) public {\r\n        incrementFundCount();\r\n        listOfFunds[fundsCount] = FundDetails(fundsCount, _name, _picName, _price, _goal, _donated, _desc, payable(msg.sender), FundingStatus.Ongoing);\r\n        //emit the event to addFund \r\n        emit FundCreated(fundsCount, _name, _picName, _price, _goal, _donated, _desc, payable(msg.sender), FundingStatus.Ongoing);\r\n    }\r\n\r\n    function incrementFundCount() internal {\r\n        fundsCount += 1;\r\n    }\r\n    //Write a function getNoOfFunds to obtain the fundsCount\r\n    function getNoOfFunds() public view returns (uint) {\r\n        return fundsCount;\r\n    }\r\n\r\n    //create the event to purchase the Fund\r\n    event FundPurchased(\r\n        uint id,\r\n        string name,\r\n        uint price,\r\n        uint goal,\r\n        uint donated,\r\n        string desc,\r\n        address payable owner,\r\n        FundingStatus status\r\n    );\r\n\r\n    //add a function to purchase fund with the fund id\r\n    function purchaseFund(uint _id) public payable {\r\n        // Fetch the product\r\n        FundDetails memory fundsInfo = listOfFunds[_id];\r\n        // Fetch the owner\r\n        address payable seller = fundsInfo.ownerId;\r\n        // Make sure the product has a valid id\r\n        require(fundsInfo.fundId > 0 && fundsInfo.fundId <= fundsCount);\r\n        // Require that there is enough Ether in the transaction\r\n        require(msg.value >= fundsInfo.price);\r\n        // Require that the product has not been purchased already\r\n        require(fundsInfo.status == FundingStatus.Ongoing);\r\n        // Require that the buyer is not the seller\r\n        require(seller != msg.sender);\r\n        // Update the product\r\n        listOfFunds[_id] = fundsInfo;\r\n        // Pay the seller by sending them Ether\r\n        payable(seller).transfer(msg.value);\r\n        fundsInfo.donated+=msg.value;\r\n        // Trigger an event\r\n        if (fundsInfo.donated == fundsInfo.goal) {\r\n            emit FundPurchased(fundsCount, fundsInfo.name, fundsInfo.price, fundsInfo.goal, fundsInfo.donated, fundsInfo.desc, payable(msg.sender), FundingStatus.Ended);\r\n        }\r\n        else {\r\n            emit FundPurchased(fundsCount, fundsInfo.name, fundsInfo.price, fundsInfo.goal, fundsInfo.donated, fundsInfo.desc, payable(msg.sender), FundingStatus.Ongoing);\r\n        }\r\n    }\r\n\r\n}\r\n",
  "sourcePath": "C:\\FYP Project\\2024FYP\\CrowdFunding\\contracts\\CrowdFunding.sol",
  "compiler": {
    "name": "solc",
    "version": "0.8.18+commit.87f61d96.Emscripten.clang"
  },
  "schemaVersion": "3.4.16",
  "updatedAt": "2024-06-25T02:57:59.760Z",
  "networkType": "ethereum",
  "devdoc": {
    "kind": "dev",
    "methods": {},
    "version": 1
  },
  "userdoc": {
    "kind": "user",
    "methods": {},
    "version": 1
  }
}