{
  "contractName": "CrowdFunding",
  "abi": [
    {
      "inputs": [],
      "stateMutability": "nonpayable",
      "type": "constructor"
    },
    {
      "anonymous": false,
      "inputs": [
        {
          "indexed": false,
          "internalType": "uint256",
          "name": "fundId",
          "type": "uint256"
        },
        {
          "indexed": false,
          "internalType": "string",
          "name": "name",
          "type": "string"
        },
        {
          "indexed": false,
          "internalType": "string",
          "name": "picName",
          "type": "string"
        },
        {
          "indexed": false,
          "internalType": "uint256",
          "name": "goal",
          "type": "uint256"
        },
        {
          "indexed": false,
          "internalType": "uint256",
          "name": "donated",
          "type": "uint256"
        },
        {
          "indexed": false,
          "internalType": "string",
          "name": "desc",
          "type": "string"
        },
        {
          "indexed": false,
          "internalType": "address payable",
          "name": "ownerId",
          "type": "address"
        },
        {
          "indexed": false,
          "internalType": "enum CrowdFunding.FundingStatus",
          "name": "status",
          "type": "uint8"
        }
      ],
      "name": "FundCreated",
      "type": "event"
    },
    {
      "anonymous": false,
      "inputs": [
        {
          "indexed": false,
          "internalType": "uint256",
          "name": "id",
          "type": "uint256"
        },
        {
          "indexed": false,
          "internalType": "string",
          "name": "name",
          "type": "string"
        },
        {
          "indexed": false,
          "internalType": "uint256",
          "name": "amnt",
          "type": "uint256"
        },
        {
          "indexed": false,
          "internalType": "uint256",
          "name": "goal",
          "type": "uint256"
        },
        {
          "indexed": false,
          "internalType": "uint256",
          "name": "donated",
          "type": "uint256"
        },
        {
          "indexed": false,
          "internalType": "string",
          "name": "desc",
          "type": "string"
        },
        {
          "indexed": false,
          "internalType": "address payable",
          "name": "owner",
          "type": "address"
        },
        {
          "indexed": false,
          "internalType": "enum CrowdFunding.FundingStatus",
          "name": "status",
          "type": "uint8"
        }
      ],
      "name": "FundDonated",
      "type": "event"
    },
    {
      "inputs": [
        {
          "internalType": "uint256",
          "name": "",
          "type": "uint256"
        }
      ],
      "name": "donations",
      "outputs": [
        {
          "internalType": "address",
          "name": "donor",
          "type": "address"
        },
        {
          "internalType": "uint256",
          "name": "amnt",
          "type": "uint256"
        }
      ],
      "stateMutability": "view",
      "type": "function",
      "constant": true
    },
    {
      "inputs": [],
      "name": "fundsEnded",
      "outputs": [
        {
          "internalType": "uint256",
          "name": "",
          "type": "uint256"
        }
      ],
      "stateMutability": "view",
      "type": "function",
      "constant": true
    },
    {
      "inputs": [],
      "name": "fundsOngoing",
      "outputs": [
        {
          "internalType": "uint256",
          "name": "",
          "type": "uint256"
        }
      ],
      "stateMutability": "view",
      "type": "function",
      "constant": true
    },
    {
      "inputs": [
        {
          "internalType": "uint256",
          "name": "",
          "type": "uint256"
        }
      ],
      "name": "listOfFunds",
      "outputs": [
        {
          "internalType": "uint256",
          "name": "fundId",
          "type": "uint256"
        },
        {
          "internalType": "string",
          "name": "name",
          "type": "string"
        },
        {
          "internalType": "string",
          "name": "picName",
          "type": "string"
        },
        {
          "internalType": "uint256",
          "name": "goal",
          "type": "uint256"
        },
        {
          "internalType": "uint256",
          "name": "donated",
          "type": "uint256"
        },
        {
          "internalType": "string",
          "name": "desc",
          "type": "string"
        },
        {
          "internalType": "address payable",
          "name": "ownerId",
          "type": "address"
        },
        {
          "internalType": "enum CrowdFunding.FundingStatus",
          "name": "status",
          "type": "uint8"
        }
      ],
      "stateMutability": "view",
      "type": "function",
      "constant": true
    },
    {
      "inputs": [],
      "name": "owner",
      "outputs": [
        {
          "internalType": "address",
          "name": "",
          "type": "address"
        }
      ],
      "stateMutability": "view",
      "type": "function",
      "constant": true
    },
    {
      "inputs": [],
      "name": "setFundSold",
      "outputs": [],
      "stateMutability": "nonpayable",
      "type": "function"
    },
    {
      "inputs": [],
      "name": "getFundName",
      "outputs": [
        {
          "internalType": "string",
          "name": "",
          "type": "string"
        }
      ],
      "stateMutability": "view",
      "type": "function",
      "constant": true
    },
    {
      "inputs": [],
      "name": "getFundStatus",
      "outputs": [
        {
          "internalType": "enum CrowdFunding.FundingStatus",
          "name": "",
          "type": "uint8"
        }
      ],
      "stateMutability": "view",
      "type": "function",
      "constant": true
    },
    {
      "inputs": [
        {
          "internalType": "string",
          "name": "_name",
          "type": "string"
        },
        {
          "internalType": "string",
          "name": "_picName",
          "type": "string"
        },
        {
          "internalType": "uint256",
          "name": "_goal",
          "type": "uint256"
        },
        {
          "internalType": "uint256",
          "name": "_donated",
          "type": "uint256"
        },
        {
          "internalType": "string",
          "name": "_desc",
          "type": "string"
        }
      ],
      "name": "addFunds",
      "outputs": [],
      "stateMutability": "nonpayable",
      "type": "function"
    },
    {
      "inputs": [],
      "name": "getNoOfFunds",
      "outputs": [
        {
          "internalType": "uint256",
          "name": "",
          "type": "uint256"
        }
      ],
      "stateMutability": "view",
      "type": "function",
      "constant": true
    },
    {
      "inputs": [
        {
          "internalType": "uint256",
          "name": "_id",
          "type": "uint256"
        }
      ],
      "name": "donateFund",
      "outputs": [],
      "stateMutability": "payable",
      "type": "function",
      "payable": true
    }
  ],
  "bytecode": "0x60806040523480156200001157600080fd5b5060006001819055506001600260006101000a81548160ff02191690836001811115620000435762000042620000d6565b5b02179055506040518060400160405280600c81526020017f43726f776446756e64696e670000000000000000000000000000000000000000815250600090816200008e91906200037f565b5033600260016101000a81548173ffffffffffffffffffffffffffffffffffffffff021916908373ffffffffffffffffffffffffffffffffffffffff16021790555062000466565b7f4e487b7100000000000000000000000000000000000000000000000000000000600052602160045260246000fd5b600081519050919050565b7f4e487b7100000000000000000000000000000000000000000000000000000000600052604160045260246000fd5b7f4e487b7100000000000000000000000000000000000000000000000000000000600052602260045260246000fd5b600060028204905060018216806200018757607f821691505b6020821081036200019d576200019c6200013f565b5b50919050565b60008190508160005260206000209050919050565b60006020601f8301049050919050565b600082821b905092915050565b600060088302620002077fffffffffffffffffffffffffffffffffffffffffffffffffffffffffffffffff82620001c8565b620002138683620001c8565b95508019841693508086168417925050509392505050565b6000819050919050565b6000819050919050565b6000620002606200025a62000254846200022b565b62000235565b6200022b565b9050919050565b6000819050919050565b6200027c836200023f565b620002946200028b8262000267565b848454620001d5565b825550505050565b600090565b620002ab6200029c565b620002b881848462000271565b505050565b5b81811015620002e057620002d4600082620002a1565b600181019050620002be565b5050565b601f8211156200032f57620002f981620001a3565b6200030484620001b8565b8101602085101562000314578190505b6200032c6200032385620001b8565b830182620002bd565b50505b505050565b600082821c905092915050565b6000620003546000198460080262000334565b1980831691505092915050565b60006200036f838362000341565b9150826002028217905092915050565b6200038a8262000105565b67ffffffffffffffff811115620003a657620003a562000110565b5b620003b282546200016e565b620003bf828285620002e4565b600060209050601f831160018114620003f75760008415620003e2578287015190505b620003ee858262000361565b8655506200045e565b601f1984166200040786620001a3565b60005b8281101562000431578489015182556001820191506020850194506020810190506200040a565b868310156200045157848901516200044d601f89168262000341565b8355505b6001600288020188555050505b505050505050565b61169580620004766000396000f3fe60806040526004361061009c5760003560e01c80638dc78688116100645780638dc7868814610155578063932b811d14610180578063a87fe87e146101a9578063cd313ad9146101d4578063dccd62f514610218578063f8626af8146102435761009c565b806307eac9bc146100a15780630c914722146100cc578063221f1647146100e8578063868bc027146101135780638da5cb5b1461012a575b600080fd5b3480156100ad57600080fd5b506100b6610281565b6040516100c39190610c1f565b60405180910390f35b6100e660048036038101906100e19190610c84565b610298565b005b3480156100f457600080fd5b506100fd6105f6565b60405161010a9190610cc0565b60405180910390f35b34801561011f57600080fd5b50610128610600565b005b34801561013657600080fd5b5061013f61062d565b60405161014c9190610d1c565b60405180910390f35b34801561016157600080fd5b5061016a610653565b6040516101779190610cc0565b60405180910390f35b34801561018c57600080fd5b506101a760048036038101906101a29190610e7d565b610659565b005b3480156101b557600080fd5b506101be61082a565b6040516101cb9190610fcb565b60405180910390f35b3480156101e057600080fd5b506101fb60048036038101906101f69190610c84565b6108bc565b60405161020f98979695949392919061100e565b60405180910390f35b34801561022457600080fd5b5061022d610ac9565b60405161023a9190610cc0565b60405180910390f35b34801561024f57600080fd5b5061026a60048036038101906102659190610c84565b610acf565b6040516102789291906110a1565b60405180910390f35b6000600260009054906101000a900460ff16905090565b600060056000838152602001908152602001600020905060008160070160009054906101000a900473ffffffffffffffffffffffffffffffffffffffff169050600082600001541180156102f25750600154826000015411155b610331576040517f08c379a000000000000000000000000000000000000000000000000000000000815260040161032890611116565b60405180910390fd5b60018081111561034457610343610ba8565b5b8260070160149054906101000a900460ff16600181111561036857610367610ba8565b5b146103a8576040517f08c379a000000000000000000000000000000000000000000000000000000000815260040161039f90611182565b60405180910390fd5b3373ffffffffffffffffffffffffffffffffffffffff168173ffffffffffffffffffffffffffffffffffffffff1603610416576040517f08c379a000000000000000000000000000000000000000000000000000000000815260040161040d906111ee565b60405180910390fd5b3482600401600082825461042a919061123d565b9250508190555081600601349080600181540180825580915050600190039060005260206000200160009091909190915055600660405180604001604052803373ffffffffffffffffffffffffffffffffffffffff16815260200134815250908060018154018082558091505060019003906000526020600020906002020160009091909190915060008201518160000160006101000a81548173ffffffffffffffffffffffffffffffffffffffff021916908373ffffffffffffffffffffffffffffffffffffffff1602179055506020820151816001015550508073ffffffffffffffffffffffffffffffffffffffff166108fc349081150290604051600060405180830381858888f1935050505015801561054b573d6000803e3d6000fd5b5081600301548260040154106105895760008260070160146101000a81548160ff0219169083600181111561058357610582610ba8565b5b02179055505b7fc1b48f390ed353529c0d7142a32f9ede6fc5885785a7da3a85586f457f0cb427826000015483600101348560030154866004015487600501338960070160149054906101000a900460ff166040516105e998979695949392919061136a565b60405180910390a1505050565b6000600154905090565b6000600260006101000a81548160ff0219169083600181111561062657610625610ba8565b5b0217905550565b600260019054906101000a900473ffffffffffffffffffffffffffffffffffffffff1681565b60045481565b610661610b23565b606060405180610120016040528060015481526020018781526020018681526020018581526020018481526020018381526020018281526020013373ffffffffffffffffffffffffffffffffffffffff1681526020016001808111156106ca576106c9610ba8565b5b815250600560006001548152602001908152602001600020600082015181600001556020820151816001019081610701919061158d565b506040820151816002019081610717919061158d565b50606082015181600301556080820151816004015560a0820151816005019081610741919061158d565b5060c082015181600601908051906020019061075e929190610b3e565b5060e08201518160070160006101000a81548173ffffffffffffffffffffffffffffffffffffffff021916908373ffffffffffffffffffffffffffffffffffffffff1602179055506101008201518160070160146101000a81548160ff021916908360018111156107d2576107d1610ba8565b5b02179055509050507f63535273494e6cfddf138de365792dae1e28008178b091e9b7a73b37d373a5ac600154878787878733600160405161081a98979695949392919061100e565b60405180910390a1505050505050565b606060008054610839906112a0565b80601f0160208091040260200160405190810160405280929190818152602001828054610865906112a0565b80156108b25780601f10610887576101008083540402835291602001916108b2565b820191906000526020600020905b81548152906001019060200180831161089557829003601f168201915b5050505050905090565b60056020528060005260406000206000915090508060000154908060010180546108e5906112a0565b80601f0160208091040260200160405190810160405280929190818152602001828054610911906112a0565b801561095e5780601f106109335761010080835404028352916020019161095e565b820191906000526020600020905b81548152906001019060200180831161094157829003601f168201915b505050505090806002018054610973906112a0565b80601f016020809104026020016040519081016040528092919081815260200182805461099f906112a0565b80156109ec5780601f106109c1576101008083540402835291602001916109ec565b820191906000526020600020905b8154815290600101906020018083116109cf57829003601f168201915b505050505090806003015490806004015490806005018054610a0d906112a0565b80601f0160208091040260200160405190810160405280929190818152602001828054610a39906112a0565b8015610a865780601f10610a5b57610100808354040283529160200191610a86565b820191906000526020600020905b815481529060010190602001808311610a6957829003601f168201915b5050505050908060070160009054906101000a900473ffffffffffffffffffffffffffffffffffffffff16908060070160149054906101000a900460ff16905088565b60035481565b60068181548110610adf57600080fd5b90600052602060002090600202016000915090508060000160009054906101000a900473ffffffffffffffffffffffffffffffffffffffff16908060010154905082565b6001806000828254610b35919061123d565b92505081905550565b828054828255906000526020600020908101928215610b7a579160200282015b82811115610b79578251825591602001919060010190610b5e565b5b509050610b879190610b8b565b5090565b5b80821115610ba4576000816000905550600101610b8c565b5090565b7f4e487b7100000000000000000000000000000000000000000000000000000000600052602160045260246000fd5b60028110610be857610be7610ba8565b5b50565b6000819050610bf982610bd7565b919050565b6000610c0982610beb565b9050919050565b610c1981610bfe565b82525050565b6000602082019050610c346000830184610c10565b92915050565b6000604051905090565b600080fd5b600080fd5b6000819050919050565b610c6181610c4e565b8114610c6c57600080fd5b50565b600081359050610c7e81610c58565b92915050565b600060208284031215610c9a57610c99610c44565b5b6000610ca884828501610c6f565b91505092915050565b610cba81610c4e565b82525050565b6000602082019050610cd56000830184610cb1565b92915050565b600073ffffffffffffffffffffffffffffffffffffffff82169050919050565b6000610d0682610cdb565b9050919050565b610d1681610cfb565b82525050565b6000602082019050610d316000830184610d0d565b92915050565b600080fd5b600080fd5b6000601f19601f8301169050919050565b7f4e487b7100000000000000000000000000000000000000000000000000000000600052604160045260246000fd5b610d8a82610d41565b810181811067ffffffffffffffff82111715610da957610da8610d52565b5b80604052505050565b6000610dbc610c3a565b9050610dc88282610d81565b919050565b600067ffffffffffffffff821115610de857610de7610d52565b5b610df182610d41565b9050602081019050919050565b82818337600083830152505050565b6000610e20610e1b84610dcd565b610db2565b905082815260208101848484011115610e3c57610e3b610d3c565b5b610e47848285610dfe565b509392505050565b600082601f830112610e6457610e63610d37565b5b8135610e74848260208601610e0d565b91505092915050565b600080600080600060a08688031215610e9957610e98610c44565b5b600086013567ffffffffffffffff811115610eb757610eb6610c49565b5b610ec388828901610e4f565b955050602086013567ffffffffffffffff811115610ee457610ee3610c49565b5b610ef088828901610e4f565b9450506040610f0188828901610c6f565b9350506060610f1288828901610c6f565b925050608086013567ffffffffffffffff811115610f3357610f32610c49565b5b610f3f88828901610e4f565b9150509295509295909350565b600081519050919050565b600082825260208201905092915050565b60005b83811015610f86578082015181840152602081019050610f6b565b60008484015250505050565b6000610f9d82610f4c565b610fa78185610f57565b9350610fb7818560208601610f68565b610fc081610d41565b840191505092915050565b60006020820190508181036000830152610fe58184610f92565b905092915050565b6000610ff882610cdb565b9050919050565b61100881610fed565b82525050565b600061010082019050611024600083018b610cb1565b8181036020830152611036818a610f92565b9050818103604083015261104a8189610f92565b90506110596060830188610cb1565b6110666080830187610cb1565b81810360a08301526110788186610f92565b905061108760c0830185610fff565b61109460e0830184610c10565b9998505050505050505050565b60006040820190506110b66000830185610d0d565b6110c36020830184610cb1565b9392505050565b7f496e76616c69642066756e642049440000000000000000000000000000000000600082015250565b6000611100600f83610f57565b915061110b826110ca565b602082019050919050565b6000602082019050818103600083015261112f816110f3565b9050919050565b7f43616d706169676e207265616368656420676f616c0000000000000000000000600082015250565b600061116c601583610f57565b915061117782611136565b602082019050919050565b6000602082019050818103600083015261119b8161115f565b9050919050565b7f53656c6c65722063616e6e6f7420646f6e617465206f776e2066756e64000000600082015250565b60006111d8601d83610f57565b91506111e3826111a2565b602082019050919050565b60006020820190508181036000830152611207816111cb565b9050919050565b7f4e487b7100000000000000000000000000000000000000000000000000000000600052601160045260246000fd5b600061124882610c4e565b915061125383610c4e565b925082820190508082111561126b5761126a61120e565b5b92915050565b7f4e487b7100000000000000000000000000000000000000000000000000000000600052602260045260246000fd5b600060028204905060018216806112b857607f821691505b6020821081036112cb576112ca611271565b5b50919050565b60008190508160005260206000209050919050565b600081546112f3816112a0565b6112fd8186610f57565b94506001821660008114611318576001811461132e57611361565b60ff198316865281151560200286019350611361565b611337856112d1565b60005b838110156113595781548189015260018201915060208101905061133a565b808801955050505b50505092915050565b600061010082019050611380600083018b610cb1565b8181036020830152611392818a6112e6565b90506113a16040830189610cb1565b6113ae6060830188610cb1565b6113bb6080830187610cb1565b81810360a08301526113cd81866112e6565b90506113dc60c0830185610fff565b6113e960e0830184610c10565b9998505050505050505050565b60006020601f8301049050919050565b600082821b905092915050565b6000600883026114437fffffffffffffffffffffffffffffffffffffffffffffffffffffffffffffffff82611406565b61144d8683611406565b95508019841693508086168417925050509392505050565b6000819050919050565b600061148a61148561148084610c4e565b611465565b610c4e565b9050919050565b6000819050919050565b6114a48361146f565b6114b86114b082611491565b848454611413565b825550505050565b600090565b6114cd6114c0565b6114d881848461149b565b505050565b5b818110156114fc576114f16000826114c5565b6001810190506114de565b5050565b601f82111561154157611512816112d1565b61151b846113f6565b8101602085101561152a578190505b61153e611536856113f6565b8301826114dd565b50505b505050565b600082821c905092915050565b600061156460001984600802611546565b1980831691505092915050565b600061157d8383611553565b9150826002028217905092915050565b61159682610f4c565b67ffffffffffffffff8111156115af576115ae610d52565b5b6115b982546112a0565b6115c4828285611500565b600060209050601f8311600181146115f757600084156115e5578287015190505b6115ef8582611571565b865550611657565b601f198416611605866112d1565b60005b8281101561162d57848901518255600182019150602085019450602081019050611608565b8683101561164a5784890151611646601f891682611553565b8355505b6001600288020188555050505b50505050505056fea2646970667358221220abc374d7100758d7d2797e6550e8d6163438ab754104f4386d6f8bf3addf2c3b64736f6c63430008120033",
  "immutableReferences": {},
  "source": "// SPDX-License-Identifier: MIT\r\npragma solidity ^0.8.18;\r\n\r\ncontract CrowdFunding {\r\n    enum FundingStatus {Ended, Ongoing}\r\n    \r\n    string webName;\r\n    uint fundsCount;\r\n    FundingStatus currentFundStatus;\r\n    address public owner;\r\n    uint public fundsEnded;\r\n    uint public fundsOngoing;\r\n\r\n    // Constructor code is only run when the contract is created\r\n    constructor() {\r\n        fundsCount=0;\r\n        currentFundStatus = FundingStatus.Ongoing;\r\n        webName = \"CrowdFunding\";\r\n        owner = msg.sender;\r\n    }\r\n\r\n    //function that sets the reading status to Sold.  \r\n    function setFundSold() public {\r\n        currentFundStatus = FundingStatus.Ended;\r\n    }\r\n        \r\n    function getFundName() public view returns(string memory){\r\n        return webName;\r\n    }\r\n\r\n    //a function to retrieve the current availability of the fund.\r\n    function getFundStatus() public view returns(FundingStatus) {\r\n        return currentFundStatus;\r\n    }\r\n    // Declaring a structure fundDetails\r\n    struct FundDetails {\r\n        uint fundId;\r\n        string name;\r\n        string picName;\r\n        uint goal;\r\n        uint donated;\r\n        string desc;\r\n        uint256[] donations;\r\n        address payable ownerId;\r\n        FundingStatus status;\r\n   }\r\n\r\n    // Declaring a structure ownerDetails\r\n   struct  ownerDetails {\r\n        address ownerId;\r\n        string firstName;\r\n        string lastName;\r\n        string mobileNo;\r\n        string email;\r\n    }\r\n\r\n    struct donationinfo {\r\n        address donor;\r\n        uint amnt;\r\n    }    \r\n\r\n    //FundDetails[] public listOfFunds;\r\n    mapping (uint => FundDetails) public listOfFunds;\r\n    donationinfo[] public donations;\r\n\r\n    //create the event to add Fund\r\n    event FundCreated(\r\n        uint fundId,\r\n        string name,\r\n        string picName,\r\n        uint goal,\r\n        uint donated,\r\n        string desc,\r\n        address payable ownerId,\r\n        FundingStatus status\r\n    );\r\n\r\n    //Write a function addFund with the relevant function parameters\r\n    function addFunds( string memory _name, string memory _picName,\r\n        uint _goal, uint _donated, string memory _desc) public {\r\n        incrementFundCount();\r\n        uint[] memory empDonations;\r\n        listOfFunds[fundsCount] = FundDetails(fundsCount, _name, _picName, _goal, _donated, _desc, empDonations, payable(msg.sender), FundingStatus.Ongoing);\r\n        //emit the event to addFund \r\n        emit FundCreated(fundsCount, _name, _picName, _goal, _donated, _desc, payable(msg.sender), FundingStatus.Ongoing);\r\n    }\r\n\r\n    function incrementFundCount() internal {\r\n        fundsCount += 1;\r\n    }\r\n    //Write a function getNoOfFunds to obtain the fundsCount\r\n    function getNoOfFunds() public view returns (uint) {\r\n        return fundsCount;\r\n    }\r\n\r\n    //create the event to purchase the Fund\r\n    event FundDonated(\r\n        uint id,\r\n        string name,\r\n        uint amnt,\r\n        uint goal,\r\n        uint donated,\r\n        string desc,\r\n        address payable owner,\r\n        FundingStatus status\r\n    );\r\n\r\n    function donateFund(uint _id) public payable {\r\n    FundDetails storage fundsInfo = listOfFunds[_id];\r\n    address payable seller = fundsInfo.ownerId;\r\n    require(fundsInfo.fundId > 0 && fundsInfo.fundId <= fundsCount, \"Invalid fund ID\");\r\n    require(fundsInfo.status == FundingStatus.Ongoing, \"Campaign reached goal\");\r\n    require(seller != msg.sender, \"Seller cannot donate own fund\");\r\n    fundsInfo.donated += msg.value;\r\n    fundsInfo.donations.push(msg.value);\r\n    donations.push(donationinfo({\r\n        donor: msg.sender,\r\n        amnt: msg.value\r\n    }));\r\n    payable(seller).transfer(msg.value);\r\n    if (fundsInfo.donated >= fundsInfo.goal) {\r\n        fundsInfo.status = FundingStatus.Ended;\r\n    }\r\n    emit FundDonated(fundsInfo.fundId, fundsInfo.name, msg.value, fundsInfo.goal, fundsInfo.donated, fundsInfo.desc, payable(msg.sender), fundsInfo.status);\r\n}\r\n\r\n\r\n}\r\n       ",
  "sourcePath": "C:\\FYP Project\\2024FYP\\CrowdFunding\\contracts\\CrowdFunding.sol",
  "compiler": {
    "name": "solc",
    "version": "0.8.18+commit.87f61d96.Emscripten.clang"
  },
  "schemaVersion": "3.4.16",
  "updatedAt": "2024-07-24T04:20:05.861Z",
  "networkType": "ethereum",
  "devdoc": {
    "kind": "dev",
    "methods": {},
    "version": 1
  },
  "userdoc": {
    "kind": "user",
    "methods": {},
    "version": 1
  }
}