{
  "contractName": "CrowdFunding",
  "abi": [
    {
      "inputs": [],
      "stateMutability": "nonpayable",
      "type": "constructor"
    },
    {
      "anonymous": false,
      "inputs": [
        {
          "indexed": false,
          "internalType": "uint256",
          "name": "fundId",
          "type": "uint256"
        },
        {
          "indexed": false,
          "internalType": "string",
          "name": "name",
          "type": "string"
        },
        {
          "indexed": false,
          "internalType": "string",
          "name": "picName",
          "type": "string"
        },
        {
          "indexed": false,
          "internalType": "uint256",
          "name": "price",
          "type": "uint256"
        },
        {
          "indexed": false,
          "internalType": "string",
          "name": "desc",
          "type": "string"
        },
        {
          "indexed": false,
          "internalType": "address payable",
          "name": "ownerId",
          "type": "address"
        },
        {
          "indexed": false,
          "internalType": "enum CrowdFunding.FundingStatus",
          "name": "status",
          "type": "uint8"
        }
      ],
      "name": "FundCreated",
      "type": "event"
    },
    {
      "anonymous": false,
      "inputs": [
        {
          "indexed": false,
          "internalType": "uint256",
          "name": "id",
          "type": "uint256"
        },
        {
          "indexed": false,
          "internalType": "string",
          "name": "name",
          "type": "string"
        },
        {
          "indexed": false,
          "internalType": "uint256",
          "name": "price",
          "type": "uint256"
        },
        {
          "indexed": false,
          "internalType": "string",
          "name": "desc",
          "type": "string"
        },
        {
          "indexed": false,
          "internalType": "address payable",
          "name": "owner",
          "type": "address"
        },
        {
          "indexed": false,
          "internalType": "enum CrowdFunding.FundingStatus",
          "name": "status",
          "type": "uint8"
        }
      ],
      "name": "FundPurchased",
      "type": "event"
    },
    {
      "inputs": [],
      "name": "fundsEnded",
      "outputs": [
        {
          "internalType": "uint256",
          "name": "",
          "type": "uint256"
        }
      ],
      "stateMutability": "view",
      "type": "function",
      "constant": true
    },
    {
      "inputs": [],
      "name": "fundsOngoing",
      "outputs": [
        {
          "internalType": "uint256",
          "name": "",
          "type": "uint256"
        }
      ],
      "stateMutability": "view",
      "type": "function",
      "constant": true
    },
    {
      "inputs": [
        {
          "internalType": "uint256",
          "name": "",
          "type": "uint256"
        }
      ],
      "name": "listOfFunds",
      "outputs": [
        {
          "internalType": "uint256",
          "name": "fundId",
          "type": "uint256"
        },
        {
          "internalType": "string",
          "name": "name",
          "type": "string"
        },
        {
          "internalType": "string",
          "name": "picName",
          "type": "string"
        },
        {
          "internalType": "uint256",
          "name": "price",
          "type": "uint256"
        },
        {
          "internalType": "string",
          "name": "desc",
          "type": "string"
        },
        {
          "internalType": "address payable",
          "name": "ownerId",
          "type": "address"
        },
        {
          "internalType": "enum CrowdFunding.FundingStatus",
          "name": "status",
          "type": "uint8"
        }
      ],
      "stateMutability": "view",
      "type": "function",
      "constant": true
    },
    {
      "inputs": [],
      "name": "owner",
      "outputs": [
        {
          "internalType": "address",
          "name": "",
          "type": "address"
        }
      ],
      "stateMutability": "view",
      "type": "function",
      "constant": true
    },
    {
      "inputs": [],
      "name": "setFundSold",
      "outputs": [],
      "stateMutability": "nonpayable",
      "type": "function"
    },
    {
      "inputs": [],
      "name": "getFundName",
      "outputs": [
        {
          "internalType": "string",
          "name": "",
          "type": "string"
        }
      ],
      "stateMutability": "view",
      "type": "function",
      "constant": true
    },
    {
      "inputs": [],
      "name": "getFundStatus",
      "outputs": [
        {
          "internalType": "enum CrowdFunding.FundingStatus",
          "name": "",
          "type": "uint8"
        }
      ],
      "stateMutability": "view",
      "type": "function",
      "constant": true
    },
    {
      "inputs": [
        {
          "internalType": "string",
          "name": "_name",
          "type": "string"
        },
        {
          "internalType": "string",
          "name": "_picName",
          "type": "string"
        },
        {
          "internalType": "uint256",
          "name": "_price",
          "type": "uint256"
        },
        {
          "internalType": "string",
          "name": "_desc",
          "type": "string"
        }
      ],
      "name": "addFunds",
      "outputs": [],
      "stateMutability": "nonpayable",
      "type": "function"
    },
    {
      "inputs": [],
      "name": "getNoOfFunds",
      "outputs": [
        {
          "internalType": "uint256",
          "name": "",
          "type": "uint256"
        }
      ],
      "stateMutability": "view",
      "type": "function",
      "constant": true
    },
    {
      "inputs": [
        {
          "internalType": "uint256",
          "name": "_id",
          "type": "uint256"
        }
      ],
      "name": "purchaseFund",
      "outputs": [],
      "stateMutability": "payable",
      "type": "function",
      "payable": true
    }
  ],
  "bytecode": "0x60806040523480156200001157600080fd5b5060006001819055506001600260006101000a81548160ff02191690836001811115620000435762000042620000d6565b5b02179055506040518060400160405280600c81526020017f43726f776446756e64696e670000000000000000000000000000000000000000815250600090816200008e91906200037f565b5033600260016101000a81548173ffffffffffffffffffffffffffffffffffffffff021916908373ffffffffffffffffffffffffffffffffffffffff16021790555062000466565b7f4e487b7100000000000000000000000000000000000000000000000000000000600052602160045260246000fd5b600081519050919050565b7f4e487b7100000000000000000000000000000000000000000000000000000000600052604160045260246000fd5b7f4e487b7100000000000000000000000000000000000000000000000000000000600052602260045260246000fd5b600060028204905060018216806200018757607f821691505b6020821081036200019d576200019c6200013f565b5b50919050565b60008190508160005260206000209050919050565b60006020601f8301049050919050565b600082821b905092915050565b600060088302620002077fffffffffffffffffffffffffffffffffffffffffffffffffffffffffffffffff82620001c8565b620002138683620001c8565b95508019841693508086168417925050509392505050565b6000819050919050565b6000819050919050565b6000620002606200025a62000254846200022b565b62000235565b6200022b565b9050919050565b6000819050919050565b6200027c836200023f565b620002946200028b8262000267565b848454620001d5565b825550505050565b600090565b620002ab6200029c565b620002b881848462000271565b505050565b5b81811015620002e057620002d4600082620002a1565b600181019050620002be565b5050565b601f8211156200032f57620002f981620001a3565b6200030484620001b8565b8101602085101562000314578190505b6200032c6200032385620001b8565b830182620002bd565b50505b505050565b600082821c905092915050565b6000620003546000198460080262000334565b1980831691505092915050565b60006200036f838362000341565b9150826002028217905092915050565b6200038a8262000105565b67ffffffffffffffff811115620003a657620003a562000110565b5b620003b282546200016e565b620003bf828285620002e4565b600060209050601f831160018114620003f75760008415620003e2578287015190505b620003ee858262000361565b8655506200045e565b601f1984166200040786620001a3565b60005b8281101562000431578489015182556001820191506020850194506020810190506200040a565b868310156200045157848901516200044d601f89168262000341565b8355505b6001600288020188555050505b505050505050565b6114cc80620004766000396000f3fe6080604052600436106100915760003560e01c80638da5cb5b116100595780638da5cb5b146101485780638dc7868814610173578063a87fe87e1461019e578063cd313ad9146101c9578063dccd62f51461020c57610091565b806307eac9bc1461009657806312c32d01146100c1578063221f1647146100ea578063479777c414610115578063868bc02714610131575b600080fd5b3480156100a257600080fd5b506100ab610237565b6040516100b89190610c87565b60405180910390f35b3480156100cd57600080fd5b506100e860048036038101906100e39190610e32565b61024e565b005b3480156100f657600080fd5b506100ff6103e4565b60405161010c9190610efc565b60405180910390f35b61012f600480360381019061012a9190610f17565b6103ee565b005b34801561013d57600080fd5b506101466108fd565b005b34801561015457600080fd5b5061015d61092a565b60405161016a9190610f85565b60405180910390f35b34801561017f57600080fd5b50610188610950565b6040516101959190610efc565b60405180910390f35b3480156101aa57600080fd5b506101b3610956565b6040516101c0919061101f565b60405180910390f35b3480156101d557600080fd5b506101f060048036038101906101eb9190610f17565b6109e8565b6040516102039796959493929190611062565b60405180910390f35b34801561021857600080fd5b50610221610bef565b60405161022e9190610efc565b60405180910390f35b6000600260009054906101000a900460ff16905090565b610256610bf5565b6040518060e0016040528060015481526020018581526020018481526020018381526020018281526020013373ffffffffffffffffffffffffffffffffffffffff1681526020016001808111156102b0576102af610c10565b5b8152506005600060015481526020019081526020016000206000820151816000015560208201518160010190816102e791906112f2565b5060408201518160020190816102fd91906112f2565b5060608201518160030155608082015181600401908161031d91906112f2565b5060a08201518160050160006101000a81548173ffffffffffffffffffffffffffffffffffffffff021916908373ffffffffffffffffffffffffffffffffffffffff16021790555060c08201518160050160146101000a81548160ff021916908360018111156103905761038f610c10565b5b02179055509050507f67fa5bad4ede495803b6cbabca3603f0f1f5a35413d11046c967049e44e65cbe600154858585853360016040516103d69796959493929190611062565b60405180910390a150505050565b6000600154905090565b6000600560008381526020019081526020016000206040518060e00160405290816000820154815260200160018201805461042890611115565b80601f016020809104026020016040519081016040528092919081815260200182805461045490611115565b80156104a15780601f10610476576101008083540402835291602001916104a1565b820191906000526020600020905b81548152906001019060200180831161048457829003601f168201915b505050505081526020016002820180546104ba90611115565b80601f01602080910402602001604051908101604052809291908181526020018280546104e690611115565b80156105335780601f1061050857610100808354040283529160200191610533565b820191906000526020600020905b81548152906001019060200180831161051657829003601f168201915b505050505081526020016003820154815260200160048201805461055690611115565b80601f016020809104026020016040519081016040528092919081815260200182805461058290611115565b80156105cf5780601f106105a4576101008083540402835291602001916105cf565b820191906000526020600020905b8154815290600101906020018083116105b257829003601f168201915b505050505081526020016005820160009054906101000a900473ffffffffffffffffffffffffffffffffffffffff1673ffffffffffffffffffffffffffffffffffffffff1673ffffffffffffffffffffffffffffffffffffffff1681526020016005820160149054906101000a900460ff16600181111561065357610652610c10565b5b600181111561066557610664610c10565b5b81525050905060008160a0015190506000826000015111801561068e5750600154826000015111155b61069757600080fd5b81606001513410156106a857600080fd5b6001808111156106bb576106ba610c10565b5b8260c0015160018111156106d2576106d1610c10565b5b146106dc57600080fd5b3373ffffffffffffffffffffffffffffffffffffffff168173ffffffffffffffffffffffffffffffffffffffff160361071457600080fd5b338260a0019073ffffffffffffffffffffffffffffffffffffffff16908173ffffffffffffffffffffffffffffffffffffffff168152505060008260c00190600181111561076557610764610c10565b5b9081600181111561077957610778610c10565b5b8152505081600560008581526020019081526020016000206000820151816000015560208201518160010190816107b091906112f2565b5060408201518160020190816107c691906112f2565b506060820151816003015560808201518160040190816107e691906112f2565b5060a08201518160050160006101000a81548173ffffffffffffffffffffffffffffffffffffffff021916908373ffffffffffffffffffffffffffffffffffffffff16021790555060c08201518160050160146101000a81548160ff0219169083600181111561085957610858610c10565b5b02179055509050508073ffffffffffffffffffffffffffffffffffffffff166108fc349081150290604051600060405180830381858888f193505050501580156108a7573d6000803e3d6000fd5b507fbb3b26d4f67584da673eef02ebcd083f92b4f57a5d72f8f8349347b256e6aa1c6001548360200151846060015185608001513360006040516108f0969594939291906113c4565b60405180910390a1505050565b6000600260006101000a81548160ff0219169083600181111561092357610922610c10565b5b0217905550565b600260019054906101000a900473ffffffffffffffffffffffffffffffffffffffff1681565b60045481565b60606000805461096590611115565b80601f016020809104026020016040519081016040528092919081815260200182805461099190611115565b80156109de5780601f106109b3576101008083540402835291602001916109de565b820191906000526020600020905b8154815290600101906020018083116109c157829003601f168201915b5050505050905090565b6005602052806000526040600020600091509050806000015490806001018054610a1190611115565b80601f0160208091040260200160405190810160405280929190818152602001828054610a3d90611115565b8015610a8a5780601f10610a5f57610100808354040283529160200191610a8a565b820191906000526020600020905b815481529060010190602001808311610a6d57829003601f168201915b505050505090806002018054610a9f90611115565b80601f0160208091040260200160405190810160405280929190818152602001828054610acb90611115565b8015610b185780601f10610aed57610100808354040283529160200191610b18565b820191906000526020600020905b815481529060010190602001808311610afb57829003601f168201915b505050505090806003015490806004018054610b3390611115565b80601f0160208091040260200160405190810160405280929190818152602001828054610b5f90611115565b8015610bac5780601f10610b8157610100808354040283529160200191610bac565b820191906000526020600020905b815481529060010190602001808311610b8f57829003601f168201915b5050505050908060050160009054906101000a900473ffffffffffffffffffffffffffffffffffffffff16908060050160149054906101000a900460ff16905087565b60035481565b6001806000828254610c079190611462565b92505081905550565b7f4e487b7100000000000000000000000000000000000000000000000000000000600052602160045260246000fd5b60028110610c5057610c4f610c10565b5b50565b6000819050610c6182610c3f565b919050565b6000610c7182610c53565b9050919050565b610c8181610c66565b82525050565b6000602082019050610c9c6000830184610c78565b92915050565b6000604051905090565b600080fd5b600080fd5b600080fd5b600080fd5b6000601f19601f8301169050919050565b7f4e487b7100000000000000000000000000000000000000000000000000000000600052604160045260246000fd5b610d0982610cc0565b810181811067ffffffffffffffff82111715610d2857610d27610cd1565b5b80604052505050565b6000610d3b610ca2565b9050610d478282610d00565b919050565b600067ffffffffffffffff821115610d6757610d66610cd1565b5b610d7082610cc0565b9050602081019050919050565b82818337600083830152505050565b6000610d9f610d9a84610d4c565b610d31565b905082815260208101848484011115610dbb57610dba610cbb565b5b610dc6848285610d7d565b509392505050565b600082601f830112610de357610de2610cb6565b5b8135610df3848260208601610d8c565b91505092915050565b6000819050919050565b610e0f81610dfc565b8114610e1a57600080fd5b50565b600081359050610e2c81610e06565b92915050565b60008060008060808587031215610e4c57610e4b610cac565b5b600085013567ffffffffffffffff811115610e6a57610e69610cb1565b5b610e7687828801610dce565b945050602085013567ffffffffffffffff811115610e9757610e96610cb1565b5b610ea387828801610dce565b9350506040610eb487828801610e1d565b925050606085013567ffffffffffffffff811115610ed557610ed4610cb1565b5b610ee187828801610dce565b91505092959194509250565b610ef681610dfc565b82525050565b6000602082019050610f116000830184610eed565b92915050565b600060208284031215610f2d57610f2c610cac565b5b6000610f3b84828501610e1d565b91505092915050565b600073ffffffffffffffffffffffffffffffffffffffff82169050919050565b6000610f6f82610f44565b9050919050565b610f7f81610f64565b82525050565b6000602082019050610f9a6000830184610f76565b92915050565b600081519050919050565b600082825260208201905092915050565b60005b83811015610fda578082015181840152602081019050610fbf565b60008484015250505050565b6000610ff182610fa0565b610ffb8185610fab565b935061100b818560208601610fbc565b61101481610cc0565b840191505092915050565b600060208201905081810360008301526110398184610fe6565b905092915050565b600061104c82610f44565b9050919050565b61105c81611041565b82525050565b600060e082019050611077600083018a610eed565b81810360208301526110898189610fe6565b9050818103604083015261109d8188610fe6565b90506110ac6060830187610eed565b81810360808301526110be8186610fe6565b90506110cd60a0830185611053565b6110da60c0830184610c78565b98975050505050505050565b7f4e487b7100000000000000000000000000000000000000000000000000000000600052602260045260246000fd5b6000600282049050600182168061112d57607f821691505b6020821081036111405761113f6110e6565b5b50919050565b60008190508160005260206000209050919050565b60006020601f8301049050919050565b600082821b905092915050565b6000600883026111a87fffffffffffffffffffffffffffffffffffffffffffffffffffffffffffffffff8261116b565b6111b2868361116b565b95508019841693508086168417925050509392505050565b6000819050919050565b60006111ef6111ea6111e584610dfc565b6111ca565b610dfc565b9050919050565b6000819050919050565b611209836111d4565b61121d611215826111f6565b848454611178565b825550505050565b600090565b611232611225565b61123d818484611200565b505050565b5b818110156112615761125660008261122a565b600181019050611243565b5050565b601f8211156112a65761127781611146565b6112808461115b565b8101602085101561128f578190505b6112a361129b8561115b565b830182611242565b50505b505050565b600082821c905092915050565b60006112c9600019846008026112ab565b1980831691505092915050565b60006112e283836112b8565b9150826002028217905092915050565b6112fb82610fa0565b67ffffffffffffffff81111561131457611313610cd1565b5b61131e8254611115565b611329828285611265565b600060209050601f83116001811461135c576000841561134a578287015190505b61135485826112d6565b8655506113bc565b601f19841661136a86611146565b60005b828110156113925784890151825560018201915060208501945060208101905061136d565b868310156113af57848901516113ab601f8916826112b8565b8355505b6001600288020188555050505b505050505050565b600060c0820190506113d96000830189610eed565b81810360208301526113eb8188610fe6565b90506113fa6040830187610eed565b818103606083015261140c8186610fe6565b905061141b6080830185611053565b61142860a0830184610c78565b979650505050505050565b7f4e487b7100000000000000000000000000000000000000000000000000000000600052601160045260246000fd5b600061146d82610dfc565b915061147883610dfc565b92508282019050808211156114905761148f611433565b5b9291505056fea26469706673582212208ba3dfc60c733f3d89be24ed42688e82afdaaef321c5c45c39babb311cc11a0364736f6c63430008120033",
  "immutableReferences": {},
  "source": "// SPDX-License-Identifier: MIT\r\npragma solidity ^0.8.18;\r\n\r\ncontract CrowdFunding {\r\n    enum FundingStatus {Ended, Ongoing}\r\n    \r\n    string webName;\r\n    uint fundsCount;\r\n    FundingStatus currentFundStatus;\r\n    address public owner;\r\n    uint public fundsEnded;\r\n    uint public fundsOngoing;\r\n\r\n    // Constructor code is only run when the contract is created\r\n    constructor() {\r\n        fundsCount=0;\r\n        currentFundStatus = FundingStatus.Ongoing;\r\n        webName = \"CrowdFunding\";\r\n        owner = msg.sender;\r\n    }\r\n\r\n    //function that sets the reading status to Sold.  \r\n    function setFundSold() public {\r\n        currentFundStatus = FundingStatus.Ended;\r\n    }\r\n        \r\n    function getFundName() public view returns(string memory){\r\n        return webName;\r\n    }\r\n\r\n    //a function to retrieve the current availability of the fund.\r\n    function getFundStatus() public view returns(FundingStatus) {\r\n        return currentFundStatus;\r\n    }\r\n    // Declaring a structure fundDetails\r\n    struct FundDetails {\r\n        uint fundId;\r\n        string name;\r\n        string picName;\r\n        uint price;\r\n        string desc;\r\n        address payable ownerId;\r\n        FundingStatus status;\r\n   }\r\n\r\n    // Declaring a structure ownerDetails\r\n   struct  ownerDetails {\r\n        address ownerId;\r\n        string firstName;\r\n        string lastName;\r\n        string mobileNo;\r\n        string email;\r\n    }    \r\n\r\n    //FundDetails[] public listOfFunds;\r\n    mapping (uint => FundDetails) public listOfFunds;\r\n\r\n    //create the event to add Fund\r\n    event FundCreated(\r\n        uint fundId,\r\n        string name,\r\n        string picName,\r\n        uint price,\r\n        string desc,\r\n        address payable ownerId,\r\n        FundingStatus status\r\n    );\r\n\r\n    //Write a function addFund with the relevant function parameters\r\n    function addFunds( string memory _name, string memory _picName,\r\n        uint _price, string memory _desc) public {\r\n        incrementFundCount();\r\n        listOfFunds[fundsCount] = FundDetails(fundsCount, _name, _picName, _price, _desc, payable(msg.sender), FundingStatus.Ongoing);\r\n        //emit the event to addFund \r\n        emit FundCreated(fundsCount, _name, _picName, _price, _desc, payable(msg.sender), FundingStatus.Ongoing);\r\n    }\r\n\r\n    function incrementFundCount() internal {\r\n        fundsCount += 1;\r\n    }\r\n    //Write a function getNoOfFunds to obtain the fundsCount\r\n    function getNoOfFunds() public view returns (uint) {\r\n        return fundsCount;\r\n    }\r\n\r\n    //create the event to purchase the Fund\r\n    event FundPurchased(\r\n        uint id,\r\n        string name,\r\n        uint price,\r\n        string desc,\r\n        address payable owner,\r\n        FundingStatus status\r\n    );\r\n\r\n    //add a function to purchase fund with the fund id\r\n    function purchaseFund(uint _id) public payable {\r\n        // Fetch the product\r\n        FundDetails memory fundsInfo = listOfFunds[_id];\r\n        // Fetch the owner\r\n        address payable seller = fundsInfo.ownerId;\r\n        // Make sure the product has a valid id\r\n        require(fundsInfo.fundId > 0 && fundsInfo.fundId <= fundsCount);\r\n        // Require that there is enough Ether in the transaction\r\n        require(msg.value >= fundsInfo.price);\r\n        // Require that the product has not been purchased already\r\n        require(fundsInfo.status == FundingStatus.Ongoing);\r\n        // Require that the buyer is not the seller\r\n        require(seller != msg.sender);\r\n        // Transfer ownership to the buyer\r\n        fundsInfo.ownerId = payable(msg.sender);\r\n        // Mark as purchased\r\n        fundsInfo.status = FundingStatus.Ended;\r\n        // Update the product\r\n        listOfFunds[_id] = fundsInfo;\r\n        // Pay the seller by sending them Ether\r\n        payable(seller).transfer(msg.value);\r\n        // Trigger an event\r\n        emit FundPurchased(fundsCount, fundsInfo.name, fundsInfo.price, fundsInfo.desc, payable(msg.sender), FundingStatus.Ended);\r\n    }\r\n\r\n}\r\n",
  "sourcePath": "C:\\FYP Project\\2024FYP\\CrowdFunding\\contracts\\CrowdFunding.sol",
  "compiler": {
    "name": "solc",
    "version": "0.8.18+commit.87f61d96.Emscripten.clang"
  },
  "schemaVersion": "3.4.16",
  "updatedAt": "2024-06-11T06:58:03.896Z",
  "networkType": "ethereum",
  "devdoc": {
    "kind": "dev",
    "methods": {},
    "version": 1
  },
  "userdoc": {
    "kind": "user",
    "methods": {},
    "version": 1
  }
}