{
  "contractName": "CrowdFunding",
  "abi": [
    {
      "inputs": [],
      "stateMutability": "nonpayable",
      "type": "constructor"
    },
    {
      "anonymous": false,
      "inputs": [
        {
          "indexed": false,
          "internalType": "uint256",
          "name": "fundId",
          "type": "uint256"
        },
        {
          "indexed": false,
          "internalType": "string",
          "name": "name",
          "type": "string"
        },
        {
          "indexed": false,
          "internalType": "string",
          "name": "picName",
          "type": "string"
        },
        {
          "indexed": false,
          "internalType": "uint256",
          "name": "price",
          "type": "uint256"
        },
        {
          "indexed": false,
          "internalType": "uint256",
          "name": "goal",
          "type": "uint256"
        },
        {
          "indexed": false,
          "internalType": "uint256",
          "name": "donated",
          "type": "uint256"
        },
        {
          "indexed": false,
          "internalType": "string",
          "name": "desc",
          "type": "string"
        },
        {
          "indexed": false,
          "internalType": "address payable",
          "name": "ownerId",
          "type": "address"
        },
        {
          "indexed": false,
          "internalType": "enum CrowdFunding.FundingStatus",
          "name": "status",
          "type": "uint8"
        }
      ],
      "name": "FundCreated",
      "type": "event"
    },
    {
      "anonymous": false,
      "inputs": [
        {
          "indexed": false,
          "internalType": "uint256",
          "name": "id",
          "type": "uint256"
        },
        {
          "indexed": false,
          "internalType": "string",
          "name": "name",
          "type": "string"
        },
        {
          "indexed": false,
          "internalType": "uint256",
          "name": "price",
          "type": "uint256"
        },
        {
          "indexed": false,
          "internalType": "uint256",
          "name": "goal",
          "type": "uint256"
        },
        {
          "indexed": false,
          "internalType": "uint256",
          "name": "donated",
          "type": "uint256"
        },
        {
          "indexed": false,
          "internalType": "string",
          "name": "desc",
          "type": "string"
        },
        {
          "indexed": false,
          "internalType": "address payable",
          "name": "owner",
          "type": "address"
        },
        {
          "indexed": false,
          "internalType": "enum CrowdFunding.FundingStatus",
          "name": "status",
          "type": "uint8"
        }
      ],
      "name": "FundPurchased",
      "type": "event"
    },
    {
      "inputs": [],
      "name": "fundsEnded",
      "outputs": [
        {
          "internalType": "uint256",
          "name": "",
          "type": "uint256"
        }
      ],
      "stateMutability": "view",
      "type": "function",
      "constant": true
    },
    {
      "inputs": [],
      "name": "fundsOngoing",
      "outputs": [
        {
          "internalType": "uint256",
          "name": "",
          "type": "uint256"
        }
      ],
      "stateMutability": "view",
      "type": "function",
      "constant": true
    },
    {
      "inputs": [
        {
          "internalType": "uint256",
          "name": "",
          "type": "uint256"
        }
      ],
      "name": "listOfFunds",
      "outputs": [
        {
          "internalType": "uint256",
          "name": "fundId",
          "type": "uint256"
        },
        {
          "internalType": "string",
          "name": "name",
          "type": "string"
        },
        {
          "internalType": "string",
          "name": "picName",
          "type": "string"
        },
        {
          "internalType": "uint256",
          "name": "price",
          "type": "uint256"
        },
        {
          "internalType": "uint256",
          "name": "goal",
          "type": "uint256"
        },
        {
          "internalType": "uint256",
          "name": "donated",
          "type": "uint256"
        },
        {
          "internalType": "string",
          "name": "desc",
          "type": "string"
        },
        {
          "internalType": "address payable",
          "name": "ownerId",
          "type": "address"
        },
        {
          "internalType": "enum CrowdFunding.FundingStatus",
          "name": "status",
          "type": "uint8"
        }
      ],
      "stateMutability": "view",
      "type": "function",
      "constant": true
    },
    {
      "inputs": [],
      "name": "owner",
      "outputs": [
        {
          "internalType": "address",
          "name": "",
          "type": "address"
        }
      ],
      "stateMutability": "view",
      "type": "function",
      "constant": true
    },
    {
      "inputs": [],
      "name": "setFundSold",
      "outputs": [],
      "stateMutability": "nonpayable",
      "type": "function"
    },
    {
      "inputs": [],
      "name": "getFundName",
      "outputs": [
        {
          "internalType": "string",
          "name": "",
          "type": "string"
        }
      ],
      "stateMutability": "view",
      "type": "function",
      "constant": true
    },
    {
      "inputs": [],
      "name": "getFundStatus",
      "outputs": [
        {
          "internalType": "enum CrowdFunding.FundingStatus",
          "name": "",
          "type": "uint8"
        }
      ],
      "stateMutability": "view",
      "type": "function",
      "constant": true
    },
    {
      "inputs": [
        {
          "internalType": "string",
          "name": "_name",
          "type": "string"
        },
        {
          "internalType": "string",
          "name": "_picName",
          "type": "string"
        },
        {
          "internalType": "uint256",
          "name": "_price",
          "type": "uint256"
        },
        {
          "internalType": "uint256",
          "name": "_goal",
          "type": "uint256"
        },
        {
          "internalType": "uint256",
          "name": "_donated",
          "type": "uint256"
        },
        {
          "internalType": "string",
          "name": "_desc",
          "type": "string"
        }
      ],
      "name": "addFunds",
      "outputs": [],
      "stateMutability": "nonpayable",
      "type": "function"
    },
    {
      "inputs": [],
      "name": "getNoOfFunds",
      "outputs": [
        {
          "internalType": "uint256",
          "name": "",
          "type": "uint256"
        }
      ],
      "stateMutability": "view",
      "type": "function",
      "constant": true
    },
    {
      "inputs": [
        {
          "internalType": "uint256",
          "name": "_id",
          "type": "uint256"
        }
      ],
      "name": "purchaseFund",
      "outputs": [],
      "stateMutability": "payable",
      "type": "function",
      "payable": true
    }
  ],
  "bytecode": "0x60806040523480156200001157600080fd5b5060006001819055506001600260006101000a81548160ff02191690836001811115620000435762000042620000d6565b5b02179055506040518060400160405280600c81526020017f43726f776446756e64696e670000000000000000000000000000000000000000815250600090816200008e91906200037f565b5033600260016101000a81548173ffffffffffffffffffffffffffffffffffffffff021916908373ffffffffffffffffffffffffffffffffffffffff16021790555062000466565b7f4e487b7100000000000000000000000000000000000000000000000000000000600052602160045260246000fd5b600081519050919050565b7f4e487b7100000000000000000000000000000000000000000000000000000000600052604160045260246000fd5b7f4e487b7100000000000000000000000000000000000000000000000000000000600052602260045260246000fd5b600060028204905060018216806200018757607f821691505b6020821081036200019d576200019c6200013f565b5b50919050565b60008190508160005260206000209050919050565b60006020601f8301049050919050565b600082821b905092915050565b600060088302620002077fffffffffffffffffffffffffffffffffffffffffffffffffffffffffffffffff82620001c8565b620002138683620001c8565b95508019841693508086168417925050509392505050565b6000819050919050565b6000819050919050565b6000620002606200025a62000254846200022b565b62000235565b6200022b565b9050919050565b6000819050919050565b6200027c836200023f565b620002946200028b8262000267565b848454620001d5565b825550505050565b600090565b620002ab6200029c565b620002b881848462000271565b505050565b5b81811015620002e057620002d4600082620002a1565b600181019050620002be565b5050565b601f8211156200032f57620002f981620001a3565b6200030484620001b8565b8101602085101562000314578190505b6200032c6200032385620001b8565b830182620002bd565b50505b505050565b600082821c905092915050565b6000620003546000198460080262000334565b1980831691505092915050565b60006200036f838362000341565b9150826002028217905092915050565b6200038a8262000105565b67ffffffffffffffff811115620003a657620003a562000110565b5b620003b282546200016e565b620003bf828285620002e4565b600060209050601f831160018114620003f75760008415620003e2578287015190505b620003ee858262000361565b8655506200045e565b601f1984166200040786620001a3565b60005b8281101562000431578489015182556001820191506020850194506020810190506200040a565b868310156200045157848901516200044d601f89168262000341565b8355505b6001600288020188555050505b505050505050565b61155d80620004766000396000f3fe6080604052600436106100915760003560e01c80638da5cb5b116100595780638da5cb5b146101485780638dc7868814610173578063a87fe87e1461019e578063cd313ad9146101c9578063dccd62f51461020e57610091565b806307eac9bc14610096578063221f1647146100c1578063479777c4146100ec57806386403e5814610108578063868bc02714610131575b600080fd5b3480156100a257600080fd5b506100ab610239565b6040516100b89190610a83565b60405180910390f35b3480156100cd57600080fd5b506100d6610250565b6040516100e39190610ab7565b60405180910390f35b61010660048036038101906101019190610b12565b61025a565b005b34801561011457600080fd5b5061012f600480360381019061012a9190610c85565b61052f565b005b34801561013d57600080fd5b506101466106ed565b005b34801561015457600080fd5b5061015d61071a565b60405161016a9190610da7565b60405180910390f35b34801561017f57600080fd5b50610188610740565b6040516101959190610ab7565b60405180910390f35b3480156101aa57600080fd5b506101b3610746565b6040516101c09190610e41565b60405180910390f35b3480156101d557600080fd5b506101f060048036038101906101eb9190610b12565b6107d8565b60405161020599989796959493929190610e84565b60405180910390f35b34801561021a57600080fd5b506102236109eb565b6040516102309190610ab7565b60405180910390f35b6000600260009054906101000a900460ff16905090565b6000600154905090565b600060056000838152602001908152602001600020905060008160070160009054906101000a900473ffffffffffffffffffffffffffffffffffffffff169050600082600001541180156102b45750600154826000015411155b6102f3576040517f08c379a00000000000000000000000000000000000000000000000000000000081526004016102ea90610f72565b60405180910390fd5b816003015434101561033a576040517f08c379a000000000000000000000000000000000000000000000000000000000815260040161033190610fde565b60405180910390fd5b60018081111561034d5761034c610a0c565b5b8260070160149054906101000a900460ff16600181111561037157610370610a0c565b5b146103b1576040517f08c379a00000000000000000000000000000000000000000000000000000000081526004016103a89061104a565b60405180910390fd5b3373ffffffffffffffffffffffffffffffffffffffff168173ffffffffffffffffffffffffffffffffffffffff160361041f576040517f08c379a0000000000000000000000000000000000000000000000000000000008152600401610416906110b6565b60405180910390fd5b348260050160008282546104339190611105565b925050819055508073ffffffffffffffffffffffffffffffffffffffff166108fc349081150290604051600060405180830381858888f19350505050158015610480573d6000803e3d6000fd5b5081600401548260050154106104be5760008260070160146101000a81548160ff021916908360018111156104b8576104b7610a0c565b5b02179055505b7fd8fd63dd7ab6a9f3cf1b383a28574d631400197e4263ae12e6a8e62724b157aa82600001548360010184600301548560040154866005015487600601338960070160149054906101000a900460ff16604051610522989796959493929190611232565b60405180910390a1505050565b6105376109f1565b60405180610120016040528060015481526020018781526020018681526020018581526020018481526020018381526020018281526020013373ffffffffffffffffffffffffffffffffffffffff16815260200160018081111561059e5761059d610a0c565b5b8152506005600060015481526020019081526020016000206000820151816000015560208201518160010190816105d59190611455565b5060408201518160020190816105eb9190611455565b50606082015181600301556080820151816004015560a0820151816005015560c082015181600601908161061f9190611455565b5060e08201518160070160006101000a81548173ffffffffffffffffffffffffffffffffffffffff021916908373ffffffffffffffffffffffffffffffffffffffff1602179055506101008201518160070160146101000a81548160ff0219169083600181111561069357610692610a0c565b5b02179055509050507f906f57af102eda5f20191436827c2ecfee48af4633b797d2c3308d1efb706c956001548787878787873360016040516106dd99989796959493929190610e84565b60405180910390a1505050505050565b6000600260006101000a81548160ff0219169083600181111561071357610712610a0c565b5b0217905550565b600260019054906101000a900473ffffffffffffffffffffffffffffffffffffffff1681565b60045481565b60606000805461075590611168565b80601f016020809104026020016040519081016040528092919081815260200182805461078190611168565b80156107ce5780601f106107a3576101008083540402835291602001916107ce565b820191906000526020600020905b8154815290600101906020018083116107b157829003601f168201915b5050505050905090565b600560205280600052604060002060009150905080600001549080600101805461080190611168565b80601f016020809104026020016040519081016040528092919081815260200182805461082d90611168565b801561087a5780601f1061084f5761010080835404028352916020019161087a565b820191906000526020600020905b81548152906001019060200180831161085d57829003601f168201915b50505050509080600201805461088f90611168565b80601f01602080910402602001604051908101604052809291908181526020018280546108bb90611168565b80156109085780601f106108dd57610100808354040283529160200191610908565b820191906000526020600020905b8154815290600101906020018083116108eb57829003601f168201915b50505050509080600301549080600401549080600501549080600601805461092f90611168565b80601f016020809104026020016040519081016040528092919081815260200182805461095b90611168565b80156109a85780601f1061097d576101008083540402835291602001916109a8565b820191906000526020600020905b81548152906001019060200180831161098b57829003601f168201915b5050505050908060070160009054906101000a900473ffffffffffffffffffffffffffffffffffffffff16908060070160149054906101000a900460ff16905089565b60035481565b6001806000828254610a039190611105565b92505081905550565b7f4e487b7100000000000000000000000000000000000000000000000000000000600052602160045260246000fd5b60028110610a4c57610a4b610a0c565b5b50565b6000819050610a5d82610a3b565b919050565b6000610a6d82610a4f565b9050919050565b610a7d81610a62565b82525050565b6000602082019050610a986000830184610a74565b92915050565b6000819050919050565b610ab181610a9e565b82525050565b6000602082019050610acc6000830184610aa8565b92915050565b6000604051905090565b600080fd5b600080fd5b610aef81610a9e565b8114610afa57600080fd5b50565b600081359050610b0c81610ae6565b92915050565b600060208284031215610b2857610b27610adc565b5b6000610b3684828501610afd565b91505092915050565b600080fd5b600080fd5b6000601f19601f8301169050919050565b7f4e487b7100000000000000000000000000000000000000000000000000000000600052604160045260246000fd5b610b9282610b49565b810181811067ffffffffffffffff82111715610bb157610bb0610b5a565b5b80604052505050565b6000610bc4610ad2565b9050610bd08282610b89565b919050565b600067ffffffffffffffff821115610bf057610bef610b5a565b5b610bf982610b49565b9050602081019050919050565b82818337600083830152505050565b6000610c28610c2384610bd5565b610bba565b905082815260208101848484011115610c4457610c43610b44565b5b610c4f848285610c06565b509392505050565b600082601f830112610c6c57610c6b610b3f565b5b8135610c7c848260208601610c15565b91505092915050565b60008060008060008060c08789031215610ca257610ca1610adc565b5b600087013567ffffffffffffffff811115610cc057610cbf610ae1565b5b610ccc89828a01610c57565b965050602087013567ffffffffffffffff811115610ced57610cec610ae1565b5b610cf989828a01610c57565b9550506040610d0a89828a01610afd565b9450506060610d1b89828a01610afd565b9350506080610d2c89828a01610afd565b92505060a087013567ffffffffffffffff811115610d4d57610d4c610ae1565b5b610d5989828a01610c57565b9150509295509295509295565b600073ffffffffffffffffffffffffffffffffffffffff82169050919050565b6000610d9182610d66565b9050919050565b610da181610d86565b82525050565b6000602082019050610dbc6000830184610d98565b92915050565b600081519050919050565b600082825260208201905092915050565b60005b83811015610dfc578082015181840152602081019050610de1565b60008484015250505050565b6000610e1382610dc2565b610e1d8185610dcd565b9350610e2d818560208601610dde565b610e3681610b49565b840191505092915050565b60006020820190508181036000830152610e5b8184610e08565b905092915050565b6000610e6e82610d66565b9050919050565b610e7e81610e63565b82525050565b600061012082019050610e9a600083018c610aa8565b8181036020830152610eac818b610e08565b90508181036040830152610ec0818a610e08565b9050610ecf6060830189610aa8565b610edc6080830188610aa8565b610ee960a0830187610aa8565b81810360c0830152610efb8186610e08565b9050610f0a60e0830185610e75565b610f18610100830184610a74565b9a9950505050505050505050565b7f496e76616c69642066756e642049440000000000000000000000000000000000600082015250565b6000610f5c600f83610dcd565b9150610f6782610f26565b602082019050919050565b60006020820190508181036000830152610f8b81610f4f565b9050919050565b7f4e6f7420656e6f7567682045746865722073656e740000000000000000000000600082015250565b6000610fc8601583610dcd565b9150610fd382610f92565b602082019050919050565b60006020820190508181036000830152610ff781610fbb565b9050919050565b7f46756e6420616c72656164792070757263686173656400000000000000000000600082015250565b6000611034601683610dcd565b915061103f82610ffe565b602082019050919050565b6000602082019050818103600083015261106381611027565b9050919050565b7f53656c6c65722063616e6e6f7420627579206f776e2066756e64000000000000600082015250565b60006110a0601a83610dcd565b91506110ab8261106a565b602082019050919050565b600060208201905081810360008301526110cf81611093565b9050919050565b7f4e487b7100000000000000000000000000000000000000000000000000000000600052601160045260246000fd5b600061111082610a9e565b915061111b83610a9e565b9250828201905080821115611133576111326110d6565b5b92915050565b7f4e487b7100000000000000000000000000000000000000000000000000000000600052602260045260246000fd5b6000600282049050600182168061118057607f821691505b60208210810361119357611192611139565b5b50919050565b60008190508160005260206000209050919050565b600081546111bb81611168565b6111c58186610dcd565b945060018216600081146111e057600181146111f657611229565b60ff198316865281151560200286019350611229565b6111ff85611199565b60005b8381101561122157815481890152600182019150602081019050611202565b808801955050505b50505092915050565b600061010082019050611248600083018b610aa8565b818103602083015261125a818a6111ae565b90506112696040830189610aa8565b6112766060830188610aa8565b6112836080830187610aa8565b81810360a083015261129581866111ae565b90506112a460c0830185610e75565b6112b160e0830184610a74565b9998505050505050505050565b60006020601f8301049050919050565b600082821b905092915050565b60006008830261130b7fffffffffffffffffffffffffffffffffffffffffffffffffffffffffffffffff826112ce565b61131586836112ce565b95508019841693508086168417925050509392505050565b6000819050919050565b600061135261134d61134884610a9e565b61132d565b610a9e565b9050919050565b6000819050919050565b61136c83611337565b61138061137882611359565b8484546112db565b825550505050565b600090565b611395611388565b6113a0818484611363565b505050565b5b818110156113c4576113b960008261138d565b6001810190506113a6565b5050565b601f821115611409576113da81611199565b6113e3846112be565b810160208510156113f2578190505b6114066113fe856112be565b8301826113a5565b50505b505050565b600082821c905092915050565b600061142c6000198460080261140e565b1980831691505092915050565b6000611445838361141b565b9150826002028217905092915050565b61145e82610dc2565b67ffffffffffffffff81111561147757611476610b5a565b5b6114818254611168565b61148c8282856113c8565b600060209050601f8311600181146114bf57600084156114ad578287015190505b6114b78582611439565b86555061151f565b601f1984166114cd86611199565b60005b828110156114f5578489015182556001820191506020850194506020810190506114d0565b86831015611512578489015161150e601f89168261141b565b8355505b6001600288020188555050505b50505050505056fea26469706673582212201d93f5169c25aa868678bd2dd2bc7c2ef96ec520cdcc1ab7b703eb67383c220664736f6c63430008120033",
  "immutableReferences": {},
  "source": "// SPDX-License-Identifier: MIT\r\npragma solidity ^0.8.18;\r\n\r\ncontract CrowdFunding {\r\n    enum FundingStatus {Ended, Ongoing}\r\n    \r\n    string webName;\r\n    uint fundsCount;\r\n    FundingStatus currentFundStatus;\r\n    address public owner;\r\n    uint public fundsEnded;\r\n    uint public fundsOngoing;\r\n\r\n    // Constructor code is only run when the contract is created\r\n    constructor() {\r\n        fundsCount=0;\r\n        currentFundStatus = FundingStatus.Ongoing;\r\n        webName = \"CrowdFunding\";\r\n        owner = msg.sender;\r\n    }\r\n\r\n    //function that sets the reading status to Sold.  \r\n    function setFundSold() public {\r\n        currentFundStatus = FundingStatus.Ended;\r\n    }\r\n        \r\n    function getFundName() public view returns(string memory){\r\n        return webName;\r\n    }\r\n\r\n    //a function to retrieve the current availability of the fund.\r\n    function getFundStatus() public view returns(FundingStatus) {\r\n        return currentFundStatus;\r\n    }\r\n    // Declaring a structure fundDetails\r\n    struct FundDetails {\r\n        uint fundId;\r\n        string name;\r\n        string picName;\r\n        uint price;\r\n        uint goal;\r\n        uint donated;\r\n        string desc;\r\n        address payable ownerId;\r\n        FundingStatus status;\r\n   }\r\n\r\n    // Declaring a structure ownerDetails\r\n   struct  ownerDetails {\r\n        address ownerId;\r\n        string firstName;\r\n        string lastName;\r\n        string mobileNo;\r\n        string email;\r\n    }    \r\n\r\n    //FundDetails[] public listOfFunds;\r\n    mapping (uint => FundDetails) public listOfFunds;\r\n\r\n    //create the event to add Fund\r\n    event FundCreated(\r\n        uint fundId,\r\n        string name,\r\n        string picName,\r\n        uint price,\r\n        uint goal,\r\n        uint donated,\r\n        string desc,\r\n        address payable ownerId,\r\n        FundingStatus status\r\n    );\r\n\r\n    //Write a function addFund with the relevant function parameters\r\n    function addFunds( string memory _name, string memory _picName,\r\n        uint _price, uint _goal, uint _donated, string memory _desc) public {\r\n        incrementFundCount();\r\n        listOfFunds[fundsCount] = FundDetails(fundsCount, _name, _picName, _price, _goal, _donated, _desc, payable(msg.sender), FundingStatus.Ongoing);\r\n        //emit the event to addFund \r\n        emit FundCreated(fundsCount, _name, _picName, _price, _goal, _donated, _desc, payable(msg.sender), FundingStatus.Ongoing);\r\n    }\r\n\r\n    function incrementFundCount() internal {\r\n        fundsCount += 1;\r\n    }\r\n    //Write a function getNoOfFunds to obtain the fundsCount\r\n    function getNoOfFunds() public view returns (uint) {\r\n        return fundsCount;\r\n    }\r\n\r\n    //create the event to purchase the Fund\r\n    event FundPurchased(\r\n        uint id,\r\n        string name,\r\n        uint price,\r\n        uint goal,\r\n        uint donated,\r\n        string desc,\r\n        address payable owner,\r\n        FundingStatus status\r\n    );\r\n\r\n    //add a function to purchase fund with the fund id\r\n    function purchaseFund(uint _id) public payable {\r\n    // Fetch the product\r\n    FundDetails storage fundsInfo = listOfFunds[_id];\r\n    address payable seller = fundsInfo.ownerId;\r\n    \r\n    // Make sure the product has a valid id\r\n    require(fundsInfo.fundId > 0 && fundsInfo.fundId <= fundsCount, \"Invalid fund ID\");\r\n    // Require that there is enough Ether in the transaction\r\n    require(msg.value >= fundsInfo.price, \"Not enough Ether sent\");\r\n    // Require that the product has not been purchased already\r\n    require(fundsInfo.status == FundingStatus.Ongoing, \"Fund already purchased\");\r\n    // Require that the buyer is not the seller\r\n    require(seller != msg.sender, \"Seller cannot buy own fund\");\r\n    \r\n    // Update the donated amount\r\n    fundsInfo.donated += msg.value;\r\n    \r\n    // Pay the seller by sending them Ether\r\n    payable(seller).transfer(msg.value);\r\n    \r\n    // Check if the goal is reached or exceeded and update the status\r\n    if (fundsInfo.donated >= fundsInfo.goal) {\r\n        fundsInfo.status = FundingStatus.Ended;\r\n    }\r\n    \r\n    // Emit the event with the updated status\r\n    emit FundPurchased(fundsInfo.fundId, fundsInfo.name, fundsInfo.price, fundsInfo.goal, fundsInfo.donated, fundsInfo.desc, payable(msg.sender), fundsInfo.status);\r\n}\r\n\r\n\r\n}\r\n",
  "sourcePath": "C:\\Users\\22014463\\Desktop\\FYP\\CrowdFunding\\contracts\\CrowdFunding.sol",
  "compiler": {
    "name": "solc",
    "version": "0.8.18+commit.87f61d96.Emscripten.clang"
  },
  "schemaVersion": "3.4.16",
  "updatedAt": "2024-06-25T04:52:53.107Z",
  "networkType": "ethereum",
  "devdoc": {
    "kind": "dev",
    "methods": {},
    "version": 1
  },
  "userdoc": {
    "kind": "user",
    "methods": {},
    "version": 1
  }
}