{
  "contractName": "CrowdFunding",
  "abi": [
    {
      "inputs": [],
      "stateMutability": "nonpayable",
      "type": "constructor"
    },
    {
      "anonymous": false,
      "inputs": [
        {
          "indexed": false,
          "internalType": "uint256",
          "name": "fundId",
          "type": "uint256"
        },
        {
          "indexed": false,
          "internalType": "string",
          "name": "name",
          "type": "string"
        },
        {
          "indexed": false,
          "internalType": "string",
          "name": "picName",
          "type": "string"
        },
        {
          "indexed": false,
          "internalType": "uint256",
          "name": "goal",
          "type": "uint256"
        },
        {
          "indexed": false,
          "internalType": "uint256",
          "name": "donated",
          "type": "uint256"
        },
        {
          "indexed": false,
          "internalType": "string",
          "name": "desc",
          "type": "string"
        },
        {
          "indexed": false,
          "internalType": "address payable",
          "name": "ownerId",
          "type": "address"
        },
        {
          "indexed": false,
          "internalType": "enum CrowdFunding.FundingStatus",
          "name": "status",
          "type": "uint8"
        }
      ],
      "name": "FundCreated",
      "type": "event"
    },
    {
      "anonymous": false,
      "inputs": [
        {
          "indexed": false,
          "internalType": "uint256",
          "name": "id",
          "type": "uint256"
        },
        {
          "indexed": false,
          "internalType": "string",
          "name": "name",
          "type": "string"
        },
        {
          "indexed": false,
          "internalType": "uint256",
          "name": "amnt",
          "type": "uint256"
        },
        {
          "indexed": false,
          "internalType": "uint256",
          "name": "goal",
          "type": "uint256"
        },
        {
          "indexed": false,
          "internalType": "uint256",
          "name": "donated",
          "type": "uint256"
        },
        {
          "indexed": false,
          "internalType": "string",
          "name": "desc",
          "type": "string"
        },
        {
          "indexed": false,
          "internalType": "address payable",
          "name": "owner",
          "type": "address"
        },
        {
          "indexed": false,
          "internalType": "enum CrowdFunding.FundingStatus",
          "name": "status",
          "type": "uint8"
        }
      ],
      "name": "FundDonated",
      "type": "event"
    },
    {
      "inputs": [
        {
          "internalType": "uint256",
          "name": "",
          "type": "uint256"
        },
        {
          "internalType": "uint256",
          "name": "",
          "type": "uint256"
        }
      ],
      "name": "fundDonations",
      "outputs": [
        {
          "internalType": "address",
          "name": "donor",
          "type": "address"
        },
        {
          "internalType": "uint256",
          "name": "amount",
          "type": "uint256"
        }
      ],
      "stateMutability": "view",
      "type": "function",
      "constant": true
    },
    {
      "inputs": [],
      "name": "fundsEnded",
      "outputs": [
        {
          "internalType": "uint256",
          "name": "",
          "type": "uint256"
        }
      ],
      "stateMutability": "view",
      "type": "function",
      "constant": true
    },
    {
      "inputs": [],
      "name": "fundsOngoing",
      "outputs": [
        {
          "internalType": "uint256",
          "name": "",
          "type": "uint256"
        }
      ],
      "stateMutability": "view",
      "type": "function",
      "constant": true
    },
    {
      "inputs": [
        {
          "internalType": "uint256",
          "name": "",
          "type": "uint256"
        }
      ],
      "name": "listOfFunds",
      "outputs": [
        {
          "internalType": "uint256",
          "name": "fundId",
          "type": "uint256"
        },
        {
          "internalType": "string",
          "name": "name",
          "type": "string"
        },
        {
          "internalType": "string",
          "name": "picName",
          "type": "string"
        },
        {
          "internalType": "uint256",
          "name": "goal",
          "type": "uint256"
        },
        {
          "internalType": "uint256",
          "name": "donated",
          "type": "uint256"
        },
        {
          "internalType": "string",
          "name": "desc",
          "type": "string"
        },
        {
          "internalType": "address payable",
          "name": "ownerId",
          "type": "address"
        },
        {
          "internalType": "enum CrowdFunding.FundingStatus",
          "name": "status",
          "type": "uint8"
        }
      ],
      "stateMutability": "view",
      "type": "function",
      "constant": true
    },
    {
      "inputs": [],
      "name": "owner",
      "outputs": [
        {
          "internalType": "address",
          "name": "",
          "type": "address"
        }
      ],
      "stateMutability": "view",
      "type": "function",
      "constant": true
    },
    {
      "inputs": [
        {
          "internalType": "address",
          "name": "",
          "type": "address"
        }
      ],
      "name": "userDonations",
      "outputs": [
        {
          "internalType": "uint256",
          "name": "",
          "type": "uint256"
        }
      ],
      "stateMutability": "view",
      "type": "function",
      "constant": true
    },
    {
      "inputs": [],
      "name": "setFundSold",
      "outputs": [],
      "stateMutability": "nonpayable",
      "type": "function"
    },
    {
      "inputs": [],
      "name": "getFundName",
      "outputs": [
        {
          "internalType": "string",
          "name": "",
          "type": "string"
        }
      ],
      "stateMutability": "view",
      "type": "function",
      "constant": true
    },
    {
      "inputs": [],
      "name": "getFundStatus",
      "outputs": [
        {
          "internalType": "enum CrowdFunding.FundingStatus",
          "name": "",
          "type": "uint8"
        }
      ],
      "stateMutability": "view",
      "type": "function",
      "constant": true
    },
    {
      "inputs": [
        {
          "internalType": "string",
          "name": "_name",
          "type": "string"
        },
        {
          "internalType": "string",
          "name": "_picName",
          "type": "string"
        },
        {
          "internalType": "uint256",
          "name": "_goal",
          "type": "uint256"
        },
        {
          "internalType": "uint256",
          "name": "_donated",
          "type": "uint256"
        },
        {
          "internalType": "string",
          "name": "_desc",
          "type": "string"
        }
      ],
      "name": "addFunds",
      "outputs": [],
      "stateMutability": "nonpayable",
      "type": "function"
    },
    {
      "inputs": [],
      "name": "getNoOfFunds",
      "outputs": [
        {
          "internalType": "uint256",
          "name": "",
          "type": "uint256"
        }
      ],
      "stateMutability": "view",
      "type": "function",
      "constant": true
    },
    {
      "inputs": [
        {
          "internalType": "uint256",
          "name": "_id",
          "type": "uint256"
        }
      ],
      "name": "donateFund",
      "outputs": [],
      "stateMutability": "payable",
      "type": "function",
      "payable": true
    },
    {
      "inputs": [
        {
          "internalType": "uint256",
          "name": "_id",
          "type": "uint256"
        }
      ],
      "name": "getDonationHistory",
      "outputs": [
        {
          "components": [
            {
              "internalType": "address",
              "name": "donor",
              "type": "address"
            },
            {
              "internalType": "uint256",
              "name": "amount",
              "type": "uint256"
            }
          ],
          "internalType": "struct CrowdFunding.Donation[]",
          "name": "",
          "type": "tuple[]"
        }
      ],
      "stateMutability": "view",
      "type": "function",
      "constant": true
    },
    {
      "inputs": [
        {
          "internalType": "address",
          "name": "_user",
          "type": "address"
        }
      ],
      "name": "getUserRating",
      "outputs": [
        {
          "internalType": "uint256",
          "name": "",
          "type": "uint256"
        }
      ],
      "stateMutability": "view",
      "type": "function",
      "constant": true
    },
    {
      "inputs": [
        {
          "internalType": "uint256",
          "name": "_campaignId",
          "type": "uint256"
        }
      ],
      "name": "getCampaignStars",
      "outputs": [
        {
          "internalType": "uint256",
          "name": "",
          "type": "uint256"
        }
      ],
      "stateMutability": "view",
      "type": "function",
      "constant": true
    }
  ],
  "bytecode": "0x60806040523480156200001157600080fd5b5060006001819055506001600260006101000a81548160ff02191690836001811115620000435762000042620000d6565b5b02179055506040518060400160405280600c81526020017f43726f776446756e64696e670000000000000000000000000000000000000000815250600090816200008e91906200037f565b5033600260016101000a81548173ffffffffffffffffffffffffffffffffffffffff021916908373ffffffffffffffffffffffffffffffffffffffff16021790555062000466565b7f4e487b7100000000000000000000000000000000000000000000000000000000600052602160045260246000fd5b600081519050919050565b7f4e487b7100000000000000000000000000000000000000000000000000000000600052604160045260246000fd5b7f4e487b7100000000000000000000000000000000000000000000000000000000600052602260045260246000fd5b600060028204905060018216806200018757607f821691505b6020821081036200019d576200019c6200013f565b5b50919050565b60008190508160005260206000209050919050565b60006020601f8301049050919050565b600082821b905092915050565b600060088302620002077fffffffffffffffffffffffffffffffffffffffffffffffffffffffffffffffff82620001c8565b620002138683620001c8565b95508019841693508086168417925050509392505050565b6000819050919050565b6000819050919050565b6000620002606200025a62000254846200022b565b62000235565b6200022b565b9050919050565b6000819050919050565b6200027c836200023f565b620002946200028b8262000267565b848454620001d5565b825550505050565b600090565b620002ab6200029c565b620002b881848462000271565b505050565b5b81811015620002e057620002d4600082620002a1565b600181019050620002be565b5050565b601f8211156200032f57620002f981620001a3565b6200030484620001b8565b8101602085101562000314578190505b6200032c6200032385620001b8565b830182620002bd565b50505b505050565b600082821c905092915050565b6000620003546000198460080262000334565b1980831691505092915050565b60006200036f838362000341565b9150826002028217905092915050565b6200038a8262000105565b67ffffffffffffffff811115620003a657620003a562000110565b5b620003b282546200016e565b620003bf828285620002e4565b600060209050601f831160018114620003f75760008415620003e2578287015190505b620003ee858262000361565b8655506200045e565b601f1984166200040786620001a3565b60005b8281101562000431578489015182556001820191506020850194506020810190506200040a565b868310156200045157848901516200044d601f89168262000341565b8355505b6001600288020188555050505b505050505050565b611d1980620004766000396000f3fe6080604052600436106100e85760003560e01c8063460168c31161008a578063932b811d11610059578063932b811d146102fe578063a87fe87e14610327578063cd313ad914610352578063dccd62f514610396576100e8565b8063460168c314610254578063868bc027146102915780638da5cb5b146102a85780638dc78688146102d3576100e8565b80630c914722116100c65780630c91472214610192578063221f1647146101ae5780632869a6e6146101d95780632db536ef14610216576100e8565b806307eac9bc146100ed5780630a039fd2146101185780630aa4991d14610155575b600080fd5b3480156100f957600080fd5b506101026103c1565b60405161010f919061104a565b60405180910390f35b34801561012457600080fd5b5061013f600480360381019061013a91906110af565b6103d8565b60405161014c91906110eb565b60405180910390f35b34801561016157600080fd5b5061017c60048036038101906101779190611164565b61046c565b60405161018991906110eb565b60405180910390f35b6101ac60048036038101906101a791906110af565b610484565b005b3480156101ba57600080fd5b506101c3610849565b6040516101d091906110eb565b60405180910390f35b3480156101e557600080fd5b5061020060048036038101906101fb91906110af565b610853565b60405161020d919061128d565b60405180910390f35b34801561022257600080fd5b5061023d600480360381019061023891906112af565b61096a565b60405161024b9291906112fe565b60405180910390f35b34801561026057600080fd5b5061027b60048036038101906102769190611164565b6109cb565b60405161028891906110eb565b60405180910390f35b34801561029d57600080fd5b506102a6610a7f565b005b3480156102b457600080fd5b506102bd610aac565b6040516102ca9190611327565b60405180910390f35b3480156102df57600080fd5b506102e8610ad2565b6040516102f591906110eb565b60405180910390f35b34801561030a57600080fd5b5061032560048036038101906103209190611488565b610ad8565b005b34801561033357600080fd5b5061033c610ca9565b60405161034991906115d6565b60405180910390f35b34801561035e57600080fd5b50610379600480360381019061037491906110af565b610d3b565b60405161038d989796959493929190611619565b60405180910390f35b3480156103a257600080fd5b506103ab610f48565b6040516103b891906110eb565b60405180910390f35b6000600260009054906101000a900460ff16905090565b600080600560008481526020019081526020016000209050600081600301546064836004015461040891906116db565b610412919061174c565b90506064811061042757600592505050610467565b604b811061043a57600492505050610467565b6032811061044d57600392505050610467565b6019811061046057600292505050610467565b6001925050505b919050565b60076020528060005260406000206000915090505481565b600060056000838152602001908152602001600020905060008160070160009054906101000a900473ffffffffffffffffffffffffffffffffffffffff169050600082600001541180156104de5750600154826000015411155b61051d576040517f08c379a0000000000000000000000000000000000000000000000000000000008152600401610514906117c9565b60405180910390fd5b6001808111156105305761052f610fd3565b5b8260070160149054906101000a900460ff16600181111561055457610553610fd3565b5b14610594576040517f08c379a000000000000000000000000000000000000000000000000000000000815260040161058b90611835565b60405180910390fd5b3373ffffffffffffffffffffffffffffffffffffffff168173ffffffffffffffffffffffffffffffffffffffff1603610602576040517f08c379a00000000000000000000000000000000000000000000000000000000081526004016105f9906118a1565b60405180910390fd5b3482600401600082825461061691906118c1565b92505081905550816006013490806001815401808255809150506001900390600052602060002001600090919091909150556006600084815260200190815260200160002060405180604001604052803373ffffffffffffffffffffffffffffffffffffffff16815260200134815250908060018154018082558091505060019003906000526020600020906002020160009091909190915060008201518160000160006101000a81548173ffffffffffffffffffffffffffffffffffffffff021916908373ffffffffffffffffffffffffffffffffffffffff16021790555060208201518160010155505034600760003373ffffffffffffffffffffffffffffffffffffffff1673ffffffffffffffffffffffffffffffffffffffff168152602001908152602001600020600082825461075191906118c1565b925050819055508073ffffffffffffffffffffffffffffffffffffffff166108fc349081150290604051600060405180830381858888f1935050505015801561079e573d6000803e3d6000fd5b5081600301548260040154106107dc5760008260070160146101000a81548160ff021916908360018111156107d6576107d5610fd3565b5b02179055505b7fc1b48f390ed353529c0d7142a32f9ede6fc5885785a7da3a85586f457f0cb427826000015483600101348560030154866004015487600501338960070160149054906101000a900460ff1660405161083c9897969594939291906119ee565b60405180910390a1505050565b6000600154905090565b606060015482111561089a576040517f08c379a0000000000000000000000000000000000000000000000000000000008152600401610891906117c9565b60405180910390fd5b60066000838152602001908152602001600020805480602002602001604051908101604052809291908181526020016000905b8282101561095f57838290600052602060002090600202016040518060400160405290816000820160009054906101000a900473ffffffffffffffffffffffffffffffffffffffff1673ffffffffffffffffffffffffffffffffffffffff1673ffffffffffffffffffffffffffffffffffffffff168152602001600182015481525050815260200190600101906108cd565b505050509050919050565b6006602052816000526040600020818154811061098657600080fd5b9060005260206000209060020201600091509150508060000160009054906101000a900473ffffffffffffffffffffffffffffffffffffffff16908060010154905082565b600080600760008473ffffffffffffffffffffffffffffffffffffffff1673ffffffffffffffffffffffffffffffffffffffff168152602001908152602001600020549050678ac7230489e800008110610a29576005915050610a7a565b674563918244f400008110610a42576004915050610a7a565b670de0b6b3a76400008110610a5b576003915050610a7a565b6706f05b59d3b200008110610a74576002915050610a7a565b60019150505b919050565b6000600260006101000a81548160ff02191690836001811115610aa557610aa4610fd3565b5b0217905550565b600260019054906101000a900473ffffffffffffffffffffffffffffffffffffffff1681565b60045481565b610ae0610f4e565b606060405180610120016040528060015481526020018781526020018681526020018581526020018481526020018381526020018281526020013373ffffffffffffffffffffffffffffffffffffffff168152602001600180811115610b4957610b48610fd3565b5b815250600560006001548152602001908152602001600020600082015181600001556020820151816001019081610b809190611c11565b506040820151816002019081610b969190611c11565b50606082015181600301556080820151816004015560a0820151816005019081610bc09190611c11565b5060c0820151816006019080519060200190610bdd929190610f69565b5060e08201518160070160006101000a81548173ffffffffffffffffffffffffffffffffffffffff021916908373ffffffffffffffffffffffffffffffffffffffff1602179055506101008201518160070160146101000a81548160ff02191690836001811115610c5157610c50610fd3565b5b02179055509050507f63535273494e6cfddf138de365792dae1e28008178b091e9b7a73b37d373a5ac6001548787878787336001604051610c99989796959493929190611619565b60405180910390a1505050505050565b606060008054610cb890611924565b80601f0160208091040260200160405190810160405280929190818152602001828054610ce490611924565b8015610d315780601f10610d0657610100808354040283529160200191610d31565b820191906000526020600020905b815481529060010190602001808311610d1457829003601f168201915b5050505050905090565b6005602052806000526040600020600091509050806000015490806001018054610d6490611924565b80601f0160208091040260200160405190810160405280929190818152602001828054610d9090611924565b8015610ddd5780601f10610db257610100808354040283529160200191610ddd565b820191906000526020600020905b815481529060010190602001808311610dc057829003601f168201915b505050505090806002018054610df290611924565b80601f0160208091040260200160405190810160405280929190818152602001828054610e1e90611924565b8015610e6b5780601f10610e4057610100808354040283529160200191610e6b565b820191906000526020600020905b815481529060010190602001808311610e4e57829003601f168201915b505050505090806003015490806004015490806005018054610e8c90611924565b80601f0160208091040260200160405190810160405280929190818152602001828054610eb890611924565b8015610f055780601f10610eda57610100808354040283529160200191610f05565b820191906000526020600020905b815481529060010190602001808311610ee857829003601f168201915b5050505050908060070160009054906101000a900473ffffffffffffffffffffffffffffffffffffffff16908060070160149054906101000a900460ff16905088565b60035481565b6001806000828254610f6091906118c1565b92505081905550565b828054828255906000526020600020908101928215610fa5579160200282015b82811115610fa4578251825591602001919060010190610f89565b5b509050610fb29190610fb6565b5090565b5b80821115610fcf576000816000905550600101610fb7565b5090565b7f4e487b7100000000000000000000000000000000000000000000000000000000600052602160045260246000fd5b6002811061101357611012610fd3565b5b50565b600081905061102482611002565b919050565b600061103482611016565b9050919050565b61104481611029565b82525050565b600060208201905061105f600083018461103b565b92915050565b6000604051905090565b600080fd5b600080fd5b6000819050919050565b61108c81611079565b811461109757600080fd5b50565b6000813590506110a981611083565b92915050565b6000602082840312156110c5576110c461106f565b5b60006110d38482850161109a565b91505092915050565b6110e581611079565b82525050565b600060208201905061110060008301846110dc565b92915050565b600073ffffffffffffffffffffffffffffffffffffffff82169050919050565b600061113182611106565b9050919050565b61114181611126565b811461114c57600080fd5b50565b60008135905061115e81611138565b92915050565b60006020828403121561117a5761117961106f565b5b60006111888482850161114f565b91505092915050565b600081519050919050565b600082825260208201905092915050565b6000819050602082019050919050565b6111c681611126565b82525050565b6111d581611079565b82525050565b6040820160008201516111f160008501826111bd565b50602082015161120460208501826111cc565b50505050565b600061121683836111db565b60408301905092915050565b6000602082019050919050565b600061123a82611191565b611244818561119c565b935061124f836111ad565b8060005b83811015611280578151611267888261120a565b975061127283611222565b925050600181019050611253565b5085935050505092915050565b600060208201905081810360008301526112a7818461122f565b905092915050565b600080604083850312156112c6576112c561106f565b5b60006112d48582860161109a565b92505060206112e58582860161109a565b9150509250929050565b6112f881611126565b82525050565b600060408201905061131360008301856112ef565b61132060208301846110dc565b9392505050565b600060208201905061133c60008301846112ef565b92915050565b600080fd5b600080fd5b6000601f19601f8301169050919050565b7f4e487b7100000000000000000000000000000000000000000000000000000000600052604160045260246000fd5b6113958261134c565b810181811067ffffffffffffffff821117156113b4576113b361135d565b5b80604052505050565b60006113c7611065565b90506113d3828261138c565b919050565b600067ffffffffffffffff8211156113f3576113f261135d565b5b6113fc8261134c565b9050602081019050919050565b82818337600083830152505050565b600061142b611426846113d8565b6113bd565b90508281526020810184848401111561144757611446611347565b5b611452848285611409565b509392505050565b600082601f83011261146f5761146e611342565b5b813561147f848260208601611418565b91505092915050565b600080600080600060a086880312156114a4576114a361106f565b5b600086013567ffffffffffffffff8111156114c2576114c1611074565b5b6114ce8882890161145a565b955050602086013567ffffffffffffffff8111156114ef576114ee611074565b5b6114fb8882890161145a565b945050604061150c8882890161109a565b935050606061151d8882890161109a565b925050608086013567ffffffffffffffff81111561153e5761153d611074565b5b61154a8882890161145a565b9150509295509295909350565b600081519050919050565b600082825260208201905092915050565b60005b83811015611591578082015181840152602081019050611576565b60008484015250505050565b60006115a882611557565b6115b28185611562565b93506115c2818560208601611573565b6115cb8161134c565b840191505092915050565b600060208201905081810360008301526115f0818461159d565b905092915050565b600061160382611106565b9050919050565b611613816115f8565b82525050565b60006101008201905061162f600083018b6110dc565b8181036020830152611641818a61159d565b90508181036040830152611655818961159d565b905061166460608301886110dc565b61167160808301876110dc565b81810360a0830152611683818661159d565b905061169260c083018561160a565b61169f60e083018461103b565b9998505050505050505050565b7f4e487b7100000000000000000000000000000000000000000000000000000000600052601160045260246000fd5b60006116e682611079565b91506116f183611079565b92508282026116ff81611079565b91508282048414831517611716576117156116ac565b5b5092915050565b7f4e487b7100000000000000000000000000000000000000000000000000000000600052601260045260246000fd5b600061175782611079565b915061176283611079565b9250826117725761177161171d565b5b828204905092915050565b7f496e76616c69642066756e642049440000000000000000000000000000000000600082015250565b60006117b3600f83611562565b91506117be8261177d565b602082019050919050565b600060208201905081810360008301526117e2816117a6565b9050919050565b7f43616d706169676e207265616368656420676f616c0000000000000000000000600082015250565b600061181f601583611562565b915061182a826117e9565b602082019050919050565b6000602082019050818103600083015261184e81611812565b9050919050565b7f53656c6c65722063616e6e6f7420646f6e617465206f776e2066756e64000000600082015250565b600061188b601d83611562565b915061189682611855565b602082019050919050565b600060208201905081810360008301526118ba8161187e565b9050919050565b60006118cc82611079565b91506118d783611079565b92508282019050808211156118ef576118ee6116ac565b5b92915050565b7f4e487b7100000000000000000000000000000000000000000000000000000000600052602260045260246000fd5b6000600282049050600182168061193c57607f821691505b60208210810361194f5761194e6118f5565b5b50919050565b60008190508160005260206000209050919050565b6000815461197781611924565b6119818186611562565b9450600182166000811461199c57600181146119b2576119e5565b60ff1983168652811515602002860193506119e5565b6119bb85611955565b60005b838110156119dd578154818901526001820191506020810190506119be565b808801955050505b50505092915050565b600061010082019050611a04600083018b6110dc565b8181036020830152611a16818a61196a565b9050611a2560408301896110dc565b611a3260608301886110dc565b611a3f60808301876110dc565b81810360a0830152611a51818661196a565b9050611a6060c083018561160a565b611a6d60e083018461103b565b9998505050505050505050565b60006020601f8301049050919050565b600082821b905092915050565b600060088302611ac77fffffffffffffffffffffffffffffffffffffffffffffffffffffffffffffffff82611a8a565b611ad18683611a8a565b95508019841693508086168417925050509392505050565b6000819050919050565b6000611b0e611b09611b0484611079565b611ae9565b611079565b9050919050565b6000819050919050565b611b2883611af3565b611b3c611b3482611b15565b848454611a97565b825550505050565b600090565b611b51611b44565b611b5c818484611b1f565b505050565b5b81811015611b8057611b75600082611b49565b600181019050611b62565b5050565b601f821115611bc557611b9681611955565b611b9f84611a7a565b81016020851015611bae578190505b611bc2611bba85611a7a565b830182611b61565b50505b505050565b600082821c905092915050565b6000611be860001984600802611bca565b1980831691505092915050565b6000611c018383611bd7565b9150826002028217905092915050565b611c1a82611557565b67ffffffffffffffff811115611c3357611c3261135d565b5b611c3d8254611924565b611c48828285611b84565b600060209050601f831160018114611c7b5760008415611c69578287015190505b611c738582611bf5565b865550611cdb565b601f198416611c8986611955565b60005b82811015611cb157848901518255600182019150602085019450602081019050611c8c565b86831015611cce5784890151611cca601f891682611bd7565b8355505b6001600288020188555050505b50505050505056fea26469706673582212207b605dda3b7e26ec3d81238ebda3f045404ffdb4310e8346a71ce4b4b7ef1ae364736f6c63430008120033",
  "immutableReferences": {},
  "source": "// SPDX-License-Identifier: MIT\r\npragma solidity ^0.8.18;\r\n\r\ncontract CrowdFunding {\r\n    enum FundingStatus {Ended, Ongoing}\r\n    \r\n    string webName;\r\n    uint fundsCount;\r\n    FundingStatus currentFundStatus;\r\n    address public owner;\r\n    uint public fundsEnded;\r\n    uint public fundsOngoing;\r\n\r\n    constructor() {\r\n        fundsCount=0;\r\n        currentFundStatus = FundingStatus.Ongoing;\r\n        webName = \"CrowdFunding\";\r\n        owner = msg.sender;\r\n    }\r\n\r\n    function setFundSold() public {\r\n        currentFundStatus = FundingStatus.Ended;\r\n    }\r\n        \r\n    function getFundName() public view returns(string memory){\r\n        return webName;\r\n    }\r\n\r\n    function getFundStatus() public view returns(FundingStatus) {\r\n        return currentFundStatus;\r\n    }\r\n\r\n    struct FundDetails {\r\n        uint fundId;\r\n        string name;\r\n        string picName;\r\n        uint goal;\r\n        uint donated;\r\n        string desc;\r\n        uint256[] donations;\r\n        address payable ownerId;\r\n        FundingStatus status;\r\n    }\r\n\r\n    struct Donation {\r\n        address donor;\r\n        uint amount;\r\n    }\r\n\r\n\r\n    mapping(uint => FundDetails) public listOfFunds;\r\n    mapping(uint => Donation[]) public fundDonations;\r\n    mapping (address => uint) public userDonations;\r\n\r\n    event FundCreated(\r\n        uint fundId,\r\n        string name,\r\n        string picName,\r\n        uint goal,\r\n        uint donated,\r\n        string desc,\r\n        address payable ownerId,\r\n        FundingStatus status\r\n    );\r\n\r\n    function addFunds(string memory _name, string memory _picName,\r\n        uint _goal, uint _donated, string memory _desc) public {\r\n        incrementFundCount();\r\n        uint[] memory empDonations;\r\n        listOfFunds[fundsCount] = FundDetails(fundsCount, _name, _picName, _goal, _donated, _desc, empDonations, payable(msg.sender), FundingStatus.Ongoing);\r\n        emit FundCreated(fundsCount, _name, _picName, _goal, _donated, _desc, payable(msg.sender), FundingStatus.Ongoing);\r\n    }\r\n\r\n    function incrementFundCount() internal {\r\n        fundsCount += 1;\r\n    }\r\n\r\n    function getNoOfFunds() public view returns (uint) {\r\n        return fundsCount;\r\n    }\r\n\r\n   \r\n    event FundDonated(\r\n        uint id,\r\n        string name,\r\n        uint amnt,\r\n        uint goal,\r\n        uint donated,\r\n        string desc,\r\n        address payable owner,\r\n        FundingStatus status\r\n    );\r\n\r\n    function donateFund(uint _id) public payable {\r\n        FundDetails storage fundsInfo = listOfFunds[_id];\r\n        address payable seller = fundsInfo.ownerId;\r\n        require(fundsInfo.fundId > 0 && fundsInfo.fundId <= fundsCount, \"Invalid fund ID\");\r\n        require(fundsInfo.status == FundingStatus.Ongoing, \"Campaign reached goal\");\r\n        require(seller != msg.sender, \"Seller cannot donate own fund\");\r\n        fundsInfo.donated += msg.value;\r\n        fundsInfo.donations.push(msg.value);\r\n        fundDonations[_id].push(Donation({\r\n            donor: msg.sender,\r\n            amount: msg.value\r\n        }));\r\n        userDonations[msg.sender] += msg.value;\r\n        payable(seller).transfer(msg.value);\r\n        if (fundsInfo.donated >= fundsInfo.goal) {\r\n            fundsInfo.status = FundingStatus.Ended;\r\n        }\r\n        emit FundDonated(fundsInfo.fundId, fundsInfo.name, msg.value, fundsInfo.goal, fundsInfo.donated, fundsInfo.desc, payable(msg.sender), fundsInfo.status);\r\n    }\r\n\r\n    function getDonationHistory(uint _id) public view returns (Donation[] memory) {\r\n        require(_id <= fundsCount, \"Invalid fund ID\");\r\n        return fundDonations[_id];\r\n    }\r\n\r\n    function getUserRating(address _user) public view returns (uint) {\r\n        uint totalDonated = userDonations[_user];\r\n\r\n        if (totalDonated >= 10 ether) return 5; // Platinum\r\n        if (totalDonated >= 5 ether) return 4;  // Gold\r\n        if (totalDonated >= 1 ether) return 3;  // Silver\r\n        if (totalDonated >= 0.5 ether) return 2; // Bronze\r\n        return 1; // classic \r\n    }\r\n\r\n    function getCampaignStars(uint _campaignId) public view returns (uint) {\r\n        FundDetails storage campaign = listOfFunds[_campaignId];\r\n        uint percentage = (campaign.donated * 100) / campaign.goal;\r\n\r\n        if (percentage >= 100) return 5;\r\n        if (percentage >= 75) return 4;\r\n        if (percentage >= 50) return 3;\r\n        if (percentage >= 25) return 2;\r\n        return 1;\r\n    }\r\n}\r\n",
  "sourcePath": "C:\\FYP Project\\2024FYP\\CrowdFunding\\contracts\\CrowdFunding.sol",
  "compiler": {
    "name": "solc",
    "version": "0.8.18+commit.87f61d96.Emscripten.clang"
  },
  "schemaVersion": "3.4.16",
  "updatedAt": "2024-07-28T19:54:33.911Z",
  "networkType": "ethereum",
  "devdoc": {
    "kind": "dev",
    "methods": {},
    "version": 1
  },
  "userdoc": {
    "kind": "user",
    "methods": {},
    "version": 1
  }
}